:100000000C94151C0C943F1C0C943F1C0C943F1C2E
:100010000C943F1C0C943F1C0C943F1C0C943F1CF4
:100020000C943F1C0C943F1C0C943F1C0C943F1CE4
:100030000C943F1C0C94DF870C943F1C0C943F1CC9
:100040000C943F1C0C94F5B70C94D2D20C943F1C2A
:100050000C94723C0C94683C0C943F1C0C943F1C18
:100060000C943F1C0C943F1C0C943F1C0C943F1CA4
:100070000C943F1C0C943F1C0C943F1C0C943F1C94
:100080000C943F1C0C943F1C0C943F1CB8B19DB1C8
:10009000A0B1BBB1A3B1A6B1A9B1B5B1ACB1C6B164
:1000A000AFB1B2B1CBC98AC8C1C807CAC1C8C1C83B
:1000B000C1C8C1C8C1C8C1C8C1C8C1C8C1C8C1C8F8
:1000C000C1C8C1C8C1C8C1C8C1C8C1C8C1C8C1C8E8
:1000D000C1C8C1C8C1C8C1C8C1C8C1C8C1C8C1C8D8
:1000E00001CAC1C8C1C8C1C8C1C8C1C8C1C8C1C886
:1000F000C1C8DAC9C1C8C1C8C1C8C1C8C1C8C1C89E
:10010000C1C8C1C8C1C8C1C81ECABEC846D149D12C
:100110003CD140D160D160D14DD151D157D15BD1CB
:100120001CD221D226D230D25ED25ED23AD242D274
:100130004AD254D2084AD73B3BCE016E84BCBFFDA5
:10014000C12F3D6C74319ABD56833DDA3D00C77FA7
:1001500011BED9E4BB4C3E916BAAAABE0000008040
:100160003F05A84CCDB2D44EB93836A9020C50B9CF
:10017000918688083CA6AAAA2ABE000000803F00FB
:100180004E414E494E495459494E46CDCCCC3D0A7C
:10019000D7233C17B7D13877CC2B329595E6241F5F
:1001A000B14F0A000020410000C84200401C462018
:1001B000BCBE4CCA1B0E5AAEC59D7400407A10F3EB
:1001C0005A00A0724E18090010A5D4E80000E87685
:1001D00048170000E40B54020000CA9A3B000000DC
:1001E000E1F505000080969800000040420F0000F5
:1001F00000A08601000000102700000000E80300B6
:100200000000006400000000000A0000000000017F
:1002100000000000002C76D888DC674F0823DFC17F
:10022000DFAE59E1B1B796E5E3E453C63AE651993A
:100230007696E8E6C28426EB898C9B62ED407C6F63
:10024000FCEFBC9C9F40F2BAA56FA5F490055A2A1A
:10025000F75C936B6CF9676DC11BFCE0E40D47FE26
:10026000F520E6B500D0ED902E030094357705001B
:1002700080841E080000204E0A000000C80C3333A2
:1002800033330F986E12831141EF8D2114893BE6B1
:100290005516CFFEE6DB18D1844B381BF77C1D903A
:1002A0001DA4BBE424203284725E228100C9F124A3
:1002B000ECA1E53D27434F4D4D554E49434154492F
:1002C0004F4E0044525952554E004552524F5253D0
:1002D00000494E464F004543484F0020746F6F2041
:1002E0006C6F6E6720657874727573696F6E2070BD
:1002F000726576656E7465640A0020636F6C6420B5
:10030000657874727573696F6E2070726576656E4C
:100310007465640A0047322F47332062616420709D
:100320006172616D65746572730A00536C65657006
:100330002E2E2E00486F6D65205859206669727305
:10034000740A00486F6D65205859204669727374AD
:1003500000436C69636B20746F20526573756D6523
:100360002E2E2E004E6F204D6F76652E00456E644A
:100370002066696C65206C6973740A004265676960
:100380006E2066696C65206C6973740A00286E6F54
:100390002066696C65290043757272656E7420660B
:1003A000696C653A20005344207072696E74696EFE
:1003B00067206279746520004E6F7420534420706A
:1003C00072696E74696E670A002E0A0044656C6576
:1003D00074696F6E206661696C65642C2046696C77
:1003E000653A200046696C652064656C65746564D7
:1003F0003A002569730025696D2025697300256918
:10040000682025696D2025697300256964202569A8
:10041000682025696D202569730025697920256983
:1004200064202569682025696D2025697300507254
:10043000696E742074696D653A2000496E76616C4E
:1004400069642050696E204D6F64650A00436F6FC8
:100450006C696E672E2E2E0048656174696E672E7A
:100460002E2E0045202553006F6B006F666600D668
:1004700002D102CA02C302B50244454255473A00BE
:100480004D3131322053687574646F776E004D3191
:100490003133205300456E64657233204F46462E3B
:1004A000004348414D4245525F54454D50455241ED
:1004B00054555245004D4F54494F4E5F4D4F4445A2
:1004C0005300544845524D414C5F50524F544543A0
:1004D00054494F4E004155544F5245504F52545F6E
:1004E00053445F5354415455530050524F4D505450
:1004F0005F535550504F525400454D455247454E5D
:1005000043595F50415253455200434153455F4C5C
:10051000494748545F4252494748544E4553530057
:10052000544F47474C455F4C494748545300534F3D
:100530004654574152455F504F5745520042554926
:100540004C445F50455243454E54004C4556454C33
:10055000494E475F44415441005A5F50524F424513
:10056000004155544F4C4556454C005052494E544D
:100570005F4A4F420050524F475245535300415536
:10058000544F5245504F52545F54454D5000564FB2
:100590004C554D455452494300454550524F4D002E
:1005A00042494E4152595F46494C455F5452414E73
:1005B000534645520053455249414C5F584F4E5F98
:1005C000584F4646004649524D574152455F4E41AD
:1005D0004D453A4D61726C696E2062756766697847
:1005E0002D322E302E7820284769744875622920D4
:1005F000534F555243455F434F44455F55524C3A24
:1006000068747470733A2F2F6769746875622E630B
:100610006F6D2F4D61726C696E4669726D77617294
:10062000652F4D61726C696E2050524F544F434F8D
:100630004C5F56455253494F4E3A312E30204D4172
:100640004348494E455F545950453A456E6465727A
:10065000332045585452554445525F434F554E54EC
:100660003A3120555549443A6365646532613266D2
:100670002D343161322D343734382D396231322DF9
:100680006335356336326633363766660A002F2F98
:1006900020004D31343520533C696E6465783E202E
:1006A0006F7574206F662072616E67652028302D2B
:1006B00031290A00205400205200416363656C65B3
:1006C000726174696F6E3A2050003F4A206F7574F2
:1006D000206F662072616E67652028302E303120D1
:1006E000746F20302E33290A0046523A0020466C9F
:1006F0006F773A200050726F7465637465642050A0
:10070000696E0A004261627973746570205A00490B
:100710006E76616C69642065787472756465720ABE
:100720000020643A0020693A0020703A0020643AC0
:100730000020693A0020703A0064697300656E0019
:1007400043290A0061626C656420286D696E20741B
:10075000656D702000436F6C6420657874727564F9
:1007600065732061726520004F666673657473203F
:100770004170706C696564004572723A20546F6F05
:10078000206661722100546F6F206661722066726C
:100790006F6D207265666572656E636520706F6946
:1007A0006E740A00454550524F4D20646973616272
:1007B0006C65640A00496E76616C696420657874C2
:1007C00072756465720A000F150E1216170E130368
:1007D000021A1401000E0C190DFF180C040001621E
:1007E0007573793A2070617573656420666F722045
:1007F000696E7075740A00627573793A207061755C
:1008000073656420666F7220757365720A00627585
:1008100073793A2070726F63657373696E670A004B
:1008200053544F505045442E20005072696E7465E9
:10083000722073746F707065642064756520746FC6
:10084000206572726F72732E204669782074686515
:10085000206572726F7220616E6420757365204D21
:1008600039393920746F20726573746172742E2067
:100870002854656D706572617475726520697320A6
:1008800072657365742E20536574206974206166E7
:100890007465722072657374617274696E67290A77
:1008A000004E6F20436865636B73756D20776974C4
:1008B00068206C696E65206E756D6265722C204CC7
:1008C000617374204C696E653A20004E6F20436856
:1008D00065636B73756D2077697468206C696E65EC
:1008E000206E756D6265722C204C617374204C69AA
:1008F0006E653A2000636865636B73756D206D6982
:10090000736D617463682C204C617374204C696E44
:10091000653A20004C696E65204E756D62657220E7
:100920006973206E6F74204C617374204C696E651E
:10093000204E756D6265722B312C204C61737420D2
:100940004C696E653A20004D3131300053442072BD
:10095000656164206572726F720A002121204B4923
:100960004C4C2063617573656420627920746F6FED
:10097000206D75636820696E6163746976652074A3
:10098000696D65202D2063757272656E7420636FCA
:100990006D6D616E643A2000506C65617365205224
:1009A00065736574005052494E5445522048414C7D
:1009B0005445440025533A202553004B494C4C459F
:1009C000442E20005072696E7465722068616C74E8
:1009D00065642E206B696C6C28292063616C6C65E2
:1009E00064210A006563686F3A004572726F723A5B
:1009F00000486F74656E6420746F6F20636F6C6461
:100A00000A007C3C3E5E2B3D3F2F5B5D3B2C2A2247
:100A10005C0000006B4300006B430000704300006B
:100A20000000000000000000000048617264636F75
:100A30006465642044656661756C742053657474E4
:100A4000696E6773204C6F616465640A00000096EC
:100A5000430000964300009642000096430000A029
:100A6000420000A0420000C8430000C342B80B008F
:100A700000B80B000064000000102700006F7065D4
:100A80006E00545249474745524544003A20007A87
:100A90005F6D696E00795F6D696E00785F6D696E7C
:100AA000005265706F7274696E6720656E6473744E
:100AB0006F70207374617475730A00486F6D6520E0
:100AC00025732573257320466972737400486F6D12
:100AD000696E67204661696C656400000000000073
:100AE00000000000000000000048420000484200F2
:100AF0000080405761726E696E673A20486F6D6979
:100B00006E672042756D702044697669736F72203C
:100B10003C20310A000202040000A0400000A04076
:100B20000000004000006B4300006B430000704376
:100B3000FFFFFF4361703A00220A00656E71756520
:100B40007565696E672022006F6B00526573656E74
:100B5000643A200020573A0042656420436F6F6C6E
:100B6000696E672E2E2E00426564204865617469A7
:100B70006E672E2E2E0023646566696E65204445DF
:100B80004641554C545F00626564004B6420004B45
:100B90006920004B702000504944204175746F74E7
:100BA000756E652066696E6973686564212050758D
:100BB0007420746865206C617374204B702C204B1A
:100BC0006920616E64204B6420636F6E7374616E84
:100BD00074732066726F6D2062656C6F7720696E2A
:100BE000746F20436F6E66696775726174696F6EAA
:100BF0002E680A00504944204175746F74756E6503
:100C0000206661696C6564212074696D656F757417
:100C10000A00504944204175746F74756E652066F2
:100C200061696C6564212054656D706572617475CD
:100C3000726520746F6F20686967680A00204B64D2
:100C40003A2000204B693A2000204B703A20000ADD
:100C500020436C617373696320504944200A00206B
:100C60004B643A2000204B693A2000204B703A2018
:100C7000000A204E6F206F76657273686F6F740A7A
:100C8000002054753A2000204B753A2000206D61F9
:100C9000783A2000206D696E3A200020643A2000E6
:100CA00020626961733A2000504944204175746F95
:100CB00074756E652073746172740A005049442023
:100CC0004175746F74756E65206661696C65642129
:100CD0002054656D706572617475726520746F6FF4
:100CE00020686967680A00504944204175746F7430
:100CF000756E65206661696C6564212042616420BF
:100D00006578747275646572206E756D6265720ABD
:100D1000002020506C616E6E657242756666657269
:100D200042797465733A20002046726565204D65EE
:100D30006D6F72793A2000436F6D70696C65643A2B
:100D4000204D617220313920323032300A00204C7F
:100D500061737420557064617465643A2032303276
:100D6000302D30332D3139207C20417574686F72FD
:100D70003A20636363630A006275676669782D329F
:100D80002E302E780A004D61726C696E0020536F10
:100D90006674776172652052657365740A00205726
:100DA00061746368646F672052657365740A00201C
:100DB00042726F776E206F75742052657365740A86
:100DC000002045787465726E616C2052657365749D
:100DD0000A00506F77657255700A007374617274FF
:100DE0000A006175746F25632E67004732385859C1
:100DF00000446F6E65207072696E74696E6720665C
:100E0000696C650A004D3051315331383030004D36
:100E10003051315031004D3737004D33310065725C
:100E2000726F722077726974696E6720746F2066C2
:100E3000696C650A00446F6E6520736176696E6740
:100E40002066696C652E0A004D323900456E647368
:100E5000746F70730025532025632025632025635C
:100E600020256300205A3A0020593A0020583A00C1
:100E7000656E6473746F7073206869743A20002023
:100E80004500204D39322058004F4646004F4E0055
:100E9000205A0020590020580020204D61783A2027
:100EA00000200020204D696E3A2000536F667420A8
:100EB000656E6473746F70733A2000496E73657267
:100EC000742066696C616D656E7420616E6420705B
:100ED0007265737320627574746F6E0A00496E7365
:100EE0006572742066696C616D656E7420616E64F4
:100EF00020707265737320627574746F6E0A00508F
:100F00007265737320627574746F6E20746F2068DD
:100F1000656174206E6F7A7A6C650A004D363030E8
:100F20003A20546F6F20436F6C6400486F74656E95
:100F30006420746F6F20636F6C640A0020496E76C2
:100F4000616C696420657874727564657220002034
:100F5000453A00205A3A0020593A00583A00207485
:100F60006F6F206C6F6E6720657874727573696F30
:100F70006E2070726576656E7465640A0020636F1A
:100F80006C6420657874727573696F6E2070726519
:100F900076656E7465640A0043616E6E6F74206FCF
:100FA00070656E207375626469722000534420631B
:100FB000617264206F6B0A006F70656E526F6F74A0
:100FC000206661696C65640A00766F6C756D652ECC
:100FD000696E6974206661696C65640A0053442017
:100FE000696E6974206661696C0A004D3234004D87
:100FF00032332025730046696C652073656C656328
:101000007465640A002053697A653A200046696C69
:1010100065206F70656E65643A2000454E4420532C
:101020005542524F5554494E450A002220706F7365
:10103000002220706172656E743A2200535542524C
:101040004F5554494E452043414C4C2074617267C2
:1010500065743A2200747279696E6720746F206338
:10106000616C6C207375622D67636F6465206669BF
:101070006C6573207769746820746F6F206D616E82
:1010800079206C6576656C732E204D4158206C6517
:1010900076656C2069733A310A0057726974696E1B
:1010A0006720746F2066696C653A20002E0A006F15
:1010B00070656E206661696C65642C2046696C659C
:1010C0003A2000667265736800646F696E6700207D
:1010D00066696C653A20004E6F7720002E0A006F1B
:1010E00070656E206661696C65642C2046696C656C
:1010F0003A200000002110422063308440A550C6F1
:1011000060E770088129914AA16BB18CC1ADD1CE45
:10111000E1EFF13112100273325222B5529442F7CC
:1011200072D662399318837BB35AA3BDD39CC3FF95
:10113000F3DEE36224433420040114E664C774A49C
:101140004485546AA54BB528850995EEE5CFF5ACE5
:10115000C58DD55336722611163006D776F66695AC
:1011600056B4465BB77AA719973887DFF7FEE79D35
:10117000D7BCC7C448E5588668A7784008611802FC
:10118000282338CCC9EDD98EE9AFF9488969990A85
:10119000A92BB9F55AD44AB77A966A711A500A330C
:1011A0003A122AFDDBDCCBBFFB9EEB799B588B3BD5
:1011B000BB1AABA66C877CE44CC55C222C033C605C
:1011C0000C411CAEED8FFDECCDCDDD2AAD0BBD6825
:1011D0008D499D977EB66ED55EF44E133E322E51EC
:1011E0001E700E9FFFBEEFDDDFFCCF1BBF3AAF5975
:1011F0009F788F8891A981CAB1EBA10CD12DC14EE6
:10120000F16FE18010A100C230E320045025404678
:10121000706760B9839893FBA3DAB33DC31CD37F97
:10122000E35EF3B1029012F322D2323542145277C8
:10123000625672EAB5CBA5A89589856EF54FE52C67
:10124000D50DC5E234C324A0148104667447642418
:10125000540544DBA7FAB79987B8975FE77EF71D77
:10126000C73CD7D326F2369106B016576676761568
:101270004634564CD96DC90EF92FE9C899E9898AC7
:10128000B9ABA94458654806782768C018E10882B8
:1012900038A3287DCB5CDB3FEB1EFBF98BD89BBBD7
:1012A000AB9ABB754A545A376A167AF10AD01AB308
:1012B0002A923A2EFD0FED6CDD4DCDAABD8BADE827
:1012C0009DC98D267C076C645C454CA23C832CE058
:1012D0001CC10C1FEF3EFF5DCF7CDF9BAFBABFD9B7
:1012E0008FF89F176E367E554E745E932EB23ED1A8
:1012F0000EF01E01020408102040800102040810B4
:101300002040800102040810204080804020100806
:1013100004020100002200250028002B0002020226
:10132000020202020204040404040404040303038A
:10133000030303030301010101010101015072696B
:101340006E74657220496E666F004D61696E00496A
:101350006E6469676F00426C756500477265656E03
:101360000059656C6C6F77004F72616E6765005253
:1013700065640056696F6C65740057686974650030
:101380004272696768746E65737300576869746543
:1013900020496E74656E7369747900426C756520BE
:1013A000496E74656E7369747900477265656E2065
:1013B000496E74656E736974790052656420496E74
:1013C00074656E73697479004C454420436F6E7484
:1013D000726F6C00437573746F6D204C696768742D
:1013E00073004C696768742050726573657473008C
:1013F00044656661756C74004F6666004F6E004C04
:101400006967687473004D61696E003F00426163F3
:101410006B0053746F70004368616E6765204669A6
:101420006C616D656E740050726568656174204111
:1014300042532B005072656865617420504C412BFB
:10144000005072656865617420437573746F6D0038
:101450004261636B0024F4D43050C38E20C2A2409A
:1014600017828B7011127A910D816CD90AA861E1F3
:1014700008C7586607615143061E4B5D05C145A765
:10148000041A411104093D9803713931034036DBD8
:101490000265339102D4305402802E1D02632CEE7B
:1014A00001752AC501B028A001102781018F25648C
:1014B000012B244B01E0223401AC211F018D200DB2
:1014C00001801FFC00841EED00971DDF00B81CD2B8
:1014D00000E61BC600201BBC00641AB200B219A8AB
:1014E000000A19A0006A189900D117910040178BC3
:1014F00000B516840031167E00B31579003A1573D5
:1015000000C7146F0058146A00EE13660088136356
:101510000025135E00C7125B006C125700151254B1
:1015200000C111510070114F0021114B00D610491C
:10153000008D1047004610440002104200C00F40CA
:1015400000800F3E00420F3C00060F3B00CB0E38E0
:1015500000930E37005C0E3500270E3400F30D3279
:1015600000C10D3100900D3000600D2E00320D2DA8
:1015700000050D2C00D90C2B00AE0C2900850C2980
:10158000005C0C2700350C27000E0C2600E80B240D
:1015900000C40B2400A00B23007D0B23005A0B2159
:1015A00000390B2100180B2000F80A1F00D90A1E71
:1015B00000BB0A1E009D0A1D00800A1D00630A1C54
:1015C00000470A1B002C0A1B00110A1A00F7091A0F
:1015D00000DD091900C4091900AB091900920917A7
:1015E000007B091800630917004C0916003609161C
:1015F00000200916000A091500F5081500E0081476
:1016000000CC081400B8081400A4081400900813B3
:10161000007D0812006B08130058081200460812DB
:1016200000340811002308110012081100010811EC
:1016300000F0071000E0071000D0071000C00710EE
:1016400000B0070F00A107100091070E0083070FDD
:101650000074070F0065070E0057070E0049070EBC
:10166000003B070D002E070E0020070D0013070D8D
:101670000006070D00F9060C00ED060D00E0060C53
:1016800000D4060C00C8060C00BC060C00B0060C0A
:1016900000A4060B0099060C008D060B0082060BB9
:1016A0000077060B006C060B0061060A0057060B5C
:1016B000004C060A0042060A0038060A002E060AF6
:1016C0000024060A001A060A001006090007060A86
:1016D00000FD050900F4050900EB050900E2050914
:1016E00000D9050900D0050900C7050900BE050994
:1016F00000B5050800AD050800A50509009C050812
:1017000000940508008C050800840508007C050885
:1017100000740508006C050700650508005D0507F5
:1017200000560508004E050700470507004005085C
:101730000038050700310507002A050700230507C3
:10174000001C050600160507000F05070008050622
:101750000002050700FB040600F5040700EE04067E
:1017600000E8040600E2040700DB040600D50406D6
:1017700000CF040600C9040600C3040600BD040629
:1017800000B7040600B1040500AC040600A6040678
:1017900000A00405009B04060095040500900406C3
:1017A000008A04050085040500800406007A04050B
:1017B0000075040500700405006B0405006604054F
:1017C00000610405005C040500570405005204058F
:1017D000004D04050048040500430405003E0404D0
:1017E000003A04050035040500300404002C04050B
:1017F0000027040400230405001E0404001A040446
:101800000016040500110404000D04040009040579
:10181000000404040000040400FC030400F80304B2
:1018200000F4030400F0030400EC030400E80304E4
:1018300000E4030400E0030400DC030400D8030414
:1018400000D4030400D0030400CC030400C8030345
:1018500000C503030024F404D9201BC40C5C0E98BB
:1018600004C4095F0265077101F405F900FB04B3C4
:101870000048048700C1036900580355000303456D
:1018800000BE023A008402310053022A00290225D8
:101890000004022000E4011C00C8011900AF011778
:1018A00000980114008401130071011000610110FF
:1018B0000051010E0043010D0036010B002B010BFE
:1018C0000020010B00150109000C010900030108AB
:1018D00000FB000800F3000800EB000700E400062E
:1018E00000DE000600D8000600D2000600CC00058D
:1018F00000C7000500C2000500BD000400B90004D7
:1019000000B5000400B1000400AD000400A900040B
:1019100000A5000300A20003009F0004009B000339
:10192000009800030095000200930003009000035C
:10193000008D0002008B0003008800020086000278
:101940000084000300810002007F0002007D00028D
:10195000007B00020079000200770001007600029F
:10196000007400020072000100710002006F0002AA
:10197000006D0001006C0002006A000100690002B5
:1019800000670001006600010065000100640002BC
:10199000006200010061000100600001005F0002C0
:1019A000005D0001005C0001005B0001005A0001C5
:1019B00000590001005800010057000100560001C5
:1019C00000550001005400010053000000530001C5
:1019D000005200010051000100500001004F0001C1
:1019E000004E0000004E0001004D0001004C0001BF
:1019F000004B0000004B0001004A000100490001BB
:101A000000480000004800010047000100460000B7
:101A100000460001004500000045000100440001AF
:101A200000430000004300010042000000420001AA
:101A3000004100000041000100400001003F0000A3
:101A4000003F0001003E0000003E0001003D00009C
:101A5000003D0001003C0000003C0000003C000193
:101A6000003B0000003B0001003A0000003A00018A
:101A70000039000000390001003800000038000083
:101A80000038000100370000003700010036000078
:101A9000003600000036000100350000003500006F
:101AA0000035000100340000003400000034000163
:101AB000003300000033000000330001003200005A
:101AC000003200000032000100310000003100004F
:101AD0000031000100300000003000000030000143
:101AE000002F0000002F0000002F0000002F000139
:101AF000002E0000002E0000002E0001002D00002E
:101B0000002D0000002D0000002D0001002C000021
:101B1000002C0000002C0000002C0001002B000015
:101B2000002B0000002B0000002B0001002A000009
:101B3000002A0000002A0000002A000100290000FD
:101B400000290000002900000029000000290001F0
:101B500000280000002800000028000000280000E5
:101B600000280001002700000027000000270000D7
:101B700000270000002700010026000000260000CA
:101B800000260000002600000026000100250000BD
:101B900000250000002500000025000000250000B1
:101BA00000250001002400000024000000240000A3
:101BB0000024000000240001002300000023000096
:101BC0000023000000230000002300000023000089
:101BD000002300010022000000220000002200007B
:101BE000002200000022000000220001002100006D
:101BF0000021000000210000002100000021000061
:101C00000021000000210001002000000020000051
:101C10000020000000200000002000000020000044
:101C20000020000000200001001F0000001F000035
:101C3000001F0000001F0000001F0000001F000028
:101C4000001F0001001E0000001E0000001E00001A
:101C5000001E000000043700001E290000511B0078
:101C6000005810000010090000CC040000780200A9
:101C70000041010000507265686561742041425363
:101C80002B20456E64005072656865617420414286
:101C9000532B204265640054656D706572617475E4
:101CA000726500436F6F6C646F776E005072656889
:101CB000656174204142532B005072656865617400
:101CC00020504C412B0046616E20537065656400C6
:101CD000426564004E6F7A7A6C65004D61696E00F2
:101CE000546F74616C004261627973746570205A3C
:101CF00000466C6F770046616E2053706565640026
:101D0000426564004E6F7A7A6C6500537065656455
:101D1000004D61696E004D32310041747461636839
:101D2000204D65646961005072696E742066726F3F
:101D30006D204D65646961004D32320052656C65FD
:101D4000617365204D65646961004C454420436FB3
:101D50006E74726F6C0041626F7574205072696EA0
:101D6000746572004D363030204230004368616E39
:101D700067652046696C616D656E7400436F6E66C1
:101D8000696775726174696F6E0054656D70657214
:101D90006174757265004D6F74696F6E0052657382
:101DA000756D65205072696E74004D6564696120BF
:101DB00052656C65617365640054756E650053749B
:101DC0006F70205072696E74005061757365205099
:101DD00072696E7400496E666F2053637265656E3A
:101DE000003F005374617274205072696E74004336
:101DF000616E63656C005072696E740043616E6E53
:101E00006F7420656E746572207375626469723ACE
:101E10002000022E2E000152656672657368004D27
:101E200061696E002568753A253032687500253085
:101E30003268753A2530326875002568756420254A
:101E4000303268753A253032687500202020202015
:101E500020200020202020202020002020202000E2
:101E60001FE0201020102010102010202010201023
:101E700030300840048003001FE03FF03FF03FF0A7
:101E80001FE01FE03FF03FF03FF00FC0078003006E
:101E90003FFFF038007030FC3020FC10207810201C
:101EA00030102C00D02E31D02F7BD02F7BD02E3174
:101EB000D02C00D020301020781020FC1030FC30C6
:101EC0003800703FFFF03FFFF0380070318630235C
:101ED00087102787902F87D02F03D02030102078AD
:101EE000102078102030102F03D02F87D027879014
:101EF0002387103186303800703FFFF01FFFF81F36
:101F0000FFF80410400208200208200410400820B6
:101F100080104100104100082080041040000000A3
:101F20001FFFF81FFFF8256C6425636D004C6F617F
:101F300064206D6D00556E6C6F6164206D6D0046A0
:101F4000696C2E204469612E004F6666004F6E005A
:101F50004520696E206D6DC2B300554E4C4F414413
:101F60002046494C414D454E54004C4F414420467B
:101F7000494C414D454E540046494C414D454E5407
:101F8000204348414E4745004573746570732F6D7B
:101F90006D005A73746570732F6D6D00597374659D
:101FA00070732F6D6D005873746570732F6D6D00B5
:101FB000416476616E6365642053657474696E670D
:101FC000730046696C616D656E740053746570735F
:101FD0002F6D6D00436F6E66696775726174696F0E
:101FE0006E003F004E65787420506F696E74004437
:101FF0006F6E65004E65787400486F6D696E67207E
:1020000058595A00526573746F7265204465666151
:10201000756C747300416476616E6365642053650A
:102020007474696E6773004D61696E004D373032AC
:1020300020542564004D3630302042302054256431
:10204000004D373032203B2564004D37303120546D
:10205000256400436F6E74696E7565005075726714
:1020600065206D6F726500524553554D45204F50A8
:1020700054494F4E533A005052494E542050415506
:102080005345440020204E6F7A7A6C653A20005008
:1020900061726B696E672E2E2E00000057616974A5
:1020A00020666F720066696C616D656E742063688E
:1020B000616E676500746F2073746172740057619C
:1020C000697420666F720066696C616D656E74205C
:1020D000756E6C6F616400004E6F7A7A6C65206873
:1020E000656174696E6700506C6561736520776126
:1020F00069742E2E2E000050726573732062757401
:10210000746F6E00746F2068656174206E6F7A7AE8
:102110006C650000496E736572742066696C616D50
:10212000656E7400616E64207072657373206275F1
:1021300074746F6E00746F20636F6E74696E756572
:10214000005761697420666F720066696C616D6525
:102150006E74206C6F61640000507265737320426E
:102160007574746F6E00746F20726573756D652081
:102170007072696E7400005761697420666F722016
:102180007072696E7400746F20726573756D652E60
:102190002E2E0000436C69636B20746F2066696E9D
:1021A0006973680066696C616D656E742070757224
:1021B00067650000202D20496E76616C696420659A
:1021C00078747275646572206E756D626572202117
:1021D0000A0070012C0190012701B0012201C00109
:1021E0001D01F00118011002130130020E016002FE
:1021F000090190020401C002FF000003FA0040033D
:10220000F5008003F000D003EB002004E60070042A
:10221000E100E004DC004005D700C005D200400624
:10222000CD00D006C8008007C3003008BE00F0080B
:10223000B900C009B400B00AAF00B00BAA00D00CBE
:10224000A500000EA000500F9B00C0109600501279
:10225000910000148C00C0158700B0178200B019DF
:102260007D00D01B7800001E730040206E0090227D
:102270006900F024640040275F0090295A00E02B99
:102280005500102E500020304B0010324600E03335
:10229000410090353C001037370070383200A039CB
:1022A0002D00B03A2800A03B2300603C1E00103DEA
:1022B0001900903D1400103E0F00703E0A00C03E11
:1022C0000500003F0000403FFBFF803FF6FFC03F9E
:1022D000F1FF544845524D414C2052554E41574113
:1022E0005900546865726D616C2052756E6177613A
:1022F00079004572723A204D415854454D50004D79
:10230000415854454D502074726967676572656421
:10231000004572723A204D494E54454D50004D498A
:102320004E54454D5020747269676765726564004C
:102330004D383420582059205A204500202F0020A5
:1023400042403A0020403A0020573A000009121B50
:10235000242D363F48415A536C657E7719100B0285
:102360003D342F265158434A757C676E323B2029F5
:10237000161F040D7A7368615E574C452B22393065
:102380000F061D14636A7178474E555C646D767F45
:102390004049525B2C253E3708011A137D746F6645
:1023A00059504B42353C272E1118030A565F444DB5
:1023B000727B60691E170C053A3328214F465D5425
:1023C0006B627970070E151C232A31384148535A25
:1023D000656C777E09001B122D243F3658514A4305
:1023E0007C756E671019020B343D262F737A616875
:1023F000575E454C3B3229201F160D046A637871E5
:102400004E475C55222B3039060F141D252C373EC4
:102410000108131A6D647F7649405B523C352E27C4
:1024200018110A03747D666F5059424B171E050C34
:10243000333A21285F564D447B7269600E071C15A4
:102440002A233831464F545D626B70794572723A77
:10245000207574663820666F6E74206E6F74206904
:102460006E697469616C697A65642E004572723AAE
:10247000207574663820666F6E74206E6F742069E4
:102480006E697469616C697A65642E004572723A8E
:10249000207574663820666F6E74206E6F742069C4
:1024A0006E697469616C697A65642E006874747011
:1024B0003A2F2F6D61726C696E66772E6F726700AE
:1024C0006275676669782D322E302E78001FFFFF07
:1024D000FFFFFFFF600000000001FF400000000060
:1024E00000FF8000000000007F83CF00000C303F21
:1024F00087FF80000C301F867980000C000F8C3025
:10250000C7838C30E78C30CFC7CC31F38C30DCEC18
:10251000EC33B98C30D86C6C33198C30D06C0C33F4
:10252000198C30D86C0C33198C30DC6C0E3B198C48
:1025300030CF7C079F198C30C77C038F1940000077
:1025400000000002600000000000061FFFFFFFFF08
:10255000FFF800091200FC0A01E803D720FFFD0E76
:10256000FD0BFD00000009000E010B0B09040080AB
:10257000808080808080000080800404040903073C
:1025800090909090080A0A090000242424FF242433
:10259000FF242424070B0B0901FF107C9290503874
:1025A0001412927C10070A0A09010042A4A44810E0
:1025B00010244A4A84070A0A09010060909090603A
:1025C0006294889462010404090407808080800377
:1025D0000C0C0903FF2040408080808080804040B8
:1025E00020030C0C0903FF804040202020202020E5
:1025F0004040800707070901031092543854921095
:10260000070707090101101010FE10101002040442
:102610000904FEC0C04080070101090104FE020256
:1026200002090400C0C0070A0A09010002040408E4
:10263000101020404080070A0A09010038448282B5
:10264000828282824438070A0A09010010305090C1
:102650001010101010FE070A0A0901003844820207
:102660000408102040FE070A0A090100FE020408BF
:10267000180402028478070A0A090100040C1424D1
:102680004484FE040404070A0A090100FE808080D5
:10269000F80402028478070A0A0901003C4080809D
:1026A000B8C482824438070A0A090100FE02040401
:1026B000080810101010070A0A0901003844824463
:1026C000384482824438070A0A0901003844828269
:1026D000463A02020478020707090400C0C000005D
:1026E00000C0C00209090904FEC0C0000000C0C04B
:1026F0004080050909090200081020408040201090
:1027000008070404090102FE0000FE050909090288
:1027100000804020100810204080070A0A090100AC
:1027200038448202040810100010070A0A09010048
:1027300038449AAAAAAAAA9C403C070A0A0901009E
:1027400010282828447C44828282070A0A09010052
:10275000F8848284F884828284F8070A0A090100D6
:102760003C42808080808080423C070A0A09010048
:10277000F88482828282828284F8070A0A09010030
:10278000FE808080F880808080FE070A0A090100B0
:10279000FE808080F88080808080070A0A0901001E
:1027A00038448280808E82824438070A0A090100F8
:1027B00082828282FE8282828282050A0A09020065
:1027C000F82020202020202020F8070A0A090100F4
:1027D0003E080808080808888870070A0A090100E6
:1027E00082848890A0D088848282070A0A09010026
:1027F000808080808080808080FE070A0A09010036
:102800008282C6AA928282828282070A0A09010013
:102810008282C2A2928A86828282070A0A09010003
:102820007C82828282828282827C070A0A0901007B
:10283000F884828284F880808080080B0B0901FF75
:10284000384482828282828A443A01070A0A090154
:1028500000F884828284F890888482070A0A090139
:10286000007C8280807C020202827C070A0A0901C5
:1028700000FE101010101010101010070A0A0901A5
:102880000082828282828282824438070A0A090197
:102890000082828244444428282810070A0A090139
:1028A000008282828292929292AA44070A0A0901C5
:1028B0000082824428101028448282070A0A0901F3
:1028C0000082824428101010101010070A0A090113
:1028D00000FE0204081020408080FE040C0C090356
:1028E000FFF080808080808080808080F0070A0AEE
:1028F00009010080404020101008040402040C0C60
:102900000902FFF010101010101010101010F00736
:102910000404090106102844820801010900FFFF90
:1029200003030309030A8040200707070901007C0D
:1029300002027E82867A070A0A090100808080BC32
:10294000C2828282C2BC0707070901007C828080A4
:1029500080827C070A0A0901000202027A868282CA
:1029600082867A0707070901007C8282FE80827CCA
:10297000070A0A0901001C22222020F8202020201A
:10298000070A0A0901FD7A84848478807C82827C2B
:10299000070A0A090100808080BCC282828282828A
:1029A000050A0A090200600000E02020202020F82B
:1029B000050D0D0902FD1800003808080808080870
:1029C000888870070A0A090100808080848890B096
:1029D000C88482050A0A090200E020202020202065
:1029E0002020F8070707090100EC92929292928248
:1029F000070707090100BCC282828282820707079B
:102A00000901007C82828282827C070A0A0901FD18
:102A1000B8C4828282C4B8808080070A0A0901FD96
:102A20003A46828282463A020202070707090100FB
:102A30009C6242404040400707070901007C8280B9
:102A40007C02827C0709090901002020FC2020204B
:102A500020221C0707070901008282828282867A6F
:102A60000707070901008282444428281007070746
:102A70000901008282929292AA4407070709010085
:102A800082442810284482070A0A0901FD42422490
:102A900024241818109060070707090100FE040895
:102AA000102040FE060B0B0902001C20202020C035
:102AB000202020201C010C0C0904FF8080808080D5
:102AC00080808080808080060B0B090100E0101060
:102AD00010100C10101010E0070303090107629298
:102AE0008CFFFFFFFFFFFFFFFFFFFFFFFFFFFFFF69
:102AF000FFFFFFFFFFFFFFFFFFFFFFFFFFFFFFFFE6
:102B0000FFFF00000009000E010B0B09040080808C
:102B1000000080808080808080060808090100080D
:102B2000789490A0A47840070A0A0901001C22208A
:102B300020F8202060A25C070606090103827C447D
:102B4000447C82070A0A090100828244287C107CA6
:102B5000101010010B0B0904FF8080808080008022
:102B600080808080040B0B0902FF60908060909051
:102B7000906010906003020209030BA0A0080909ED
:102B80000900013C4299A5A1A599423C0507070906
:102B90000103609070907800F8070808090101129D
:102BA00024489090482412060404090102FC0404FD
:102BB00004050101090204F80809090900013C4261
:102BC000B9A5BDA9A5423C060101090109FC0404FF
:102BD00004090306609090600709090901011010BB
:102BE00010FE10101000FE0406060901046090108B
:102BF0006080F004060609010460902010906003D4
:102C0000030309030A2040800709090901FE8282A3
:102C1000828282C6BA8080070A0A0901007E8A8AF7
:102C20008A7A0A0A0A0A0A020202090404C0C004D3
:102C300003030902FD20906003060609010440C059
:102C4000404040E00506060901047088887000F8DD
:102C50000708080901019048241212244890070A25
:102C60000A09010040C0404042E60A121A06070A5B
:102C70000A09010040C040404CF2020C101E070A35
:102C80000A0901006090201092660A121A06070ACB
:102C90000A0901001000101020408082827C070E7B
:102CA0000E0901002010080010282828447C4482C6
:102CB0008282070E0E090100081020001028282823
:102CC000447C44828282070E0E09010010284400D1
:102CD00010282828447C44828282070D0D090100B7
:102CE00034580010282828447C44828282070D0D25
:102CF00009010028280010282828447C4482828268
:102D0000070E0E0901001028281010282828447CDE
:102D100044828282070A0A0901001E2828284E7868
:102D20004888888E070D0D0901FD3C428080808017
:102D30008080423C082418070E0E0901002010086C
:102D400000FE808080F880808080FE070E0E0901E2
:102D50000008102000FE808080F880808080FE07C0
:102D60000E0E09010010284400FE808080F880804B
:102D70008080FE070D0D090100282800FE8080805C
:102D8000F880808080FE050E0E09020040201000B1
:102D9000F82020202020202020F8050E0E09020017
:102DA00010204000F82020202020202020F8050EB0
:102DB0000E09020020508800F8202020202020202A
:102DC00020F8050D0D090200505000F820202020A9
:102DD00020202020F8070A0A09010078444242F224
:102DE0004242424478070D0D0901003458008282A6
:102DF000C2A2928A86828282070E0E0901002010EA
:102E000008007C82828282828282827C070E0E0986
:102E10000100081020007C82828282828282827C71
:102E2000070E0E090100102844007C8282828282F3
:102E30008282827C070D0D0901003458007C828259
:102E40008282828282827C070D0D0901002828007F
:102E50007C82828282828282827C0707070901014A
:102E600082442810284482070C0C0901FF027C864A
:102E70008A8A9292A2A2C27C80070E0E09010020CB
:102E800010080082828282828282824438070E0E7B
:102E9000090100081020008282828282828282449C
:102EA00038070E0E090100102844008282828282B7
:102EB0008282824438070D0D090100282800828291
:102EC0008282828282824438070E0E090100081035
:102ED000200082824428101010101010070A0A09DE
:102EE00001008080FC828282FC808080060A0A09C0
:102EF000010038444448D04844444458070B0B0967
:102F00000100201008007C02027E82867A070B0BEB
:102F1000090100081020007C02027E82867A070BDD
:102F20000B090100102844007C02027E82867A0789
:102F30000A0A0901003458007C02027E82867A0760
:102F40000A0A0901002828007C02027E82867A078C
:102F50000C0C09010010282810007C02027E8286D9
:102F60007A0707070901006C12127E90926C070A1B
:102F70000A0901FD7C82808080827C104830070B2A
:102F80000B090100201008007C8282FE80827C07F1
:102F90000B0B090100081020007C8282FE80827CDD
:102FA000070B0B090100102844007C8282FE8082FE
:102FB0007C070A0A0901002828007C8282FE8082A0
:102FC0007C050C0C0902008040200000E02020203D
:102FD0002020F8050C0C0902001020400000E02021
:102FE00020202020F8050C0C090200205088000049
:102FF000E02020202020F8050B0B09020050500093
:1030000000E02020202020F8070B0B0901004830A9
:1030100050083C448282824438070A0A090100347D
:103020005800BCC28282828282070B0B09010020F9
:103030001008007C82828282827C070B0B090100CF
:10304000081020007C82828282827C070B0B09019F
:1030500000102844007C82828282827C070A0A094E
:1030600001003458007C82828282827C070A0A092D
:1030700001002828007C82828282827C070909095B
:10308000010010381000FE0010381007090909016E
:10309000FF027C8A8A92A2A27C80070B0B090100A6
:1030A000402010008282828282867A070B0B0901FF
:1030B00000081020008282828282867A070B0B0928
:1030C0000100102844008282828282867A070A0ADE
:1030D0000901002828008282828282867A070E0EE9
:1030E0000901FD04081000424224242418181090FD
:1030F00060070B0B0901FE8080B8C4828282C4B8CD
:103100008080070D0D0901FD24240042422424245F
:103110001818109060000C0D00FE07022603BC0179
:103120007FFE08FE08FE05080806000040F0C8887B
:1031300088987810050808060000C0F888888888F4
:1031400088F80505050600012030F830200508083C
:103150000600002070F820202020E0050909060064
:10316000FF2070A8A8B88888702005060606000110
:10317000E08CEA8C8A0A0509090600FFF8A888880D
:10318000888888A8F8050A0A0600FE20505050508A
:1031900088A8A8887003030306000340A040FFFF2F
:1031A000FFFFFFFFFFFFFFFFFFFFFFFFFFFFFFFF2F
:1031B000FFFFFFFF0000000605FF010707060200F2
:1031C00080808080800080030303060105A0A0A00A
:1031D00005060606000050F85050F850050909068B
:1031E00000FF2070A8A07028A8702005070706001F
:1031F00000C8C8102040989805070706000040A0A6
:10320000A040A8906801030306020580808003099E
:10321000090601FF204040808080404020030909CA
:103220000601FF804040202020404080050707061F
:10323000000020A8702070A82005050506000120C8
:1032400020F820200203030601FFC0408005010191
:10325000060003F8020202060100C0C005070706C7
:10326000000008101020404080050707060000708D
:103270008898A8C8887003070706010040C040402E
:103280004040E0050707060000708808102040F85D
:10329000050707060000F8081030088870050707C2
:1032A00006000010305090F81010050707060000C7
:1032B000F880F00808887005070706000030408095
:1032C000F0888870050707060000F8081010202015
:1032D0002005070706000070888870888870050739
:1032E000070600007088887808106002050506014E
:1032F00000C0C000C0C00206060601FFC0C000C07A
:10330000408003050506010120408040200503039D
:10331000060002F800F80305050601018040204080
:103320008005070706000070881020200020050790
:10333000070600007088B8A8B88070050707060067
:1033400000708888F8888888050707060000F0481C
:1033500048704848F00507070600007088808080A4
:103360008870050707060000F04848484848F005FF
:103370000707060000F88080F08080F80507070640
:103380000000F88080F0808080050707060000704C
:10339000888080988870050707060000888888F86C
:1033A000888888030707060100E04040404040E06D
:1033B0000507070600003810101010906005070779
:1033C0000600008890A0C0A09088050707060000AE
:1033D000808080808080F805070706000088D8A8D4
:1033E000888888880507070600008888C8A8988804
:1033F0008805070706000070888888888870050798
:1034000007060000F08888F0808080050707060026
:103410000070888888A89068050707060000F08873
:1034200088F0A09088050707060000708880700863
:103430008870050707060000F820202020202005BE
:1034400007070600008888888888887005070706AF
:1034500000008888888850502005070706000088EB
:10346000888888A8A850050707060000888850208B
:1034700050888805070706000088885020202020F3
:10348000050707060000F80810204080F803090926
:103490000601FFE080808080808080E005070706CD
:1034A0000000804040201010080309090601FFE0D9
:1034B00020202020202020E00503030600052050C6
:1034C000880501010600FEF803030306010580409C
:1034D00020050505060000700878887805070706AE
:1034E00000008080F0888888F005050506000070DF
:1034F000808088700507070600000808788888889B
:10350000780505050600007088F08070050707063D
:103510000000304840E04040400507070600FE70CC
:103520008888887808700507070600008080F08882
:103530008888880307070601004000C0404040E03B
:103540000409090601FE10003010101010906005EB
:10355000070706000080808890E090880307070630
:103560000100C04040404040E0050505060000D095
:10357000A8A8A8A8050505060000B0C88888880581
:10358000050506000070888888700507070600FE9C
:10359000F0888888F080800507070600FE78888814
:1035A00088780808050505060000B0C880808005F9
:1035B000050506000078807008F005070706000082
:1035C0002020F8202020180505050600008888889E
:1035D00098680505050600008888885020050505BF
:1035E0000600008888A8A850050505060000885038
:1035F0002050880507070600FE88888850204080F4
:10360000050505060000F8102040F8030909060129
:10361000FF2040404080404040200109090602FF51
:103620008080808080808080800309090601FF807F
:10363000404040204040408005030306000248A867
:1036400090FF4D6F74696F6E004D3834004469739C
:1036500061626C65205374657070657273004C65AF
:1036600076656C20436F726E657273004732385A0C
:1036700000486F6D65205A004732385900486F6D19
:10368000652059004732385800486F6D6520580052
:10369000473238004175746F20486F6D65004D6189
:1036A000696E005072656865617420504C412B2032
:1036B000456E64005072656865617420504C412B02
:1036C00020426564005072696E74205061757365A4
:1036D00064005072696E742066726F6D204D65646F
:1036E000696100220A00556E6B6E6F776E20636F02
:1036F0006D6D616E643A202200456E646572332000
:1037000052656164792E005072696E74696E672E1D
:103710002E2E004D6564696120496E736572746573
:1037200064005072696E742041626F727465640047
:103730004D3235005061757365205072696E7400AA
:1037400000002100240027002A00000020002300A0
:1037500026002900000000010200090A0000000004
:103760000403080700000000000000000000000043
:10377000000000004D6F76652025736D6D00004DD3
:103780006F766520302E316D6D004D6F766520317E
:103790006D6D004D6F76652031306D6D004D6F762B
:1037A00065204178697300486F74656E6420746F9A
:1037B0006F20636F6C640045787472756465720085
:1037C0004D6F7665205A004D6F76652059004D6F1C
:1037D000766520580020436F756E7420583A004279
:1037E000656400453100626564002C207379737450
:1037F000656D2073746F7070656421204865617415
:1038000065725F49443A200048656174696E6720BB
:103810004661696C65640048656174696E6720661D
:1038200061696C656400EBE0C4E011241FBECFEF5A
:10383000D0E4DEBFCDBF11E0A0E0B1E0E4EDF7EEF3
:1038400001E00BBF02C007900D92A83AB107D9F76B
:1038500022E1A8EAB1E001C01D92A939B207E1F75F
:103860001CE1C4E1DCE104C02197FE010E9449F3A0
:10387000C331D107C9F70E94E5DA0C94DDF30C944B
:1038800000002F923F924F925F926F927F928F92A1
:103890009F92AF92BF92CF92DF92EF92FF920F93DF
:1038A0001F93CF93DF93CDB7DEB7C155D1090FB6C4
:1038B000F894DEBF0FBECDBF62968FAF62972091A6
:1038C000B40121962FAF219781E08093B4018091BC
:1038D0009F028D3409F467C1843511F40C94D62904
:1038E000873411F00C94F12920909D0230909E02B3
:1038F00035E12316310411F40C94F32994F454E0C7
:103900002516310444F482E0281631040CF054C02A
:1039100037FE35C044C194E02916310409F45AC079
:103920003EC1AAE52A16310409F4C4C05CF4EBE1F7
:103930002E16310409F48DC0FCE12F16310409F470
:10394000AAC02DC12BE52216310409F4B7C03CE50D
:103950002316310409F023C15AE5252E51E0352EF6
:1039600061E5E62E62E0F62EE8EEF4E0F9A3E8A3C6
:1039700078EFC72E74E0D72E00E010E0DFC0809112
:103980002F03813011F00C94F32988E50E945833FD
:10399000182F89E50E945833811182E0182B8AE59F
:1039A0000E945833811184E0812B0E94FF488111CD
:1039B0000C94F3290C94012A80912F03813011F08B
:1039C0000C94F32987E00E94FF4881110C94F3299D
:1039D0000C94D12A80E50E94A133882329F00E940B
:1039E0003F636B017C0103C0C12CD12C760183E5C0
:1039F0000E94A133882361F00E94213320E030E04F
:103A00004AE754E40E94CAE90E947BF16B017C0101
:103A10000E943A8F8091CE11811105C060E08BE247
:103A200093E00E9482CD0E94C6D2C60ED71EE81E29
:103A3000F91E0E94C6D2DC01CB018C199D09AE098A
:103A4000BF09B7FD02C00C94F32980E00E94FE3844
:103A5000F0CF87E00E94FF4881110C94F32919826E
:103A60001A821B821C821D821E821F82188680E0A1
:103A700090E0A0E2B2E489879A87AB87BC8760E0D8
:103A800070E080E50E94D35DBE016F5F7F4F0E94B2
:103A900058CC0C94F32980915F028770873011F025
:103AA0000C94AF2F8FE40E9456C681110C94F32919
:103AB0000C94AF2F1092B3010C94F3298FE08093F4
:103AC000B3010C94F3290E9421332B013C011330E4
:103AD00049F0F60120813181428153810E9407F033
:103AE0002B013C01A8A1B9A12D913D914D915C9173
:103AF000C301B2010E9407F04B015C012DEB37E3DB
:103B000046E855EB0E9468F287FD20C02DEB37E3B5
:103B100046E855E3C501B4010E9464E91816B4F003
:103B20001F5FB4E0EB0EF11CE8A1F9A13496F9A3F4
:103B3000E8A3F4E0CF0ED11C143039F1D1018D91FE
:103B40001D010E94A133882359F3BDCF133051F4D6
:103B50004092F4045092F5046092F6047092F704D7
:103B600001E0DECFA5019401F701608171818281BE
:103B700093810E9408F0D7016D937D938D939C9360
:103B80001397812F0E94CC48CBCF002321F084EFE4
:103B900094E00E944B8F0E94274C0C94F3290E94C2
:103BA00048C60C94F32980919D0290919E02823721
:103BB000910509F46BC60CF0F3C08934910509F442
:103BC000B8C40CF079C08831910509F4CEC20CF06C
:103BD00049C08231910509F409C66CF497FF02C00F
:103BE0000C94D329823091050CF419C2419709F441
:103BF00080C20C94D3298531910509F497C22CF524
:103C0000449711F00C94D3298CE793E00E94F53689
:103C100084EC9DE00E94B83F8BE1E4ECFDE0DE0126
:103C2000119601900D928A95E1F760E070E0CE0167
:103C300001960E948079CE0101960E94C6428DE6CF
:103C400093E00E94F5360C94F3298631910509F42E
:103C500071C2479711F00C94D329E0919B02F09127
:103C60009C0275C28D31910509F4F9C2B4F48A3110
:103C7000910509F493C20CF484C28B31910509F4C7
:103C80009BC24C9711F00C94D32980919B02909188
:103C90009C020E9407780C94F3298F31910509F456
:103CA00088C30CF4E3C28032910509F440C38A97BB
:103CB00009F429C40C94D3298836910509F450C419
:103CC0000CF044C08235910509F482C564F58C344A
:103CD000910509F43FC44CF48B34910511F00C9418
:103CE000D3290E94E0360C94F3298D34910509F410
:103CF00034C48135910511F00C94D3290E9440B849
:103D00000E94064F0E9420910E94B93668EE73E02F
:103D100080E090E00E94ED3560E085E994E00E944B
:103D200082CD0C94F3298435910509F45FC50CF418
:103D300056C58535910509F486C58C35910511F078
:103D40000C94D3290E9454620C94F3298D3691056A
:103D500009F424C4ACF48A36910509F44CC40CF47B
:103D600034C48B36910509F462C48C36910511F088
:103D70000C94D3291092241210922C010C94F32944
:103D80008F36910509F46CC40CF459C48037910541
:103D900009F4AAC48137910509F4B0C40C94D3295D
:103DA0008C3D910509F490C70CF0BEC08639910591
:103DB00009F42CC60CF08BC08737910509F4B9C5FE
:103DC0000CF075C08537910509F467C50CF075C511
:103DD0008337910511F00C94D32985EC95E00E946E
:103DE000F53660E085EB95E00E94C15B60E080EA1B
:103DF00095E00E94C15B60E089E995E00E94C15BAB
:103E000061E08EE895E00E94C15B61E08EE795E09D
:103E10000E94C15B60E085E795E00E94C15B61E0C4
:103E20008BE695E00E94C15B60E081E695E00E9430
:103E3000C15B60E089E595E00E94C15B60E08BE4D6
:103E400095E00E94C15B61E08DE395E00E94C15B5B
:103E500060E08EE295E00E94C15B60E080E295E068
:103E60000E94C15B60E08AE095E00E94C15B60E077
:103E700089EF94E00E94C15B60E08AEE94E00E94CA
:103E8000C15B60E085ED94E00E94C15B61E082EC83
:103E900094E00E94C15B60E085EB94E00E94C15B0E
:103EA00060E081EA94E00E94C15B0C94F3298937B9
:103EB000910509F449C50CF43FC58C38910509F406
:103EC00044C48139910509F446C50C94D3298B3C2F
:103ED000910509F472C6ACF48E3B910509F44FC408
:103EE00034F48B39910509F44DC40C94D329883CE2
:103EF000910509F4F2C5893C910509F438C60C9482
:103F0000D3298D3C910509F4AEC60CF478C68E3CDD
:103F1000910509F4BBC6833D910511F00C94D3299A
:103F20000E945F630C94F3298A3921E0920709F417
:103F3000E2C3ACF58D3241E0940711F40C9495275F
:103F4000B4F4823E910509F43CC734F48D3D9105EB
:103F500009F4E1C60C94D3298232A1E09A0709F44E
:103F60007CC78C32914009F4CBC70C94D3298F3293
:103F7000E1E09E0711F40C94CB2814F40C948728EC
:103F8000803321E0920711F40C9414288039914079
:103F900011F00C94D3290E943A8F0C94F3298C30A1
:103FA00042E0940711F40C944529ECF4843FA1E01D
:103FB0009A0711F40C943B293CF48C3A914011F48B
:103FC0000C94CE280C94D329853FF1E09F0711F47F
:103FD0000C944229863F914011F00C94D3290E9401
:103FE000AD4C0C94F3298B3532E0930711F40C940B
:103FF0004D294CF48835924011F00C94D3290E943D
:10400000F95D0C94F329803AA3E09A0709F4C3C13F
:10401000873E934011F40C94C6290C94D32980E573
:104020000E94A133882329F00E943F636B017C0129
:1040300003C0C12CD12C760183E50E94A1338823D3
:1040400061F00E94213320E030E04AE754E40E940E
:10405000CAE90E947BF16B017C010E943A8F81E5E5
:104060000E945833182F882329F00E94345181E090
:104070008093BB0180919B0290919C02009721F05C
:1040800061E00E94FCCD07C0111105C060E081E530
:1040900093E00E9482CD0091B40183E08093B4014B
:1040A00081E080932412C114D104E104F10431F0C1
:1040B0000E94C6D2C60ED71EE81EF91E8091241299
:1040C000882311F40C94D230C114D104E104F1041A
:1040D00011F40C94CD300E94C6D2DC01CB018C19B6
:1040E0009D09AE09BF09B7FF02C00C94CD300C94F6
:1040F000D2308091970284FF02C00C94E33080910B
:10410000990287FF02C00C94E33080919A02837079
:1041100011F00C94E33060E084E693E00E9482CDDD
:104120005E985E9815985E980C94F3290E945E76CE
:104130000C94F3290E94A9758091AD0D877F80931F
:10414000AD0D0C94F329803209F4108231968081F0
:104150008111F9CF60E080919B0290919C020E94B6
:10416000547810923E030C94F3290E94BC368823A5
:1041700021F00E94BA750E94E0360E9423C40C947C
:10418000F3298091AD0D82FF03C08B7F8093AD0D2D
:104190000E94F14E0E9423C40C94F3298091AD0D2E
:1041A00083FD02C00C94F32983E50E94A1338111A1
:1041B0000C94F5300C94F32983E40E94583388233F
:1041C00019F187E993E00E94F53680910B0F88235F
:1041D00091F0BE016F5F7F4F88E09FE00E945642E2
:1041E0008E010F5F1F4FF80181918F01882339F0F5
:1041F0000E94EE36F8CF8DE893E00E94F5368AE013
:104200000E94EE360C94F3298091AD0D82FF21C0FF
:1042100086EA93E00E94F5366091A90D7091AA0D8F
:104220008091AB0D9091AC0D4AE00E94BB378FE2BC
:104230000E94EE366091A50D7091A60D8091A70D9C
:104240009091A80D4AE00E94BB370E94D7380C9489
:10425000F32988EB93E00E94F5360C94F3298091C2
:10426000AD0D8E7F8093AD0D0C94F3298091AD0D33
:1042700083FD02C00C94F3290E9431C68091AD0DDC
:1042800083FD02C00C94F32940919B0250919C0243
:10429000BE01645E7F4F80E00E94957E8C01009796
:1042A00011F40C94F3296C8D7D8D19821C8222E00F
:1042B000AC01CE0101960E94BB44811102C0F12CD9
:1042C00014C0CE0101960E94037E8823C1F361E0F1
:1042D000CE0101960E943A42009789F325EEDC0157
:1042E0002C931C820E942640F82ECE0101960E943B
:1042F000C642B801FF2089F084EE93E00E940437A3
:104300008AE00E94EE361092A90D1092AA0D10922A
:10431000AB0D1092AC0D0C94F3298CEC93E00E9441
:10432000043789EC93E00E94F5360C94F3298091D0
:10433000AD0D82FD0E943A8F8091AD0D83FD02C0CC
:104340000C94F32980E50E9456C6182F682F80919F
:104350009B0290919C020E94547883E50E94A133B5
:10436000882381F00E94FD32AB01BC014093A90D6E
:104370005093AA0D6093AB0D7093AC0D88E09FE055
:104380000E94C93D0E94BA7511110C94F3290E9434
:10439000E0360C94F32920919B0230919C0290917D
:1043A000AD0D92609093AD0DC9010E9407780C94F9
:1043B000F3290E947E4E7B018C0120E831E541E02B
:1043C00050E00E94A4EFC9016DE671E00E9421F364
:1043D0004B015C01C801B70120E13EE040E050E044
:1043E0000E94A4EFCA01B90128E130E040E050E0AA
:1043F0000E94A4EF762E672EC62ED72E4CE3242ED5
:10440000312C412C512CC801B701A20191010E940D
:10441000A4EFF62EE72ECA01B901A20191010E9474
:10442000A4EFCB018E010F5F1F4F8114910499F00F
:10443000EF92FF927F936F936F927F92BF92AF92B2
:104440009F928F928AE194E09F938F931F930F9393
:104450000E94FCE813C0A114B104B1F0EF92FF92E6
:104460007F936F936F927F92BF92AF928AE094E0B6
:104470009F938F931F930F930E94FCE80FB6F894BD
:10448000DEBF0FBECDBF30C0CD2879F0EF92FF92D6
:104490007F936F936F927F928EEF93E09F938F93B2
:1044A0001F930F930E94FCE8E9CF892B69F0EF92EC
:1044B000FF927F936F9386EF93E09F938F931F9369
:1044C0000F930E94FCE8DACFEF92FF9282EF93E025
:1044D0009F938F931F930F930E94FCE80F900F9070
:1044E0000F900F900F900F9060E0C8010E94FCCDDC
:1044F0000E941B37B8018EE294E00E9404378AE0E4
:104500000E94EE3670C76FEF7FEF80E50E94E65D98
:104510008C0197FD68C7E82E89E40E9456C6811178
:104520000C940631802F0E94C0DA811167C40C946C
:10453000063180E50E945833882309F454C70E944D
:104540000D3390E08536910510F084E690E080937D
:104550003E0349C70E94F14E46C70E94064F43C71B
:104560008091E80983FD3FC70E94AA5D87FD3BC794
:1045700083E50E94A133882309F435C70E942133C3
:104580000E9474F1CB010E944FB40E942DB881119A
:104590002AC70E94064F0E9423C425C78091E809BC
:1045A00083FD21C70E94AA5D082F87FD1CC783E5F4
:1045B0000E94A133182F81110C94433182E50E948F
:1045C000A13381110C9443310EC70E94AA5D182FAC
:1045D00087FD0AC088E694E00E94F536812F0E948C
:1045E0005FB48AE00E94EE362196AFAD2197A0938A
:1045F000B4010C94BB3280E50E9463C68111F3C6FE
:1046000081E40E945833882321F06091200570E0F6
:1046100002C06FEF70E083E50E94D35D8F3F91058C
:1046200019F010F08FEF90E080932005DCC680E554
:104630000E9463C68111D7C610922005D4C68EE4AD
:104640000E94A133882309F4CEC60E94FD326093F4
:104650002403709325038093260390932703C3C6F6
:1046600083E50E945833882329F083E50E9463C6BE
:104670008093E8090E941B3789E794E00E94F53691
:104680008091E809882369F13FE6E32E34E0F32EB8
:1046900000E010E020E08091E80990E0A0E0B0E0C8
:1046A000002E04C0B695A795979587950A94D2F7E2
:1046B00080FF0EC0DD24D394D20E222319F08CE2A9
:1046C0000E94EE36F701859194910E94F5362D2DCA
:1046D0000F5F1F4FB2E0EB0EF11C05301105D9F64C
:1046E0008ECD8BE694E089CD41E060E070E080E81B
:1046F00094E00E9443370E94373675C683E50E94D6
:10470000A133882371F00E940D33282F30E02D3320
:1047100031051CF48093040166C68CE38093040188
:1047200062C60E941B37C0900401D12CE12CF12CF1
:104730008EE894E00E94F5364AE0C701B6010E9477
:10474000BB378AE00E94EE364EC68091E80983FDB1
:104750004AC683E50E94A133882309F416CF0E943C
:1047600021330E9474F16436710514F064E670E040
:1047700070936211609361110E9469B306CF0E9429
:104780005D5731C683E50E94A133882309F42BC607
:104790000E940D33182F90E0CD970CF01CE310937E
:1047A000AC010E94C6D26B017C01212F30E0A8EE43
:1047B000B3E00E94F8EFC60ED71EE81EF91EC092A5
:1047C000A801D092A901E092AA01F092AB010BC618
:1047D0008091B3018F7D80618093B30104C6809185
:1047E000B3018F7E80628093B301FDC583E50E9493
:1047F000A133882399F00E94213320E030E04AE77A
:1048000054E40E94CAE90E947BF160930501709311
:1048100006018093070190930801E5C580919702F6
:1048200084FF02C00C9492318091990287FF02C0EC
:104830000C94923180919A02837011F00C94923111
:104840000E942091D0C583E50E945833882309F443
:10485000CAC50E94C6D26093711170937211809381
:104860007311909374110E94213320E030E04AE7E5
:1048700054E40E94CAE90E947BF16093AD017093F9
:10488000AE018093AF019093B001ADC50E941D733E
:1048900088E29DE00E9458DAA6C580919B02909123
:1048A0009C02009709F469CCFC012081222309F4C1
:1048B00064CC60E00E94FCCD96C500919B021091F3
:1048C0009C0294E0F12C40E0915031F1D8018C91A0
:1048D000282F2B7F213429F411962C912133E1F4D8
:1048E00008C08035C9F4F801818180538A3048F0CE
:1048F00013C0813421F0853421F441E002C0FF244B
:10490000F39498012E5F3F4F89012F5F3F4FD801ED
:104910008C918032C9F3D8CF41110E941B37FF2000
:1049200021F08EE896E00E94F536C8010E94DD383D
:104930005AC50E94874C57C581E080932C03809311
:104940002B030E94A24C4FC510922C0310922B03F4
:104950000E94A24C48C560E070E083E50E94E65DDD
:104960008C011127023011053CF00E94173782E9B3
:1049700096E00E94F53637C588E40E94A13388236B
:10498000A9F00E94FD326F3A71053CF06530B1E04C
:104990007B072CF064E071E002C06FEA70E0F80180
:1049A000EE0FFF1FE35BFD4F7183608386E40E947F
:1049B000A133882381F00E94FD3277FD07C06F3F4D
:1049C000710529F024F06FEF70E001C060E0F8019C
:1049D000E95BFD4F608382E40E94A133882309F4E0
:1049E00002C50E94FD326530710534F065367105EF
:1049F0002CF064E670E002C065E070E0000F111F6B
:104A0000F801E75BFD4F71836083EDC480E50E9490
:104A10005833882351F08091B1019091B201892BD4
:104A200041F00E940D33182F05C01091B60D1150A2
:104A300001C01FEF87E50E945833882351F0809111
:104A4000B1019091B201892B31F00E940D33082FF2
:104A500003C000E001C00FEF82E40E9458338823B6
:104A600051F08091B1019091B201892B31F00E94F7
:104A70000D33F82E04C0F12C02C0FF24FA9485E512
:104A80000E945833882351F08091B1019091B20176
:104A9000892B31F00E940D33E82E04C0E12C02C0B6
:104AA000EE24EA9482E50E945833882349F08091ED
:104AB000B1019091B201892B29F00E940D3303C0FE
:104AC00080E001C08FEF8983EA82FB820C831D8323
:104AD000CE0101960E94B3C586C40E94AA5D182F1C
:104AE00087FD81C484E40E9458338823E9F10E9441
:104AF00021336B017C0101E020E030E0A9010E943C
:104B000064E9811101C000E000936B1020E030E007
:104B1000A901C701B6010E9464E9882329F124E0B4
:104B20001202F0011124E059FF4EC082D182E282CC
:104B3000F38220E030E0A901609170107091711053
:104B400080917210909173100E9464E981110CC0E1
:104B500080E090E0A0EEBFE380937010909371101E
:104B6000A0937210B09373100E9441873CC40E94BE
:104B7000AA5D87FD38C41AE5E12E11E0F12E09EE99
:104B800019E089EFC82E89E0D82ED7018D917D01DB
:104B90000E945833882359F00E9421330E947BF1F0
:104BA000F80160837183828393830E94F38E0C5F8C
:104BB0001F4FC016D10649F716C40E94AA5D87FD93
:104BC00012C4AAE5EA2EA1E0FA2E09EE19E0B9EF27
:104BD000CB2EB9E0DB2ED7018D917D010E94583399
:104BE000882339F00E942133F80164A375A386A3BA
:104BF00097A30C5F1F4FC016D10669F7F4C38091CD
:104C0000980287FF02C00C94B731809199028E7090
:104C100011F00C94B73140911D0A50911E0A609119
:104C20001F0A7091200A8AEB96E00E94C6384091D4
:104C3000210A5091220A6091230A7091240A87EB7D
:104C400096E00E94C6384091250A5091260A60914C
:104C5000270A7091280A84EB96E00E94C6388AE001
:104C60000E94EE36C0C38091970281FF02C00C946F
:104C7000FF318091980281FF02C00C94FF31809136
:104C800099028C7011F00C94FF31ADC3F1E3EF2E5B
:104C9000F3E0FF2E10E088E5810F0E94583388234F
:104CA00059F00E942133D7016D937D938D939C938E
:104CB0001397812F0E94CC481F5FB4E0EB0EF11CCC
:104CC000133049F70C94CB1D83E50E94A133882350
:104CD00031F00E94FD3270934B0160934A01809144
:104CE000970290919802A0919902B0919A02892B13
:104CF0008A2B8B2B09F077C360914A0170914B018D
:104D000089EE96E00E94443885E20E94EE368AE001
:104D10000E94EE3668C30E94AA5DF82E87FD63C329
:104D200083E50E94A1330F2D0F2C000C110B88235B
:104D300069F10E94FD32F801EE0FFF1FEE5BFE4F9E
:104D400071836083000F111F000F111FF801E35DD5
:104D5000FE4F7F01072E000C880B990B0E946BE918
:104D60002AE037ED43E25CE30E94CAE9F801E45926
:104D7000FF4E20813181428153810E94CAE9D701CF
:104D80006D937D938D939C9313972DC30E941B3736
:104D900085E40E94EE3680E38F0D0E94EE36F80126
:104DA000EE0FFF1FEE5BFE4F608171818DEE96E08E
:104DB0000E94443885E20E94EE368AE00E94EE3678
:104DC00012C380E50E945833882309F40CC360E0C5
:104DD00070E080E50E94E65DF82E6FEF7FEF83E5DF
:104DE0000E94E65D8C010196039708F0FCC2F7FC77
:104DF000FAC28F2D0E94C0DA882339F00E9417373B
:104E000085EF96E00E94F536EEC20E943A8F60E090
:104E10008F2D0E94B9D10F3FBFEF1B0731F001303A
:104E2000110571F401E010E00DC08F2D0E9461D1D9
:104E300031E020E0892B09F030E0032F122F02C06F
:104E400000E010E08F2D0E9461D18017910709F4D6
:104E5000CAC280E00E94FE38F5CF8AE50E94A133E5
:104E6000811105C083E50E94A133882379F10E9456
:104E7000213320E030E040E050EC0E9464E987FFFD
:104E800002C00C9461320E94213320E030E040E007
:104E900050E40E9468F2181614F40C945B320E94DD
:104EA000213320912E032695269520FF0FC02091B7
:104EB000050A3091060A4091070A5091080A0E949B
:104EC000CAE90E9474F1CB010E94CE35809199020B
:104ED00087FF02C00C94673280919A02837011F0B0
:104EE0000C9467320E941B3760915D0270915E02E4
:104EF00084E097E00E9444388AE00E94EE3673C254
:104F000064E071E083E50E94D35D8C0168EE73E09C
:104F100080E50E94D35D8938E3E19E0710F088E8C0
:104F200093E1B8010E9455CD5EC285E40E9463C63C
:104F3000811173C080E50E945833882351F00E948C
:104F400021336093D00C7093D10C8093D20C90934A
:104F5000D30C89E40E945833882381F00E942133C6
:104F60002CEA35EC47E25EE30E94CAE96093D40C78
:104F70007093D50C8093D60C9093D70C84E40E9448
:104F80005833882381F00E9421332CEA35EC47E224
:104F90005EE30E9402F16093D80C7093D90C809369
:104FA000DA0C9093DB0C0E941B374091D00C50918F
:104FB000D10C6091D20C7091D30C89E297E00E94E1
:104FC000C6382CEA35EC47E25EE36091D40C709170
:104FD000D50C8091D60C9091D70C0E9402F1AB01B8
:104FE000BC0185E297E00E94C6382CEA35EC47E226
:104FF0005EE36091D80C7091D90C8091DA0C90919D
:10500000DB0C0E94CAE9AB01BC0181E297E00E947F
:10501000C6388AE00E94EE36E6C10E9417378FE05C
:1050200097E00E94F536DFC180E50E94583388235F
:1050300051F00E9421336093641170936511809345
:1050400066119093671189E40E945833882381F098
:105050000E9421332CEA35EC47E25EE30E94CAE964
:10506000609368117093691180936A1190936B112A
:1050700084E40E945833882381F00E9421332CEA73
:1050800035EC47E25EE30E9402F160936C1170938D
:105090006D1180936E1190936F110E941B37409198
:1050A000641150916511609166117091671185E3EB
:1050B00097E00E94C6382CEA35EC47E25EE3609147
:1050C00068117091691180916A1190916B110E9421
:1050D00002F1AB01BC0181E397E00E94C6382CEAE3
:1050E00035EC47E25EE360916C1170916D11809137
:1050F0006E1190916F110E94CAE9AB01BC018DE263
:1051000097E00E94C6388AE00E94EE366CC183E5C3
:105110000E945833182F882371F00E9421330E9477
:1051200074F1709332016093310121E0672B09F033
:1051300020E02093350580E50E945833882359F0FC
:105140002091310130913201232B11F00E944F63E5
:105150008093350548C1111146C10E941B3785E572
:1051600097E00E94F53680913505811103C089E3EF
:1051700097E002C08DE397E00E94F536609131011F
:105180007091320184E497E00E94443880E497E013
:105190000E94F53628C10E944D5125C187E00E942A
:1051A000FF48811120C10BED1AE028EE34E039A34D
:1051B00028A3AE014F5F5F4F1A0130E3C32E3BE0DF
:1051C000D32E7A01F8016591759185919491A8A1EA
:1051D000B9A18D909D90AD90BD90B9A3A8A3A50154
:1051E00094010E9407F02B013C0120E030E040EAEE
:1051F00051EC0E9468F287FD10C020E030E040EAE8
:1052000051E4C301B2010E9464E9181634F0F701B9
:1052100040825182628273820EC0F6018491181618
:10522000B4F7B7FAB094B7F8B094D7018D929D92C5
:10523000AD92BC921397D7018D909D90AD90BD908B
:105240007D0120E030E040EA51ECC501B4010E944C
:1052500068F287FF02C00C946F3220E030E040EA31
:1052600051E4C501B4010E9464E9181614F00C94CD
:1052700084320C946F320E94173784EA97E00E94C0
:10528000F536B1C00E94AD4CAEC08091AD0D82FF2D
:10529000AAC080648093AD0DA6C00E94AA5D082FAD
:1052A00087FDA1C085E50E9458338823B1F1E02E27
:1052B000002E000CFF080E9421334B015C0120E00E
:1052C00030E0A9010E9468F287FF04C0B7FAB094E9
:1052D000B7F8B094C70123E0880F991F2A95E1F72A
:1052E0009C01215C3D4F7901D9018D929D92AD9237
:1052F000BC92139720E030E041EE53E4C501B401C5
:105300000E9468F218164CF480E090E0A1EEB3E43D
:10531000F70180839183A283B3838CE40E94583386
:10532000882309F460C0002E000C110B0E94213369
:105330006B017C0120E030E0A9010E9468F287FF48
:1053400004C0F7FAF094F7F8F09420E030E041EE72
:1053500053E4C701B6010E9468F2980193E0220F5E
:10536000331F9A95E1F7F901E15CFD4F18162CF017
:10537000C482D582E682F78236C080E090E0A1EE5A
:10538000B3E484839583A683B7832DC081E08093A3
:105390002F031092231283E50E9456C6811123C069
:1053A0000E946B5920C00E9448C61DC000919D02FA
:1053B00010919E020023B9F00E941B3784E50E94E1
:1053C000EE36B8017727072E000C880B990B0E9448
:1053D000283880E20E94EE3685EB97E00E94F53691
:1053E00002C00E9448C66296FFAD6297F11102C0EA
:1053F0000E945B5921962FAD21972093B4010C9404
:10540000BB320E94F85C80E692E00E945549809190
:10541000E80983FD88C02091F4043091F50440919F
:10542000F6045091F70460916C0270916D028091C6
:105430006E0290916F020E9464E9882309F473C0A0
:105440008091350581111EC020E030E0A9016091F6
:10545000C90C7091CA0C8091CB0C9091CC0C0E941D
:1054600008F00E9474F120913101309132016217ED
:10547000730744F40E941B378AEF92E00E94F536CE
:1054800011E001C010E02091F4043091F504409146
:10549000F6045091F70460916C0270916D02809156
:1054A0006E0290916F020E9407F06B017C0120E078
:1054B00030E0A9010E9468F287FF04C0F7FAF09477
:1054C000F7F8F09420912D0130912E0140912F0199
:1054D00050913001C701B6010E94CAE920E030E0D6
:1054E00041EE53E40E9468F218163CF40E941B3708
:1054F0008BED92E00E94F53602C01123A1F080915D
:105500006C0290916D02A0916E02B0916F02809337
:10551000F4049093F504A093F604B093F7048CE69A
:1055200092E00E944B8F2AE037ED43E25CE360910A
:1055300000017091010180910201909103010E948C
:10554000CAE96B017C0160914A0170914B01072E01
:10555000000C880B990B0E946BE99B01AC01C70101
:10556000B6010E94CAE969837A838B839C83C12C2C
:10557000D12C76018E010F5F1F4F2CE632E048E6FA
:1055800052E064E672E080E692E00E94BF7280E141
:10559000E0E6F2E0A8EEB4E001900D928A95E1F722
:1055A00022CF0E94F85C82E50E94A133882309F48F
:1055B00048C00E9421336B017C0120E030E0A9014A
:1055C0000E9464E9882309F4C3C48091E80490919F
:1055D000E904A091EA04B091EB0488A399A3AAA3DB
:1055E000BBA32091EC043091ED044091EE04509166
:1055F000EF042CA33DA34EA35FA380906002909084
:105600006102A0906202B0906302409064025090E8
:1056100065026090660270906702A5019401BC016A
:10562000CD010E9464E981113AC0A30192016CA1ED
:105630007DA18EA19FA10E9464E9882309F488C4FA
:105640002EC089E40E94A133882329F00E942133CF
:105650006B017C0103C0C12CD12C76018AE40E942D
:10566000A133882309F4D9C00E94213368A779A700
:105670008AA79BA720E030E0A901C701B6010E94DC
:1056800064E98111D8C020E030E0A90168A579A5BE
:105690008AA59BA50E9464E98111CDC059C411E07F
:1056A00032E02316310409F010E020E030E0A901D7
:1056B000C701B6010E9464E9881F8827881F181354
:1056C00009C080E090E0A0E8BFE388A799A7AAA757
:1056D000BBA708C020E030E040E85FEB28A739A76F
:1056E0004AA75BA728A139A14AA15BA1C501B401C2
:1056F0000E9407F020E030E040E05FE30E94CAE94A
:1057000068A379A38AA39BA32CA13DA14EA15FA16D
:10571000C301B2010E9407F020E030E040E05FE307
:105720000E94CAE96CA37DA38EA39FA328A139A1DF
:105730004AA15BA1CA01B9010E94CAE94B015C01FF
:105740002CA13DA14EA15FA1CA01B9010E94CAE9E5
:105750009B01AC01C501B4010E9408F00E94B6F2A1
:105760004B015C019B01AC01C701B6010E9407F02F
:105770002B013C01A5019401C701B6010E9408F06C
:105780009B01AC01C301B2010E94CAE96B017C011B
:1057900020E030E0A9010E9468F287FD07C0C70140
:1057A000B6010E94B6F22B013C0103C0412C512CE2
:1057B00032016CA17DA18EA19FA19058A5019401F9
:1057C0000E9402F128A539A54AA55BA50E94CAE955
:1057D000A30192010E94CAE928A139A14AA15BA1B3
:1057E0000E9408F06B017C01A501940168A179A1D8
:1057F0008AA19BA10E9402F128A539A54AA55BA513
:105800000E94CAE9A30192010E94CAE92CA13DA10C
:105810004EA15FA10E9408F029CF20E030E0A9014D
:10582000C701B6010E9464E9882309F491C318A650
:1058300019A61AA61BA6D701C601B05888A399A31A
:10584000AAA3BBA328A539A54AA55BA550582CA39C
:105850003DA34EA35FA39C01AD01BC01CD010E94FD
:10586000CAE94B015C012CA13DA14EA15FA1CA0177
:10587000B9010E94CAE99B01AC01C501B4010E94B3
:1058800008F00E94B6F26CAF7DAF8EAF9FAF8091F3
:10589000E8049091E904A091EA04B091EB048CA78C
:1058A0009DA7AEA7BFA7A7019601BC01CD010E948D
:1058B00008F025966CAF7DAF8EAF9FAF25972091F6
:1058C000EC043091ED044091EE045091EF0428ABCC
:1058D00039AB4AAB5BAB68A579A58AA59BA50E94AD
:1058E00008F029966CAF7DAF8EAF9FAF299780915E
:1058F000600290916102A0916202B09163028CAB50
:105900009DABAEABBFAB25962CAD3DAD4EAD5FAD07
:105910002597BC01CD010E9407F06B017C0120910D
:10592000640230916502409166025091670228AF8F
:1059300039AF4AAF5BAF29962CAD3DAD4EAD5FADF3
:10594000299768AD79AD8AAD9BAD0E9407F04B01F8
:105950005C01A701960168A179A18AA19BA10E947F
:10596000CAE92B013C01A50194016CA17DA18EA186
:105970009FA10E94CAE99B01AC01C301B2010E9430
:1059800008F02B013C01A501940168A179A18AA12D
:105990009BA10E94CAE94B015C01A70196016CA181
:1059A0007DA18EA19FA10E94CAE99B01AC01C50106
:1059B000B4010E9407F0A30192010E9487F06B01DD
:1059C0007C0120E030E0A9010E9464E987FF0AC061
:1059D0002BED3FE049EC50E4C701B6010E9408F00E
:1059E0006B017C012BED3FE049EC50E4C701B601AF
:1059F0000E9402F120E030E040EC51E40E94CAE94C
:105A00000E94E6F00E947BF18B01672B11F401E00C
:105A100010E032E02316310451F42BED3FE049EC65
:105A200050E4C701B6010E9407F06B017C0120E041
:105A300030E0A901C701B6010E9464E9811122C0CA
:105A40002CA93DA94EA95FA96CA57DA58EA59FA5F2
:105A50000E9464E9811116C028AD39AD4AAD5BAD35
:105A600068A979A98AA99BA90E9464E981110AC041
:105A700008E110E0ABEDCA2EAFE0DA2EA9ECEA2E79
:105A8000A0E4FA2E8091F0049091F104A091F20428
:105A9000B091F30488AB99ABAAABBBAB9C01AD0151
:105AA000609168027091690280916A0290916B0224
:105AB0000E9407F02B013C01A70196016CAD7DAD62
:105AC0008EAD9FAD0E94CAE94B015C0120E030E041
:105AD000A901C301B2010E9464E98823C9F0A501AC
