:100000000C9434160C945E160C945E160C945E16CA
:100010000C945E160C945E160C945E160C945E1690
:100020000C945E160C945E160C945E160C945E1680
:100030000C945E160C94FE810C945E160C945E1665
:100040000C945E160C9414B20C94C8CC0C945E16EE
:100050000C9491360C9487360C945E160C945E16B4
:100060000C945E160C945E160C945E160C945E1640
:100070000C945E160C945E160C945E160C945E1630
:100080000C945E160C945E160C945E16D7ABBCAB4B
:10009000BFABDAABC2ABC5ABC8ABD4ABCBABE5AB9C
:1000A000CEABD1ABC1C380C2B7C2FDC3B7C2B7C26A
:1000B000B7C2B7C2B7C2B7C2B7C2B7C2B7C2B7C278
:1000C000B7C2B7C2B7C2B7C2B7C2B7C2B7C2B7C268
:1000D000B7C2B7C2B7C2B7C2B7C2B7C2B7C2B7C258
:1000E000F7C3B7C2B7C2B7C2B7C2B7C2B7C2B7C207
:1000F000B7C2D0C3B7C2B7C2B7C2B7C2B7C2B7C21E
:10010000B7C2B7C2B7C2B7C214C4B4C23CCB3FCBAC
:1001100032CB36CB56CB56CB43CB47CB4DCB51CB4B
:1001200012CC17CC1CCC26CC54CC54CC30CC38CCF4
:1001300040CC4ACC084AD73B3BCE016E84BCBFFDC5
:10014000C12F3D6C74319ABD56833DDA3D00C77FA7
:1001500011BED9E4BB4C3E916BAAAABE0000008040
:100160003F05A84CCDB2D44EB93836A9020C50B9CF
:10017000918688083CA6AAAA2ABE000000803F00FB
:100180004E414E494E495459494E46CDCCCC3D0A7C
:10019000D7233C17B7D13877CC2B329595E6241F5F
:1001A000B14F0A000020410000C84200401C462018
:1001B000BCBE4CCA1B0E5AAEC59D7400407A10F3EB
:1001C0005A00A0724E18090010A5D4E80000E87685
:1001D00048170000E40B54020000CA9A3B000000DC
:1001E000E1F505000080969800000040420F0000F5
:1001F00000A08601000000102700000000E80300B6
:100200000000006400000000000A0000000000017F
:1002100000000000002C76D888DC674F0823DFC17F
:10022000DFAE59E1B1B796E5E3E453C63AE651993A
:100230007696E8E6C28426EB898C9B62ED407C6F63
:10024000FCEFBC9C9F40F2BAA56FA5F490055A2A1A
:10025000F75C936B6CF9676DC11BFCE0E40D47FE26
:10026000F520E6B500D0ED902E030094357705001B
:1002700080841E080000204E0A000000C80C3333A2
:1002800033330F986E12831141EF8D2114893BE6B1
:100290005516CFFEE6DB18D1844B381BF77C1D903A
:1002A0001DA4BBE424203284725E228100C9F124A3
:1002B000ECA1E53D27434F4D4D554E49434154492F
:1002C0004F4E0044525952554E004552524F5253D0
:1002D00000494E464F004543484F0020746F6F2041
:1002E0006C6F6E6720657874727573696F6E2070BD
:1002F000726576656E7465640A0020636F6C6420B5
:10030000657874727573696F6E2070726576656E4C
:100310007465640A0047322F47332062616420709D
:100320006172616D65746572730A00536C65657006
:100330002E2E2E00486F6D65205859206669727305
:10034000740A00486F6D65205859204669727374AD
:1003500000436C69636B20746F20526573756D6523
:100360002E2E2E004E6F204D6F76652E00456E644A
:100370002066696C65206C6973740A004265676960
:100380006E2066696C65206C6973740A00286E6F54
:100390002066696C65290043757272656E7420660B
:1003A000696C653A20005344207072696E74696EFE
:1003B00067206279746520004E6F7420534420706A
:1003C00072696E74696E670A002E0A0044656C6576
:1003D00074696F6E206661696C65642C2046696C77
:1003E000653A200046696C652064656C65746564D7
:1003F0003A002569730025696D2025697300256918
:10040000682025696D2025697300256964202569A8
:10041000682025696D202569730025697920256983
:1004200064202569682025696D2025697300507254
:10043000696E742074696D653A2000496E76616C4E
:1004400069642050696E204D6F64650A00436F6FC8
:100450006C696E672E2E2E0048656174696E672E7A
:100460002E2E0045202553006F6B006F666600D668
:1004700002D102CA02C302B50244454255473A00BE
:100480004D3131322053687574646F776E004D3191
:100490003133205300456E64657233204F46462E3B
:1004A000004348414D4245525F54454D50455241ED
:1004B00054555245004D4F54494F4E5F4D4F4445A2
:1004C0005300544845524D414C5F50524F544543A0
:1004D00054494F4E004155544F5245504F52545F6E
:1004E00053445F5354415455530050524F4D505450
:1004F0005F535550504F525400454D455247454E5D
:1005000043595F50415253455200434153455F4C5C
:10051000494748545F4252494748544E4553530057
:10052000544F47474C455F4C494748545300534F3D
:100530004654574152455F504F5745520042554926
:100540004C445F50455243454E54004C4556454C33
:10055000494E475F44415441005A5F50524F424513
:10056000004155544F4C4556454C005052494E544D
:100570005F4A4F420050524F475245535300415536
:10058000544F5245504F52545F54454D5000564FB2
:100590004C554D455452494300454550524F4D002E
:1005A00042494E4152595F46494C455F5452414E73
:1005B000534645520053455249414C5F584F4E5F98
:1005C000584F4646004649524D574152455F4E41AD
:1005D0004D453A4D61726C696E2062756766697847
:1005E0002D322E302E7820284769744875622920D4
:1005F000534F555243455F434F44455F55524C3A24
:1006000068747470733A2F2F6769746875622E630B
:100610006F6D2F4D61726C696E4669726D77617294
:10062000652F4D61726C696E2050524F544F434F8D
:100630004C5F56455253494F4E3A312E30204D4172
:100640004348494E455F545950453A456E6465727A
:10065000332045585452554445525F434F554E54EC
:100660003A3120555549443A6365646532613266D2
:100670002D343161322D343734382D396231322DF9
:100680006335356336326633363766660A002F2F98
:1006900020004D31343520533C696E6465783E202E
:1006A0006F7574206F662072616E67652028302D2B
:1006B00031290A00205400205200416363656C65B3
:1006C000726174696F6E3A2050003F4A206F7574F2
:1006D000206F662072616E67652028302E303120D1
:1006E000746F20302E33290A0046523A0020466C9F
:1006F0006F773A200050726F7465637465642050A0
:10070000696E0A004261627973746570205A00490B
:100710006E76616C69642065787472756465720ABE
:100720000020643A0020693A0020703A0020643AC0
:100730000020693A0020703A0064697300656E0019
:1007400043290A0061626C656420286D696E20741B
:10075000656D702000436F6C6420657874727564F9
:1007600065732061726520004F666673657473203F
:100770004170706C696564004572723A20546F6F05
:10078000206661722100546F6F206661722066726C
:100790006F6D207265666572656E636520706F6946
:1007A0006E740A00454550524F4D20646973616272
:1007B0006C65640A00496E76616C696420657874C2
:1007C00072756465720A000F150E1216170E130368
:1007D000021A1401000E0C190DFF180C040001621E
:1007E0007573793A2070617573656420666F722045
:1007F000696E7075740A00627573793A207061755C
:1008000073656420666F7220757365720A00627585
:1008100073793A2070726F63657373696E670A004B
:1008200053544F505045442E20005072696E7465E9
:10083000722073746F707065642064756520746FC6
:10084000206572726F72732E204669782074686515
:10085000206572726F7220616E6420757365204D21
:1008600039393920746F20726573746172742E2067
:100870002854656D706572617475726520697320A6
:1008800072657365742E20536574206974206166E7
:100890007465722072657374617274696E67290A77
:1008A000004E6F20436865636B73756D20776974C4
:1008B00068206C696E65206E756D6265722C204CC7
:1008C000617374204C696E653A20004E6F20436856
:1008D00065636B73756D2077697468206C696E65EC
:1008E000206E756D6265722C204C617374204C69AA
:1008F0006E653A2000636865636B73756D206D6982
:10090000736D617463682C204C617374204C696E44
:10091000653A20004C696E65204E756D62657220E7
:100920006973206E6F74204C617374204C696E651E
:10093000204E756D6265722B312C204C61737420D2
:100940004C696E653A20004D3131300053442072BD
:10095000656164206572726F720A002121204B4923
:100960004C4C2063617573656420627920746F6FED
:10097000206D75636820696E6163746976652074A3
:10098000696D65202D2063757272656E7420636FCA
:100990006D6D616E643A2000506C65617365205224
:1009A00065736574005052494E5445522048414C7D
:1009B0005445440025533A202553004B494C4C459F
:1009C000442E20005072696E7465722068616C74E8
:1009D00065642E206B696C6C28292063616C6C65E2
:1009E00064210A006563686F3A004572726F723A5B
:1009F00000486F74656E6420746F6F20636F6C6461
:100A00000A007C3C3E5E2B3D3F2F5B5D3B2C2A2247
:100A10005C0000006B4300006B430000704300006B
:100A20000000000000000000000048617264636F75
:100A30006465642044656661756C742053657474E4
:100A4000696E6773204C6F616465640A00000096EC
:100A5000430000964300009642000096430000A029
:100A6000420000A0420000C8430000C342B80B008F
:100A700000B80B000064000000102700006F7065D4
:100A80006E00545249474745524544003A20007A87
:100A90005F6D696E00795F6D696E00785F6D696E7C
:100AA000005265706F7274696E6720656E6473744E
:100AB0006F70207374617475730A00486F6D6520E0
:100AC00025732573257320466972737400486F6D12
:100AD000696E67204661696C656400000000000073
:100AE00000000000000000000048420000484200F2
:100AF0000080405761726E696E673A20486F6D6979
:100B00006E672042756D702044697669736F72203C
:100B10003C20310A000202040000A0400000A04076
:100B20000000004000006B4300006B430000704376
:100B3000FFFFFF4361703A00220A00656E71756520
:100B40007565696E672022006F6B00526573656E74
:100B5000643A200020573A0042656420436F6F6C6E
:100B6000696E672E2E2E00426564204865617469A7
:100B70006E672E2E2E0023646566696E65204445DF
:100B80004641554C545F00626564004B6420004B45
:100B90006920004B702000504944204175746F74E7
:100BA000756E652066696E6973686564212050758D
:100BB0007420746865206C617374204B702C204B1A
:100BC0006920616E64204B6420636F6E7374616E84
:100BD00074732066726F6D2062656C6F7720696E2A
:100BE000746F20436F6E66696775726174696F6EAA
:100BF0002E680A00504944204175746F74756E6503
:100C0000206661696C6564212074696D656F757417
:100C10000A00504944204175746F74756E652066F2
:100C200061696C6564212054656D706572617475CD
:100C3000726520746F6F20686967680A00204B64D2
:100C40003A2000204B693A2000204B703A20000ADD
:100C500020436C617373696320504944200A00206B
:100C60004B643A2000204B693A2000204B703A2018
:100C7000000A204E6F206F76657273686F6F740A7A
:100C8000002054753A2000204B753A2000206D61F9
:100C9000783A2000206D696E3A200020643A2000E6
:100CA00020626961733A2000504944204175746F95
:100CB00074756E652073746172740A005049442023
:100CC0004175746F74756E65206661696C65642129
:100CD0002054656D706572617475726520746F6FF4
:100CE00020686967680A00504944204175746F7430
:100CF000756E65206661696C6564212042616420BF
:100D00006578747275646572206E756D6265720ABD
:100D1000002020506C616E6E657242756666657269
:100D200042797465733A20002046726565204D65EE
:100D30006D6F72793A2000436F6D70696C65643A2B
:100D4000204D617220313920323032300A00204C7F
:100D500061737420557064617465643A2032303276
:100D6000302D30332D3139207C20417574686F72FD
:100D70003A20636363630A006275676669782D329F
:100D80002E302E780A004D61726C696E0020536F10
:100D90006674776172652052657365740A00205726
:100DA00061746368646F672052657365740A00201C
:100DB00042726F776E206F75742052657365740A86
:100DC000002045787465726E616C2052657365749D
:100DD0000A00506F77657255700A007374617274FF
:100DE0000A006175746F25632E67004732385859C1
:100DF00000446F6E65207072696E74696E6720665C
:100E0000696C650A004D3051315331383030004D36
:100E10003051315031004D3737004D33310065725C
:100E2000726F722077726974696E6720746F2066C2
:100E3000696C650A00446F6E6520736176696E6740
:100E40002066696C652E0A004D323900456E647368
:100E5000746F70730025532025632025632025635C
:100E600020256300205A3A0020593A0020583A00C1
:100E7000656E6473746F7073206869743A20002023
:100E80004500204D39322058004F4646004F4E0055
:100E9000205A0020590020580020204D61783A2027
:100EA00000200020204D696E3A2000536F667420A8
:100EB000656E6473746F70733A2000496E73657267
:100EC000742066696C616D656E7420616E6420705B
:100ED0007265737320627574746F6E0A00496E7365
:100EE0006572742066696C616D656E7420616E64F4
:100EF00020707265737320627574746F6E0A00508F
:100F00007265737320627574746F6E20746F2068DD
:100F1000656174206E6F7A7A6C650A004D363030E8
:100F20003A20546F6F20436F6C6400486F74656E95
:100F30006420746F6F20636F6C640A0020496E76C2
:100F4000616C696420657874727564657220002034
:100F5000453A00205A3A0020593A00583A00207485
:100F60006F6F206C6F6E6720657874727573696F30
:100F70006E2070726576656E7465640A0020636F1A
:100F80006C6420657874727573696F6E2070726519
:100F900076656E7465640A0043616E6E6F74206FCF
:100FA00070656E207375626469722000534420631B
:100FB000617264206F6B0A006F70656E526F6F74A0
:100FC000206661696C65640A00766F6C756D652ECC
:100FD000696E6974206661696C65640A0053442017
:100FE000696E6974206661696C0A004D3234004D87
:100FF00032332025730046696C652073656C656328
:101000007465640A002053697A653A200046696C69
:1010100065206F70656E65643A2000454E4420532C
:101020005542524F5554494E450A002220706F7365
:10103000002220706172656E743A2200535542524C
:101040004F5554494E452043414C4C2074617267C2
:1010500065743A2200747279696E6720746F206338
:10106000616C6C207375622D67636F6465206669BF
:101070006C6573207769746820746F6F206D616E82
:1010800079206C6576656C732E204D4158206C6517
:1010900076656C2069733A310A0057726974696E1B
:1010A0006720746F2066696C653A20002E0A006F15
:1010B00070656E206661696C65642C2046696C659C
:1010C0003A2000667265736800646F696E6700207D
:1010D00066696C653A20004E6F7720002E0A006F1B
:1010E00070656E206661696C65642C2046696C656C
:1010F0003A200000002110422063308440A550C6F1
:1011000060E770088129914AA16BB18CC1ADD1CE45
:10111000E1EFF13112100273325222B5529442F7CC
:1011200072D662399318837BB35AA3BDD39CC3FF95
:10113000F3DEE36224433420040114E664C774A49C
:101140004485546AA54BB528850995EEE5CFF5ACE5
:10115000C58DD55336722611163006D776F66695AC
:1011600056B4465BB77AA719973887DFF7FEE79D35
:10117000D7BCC7C448E5588668A7784008611802FC
:10118000282338CCC9EDD98EE9AFF9488969990A85
:10119000A92BB9F55AD44AB77A966A711A500A330C
:1011A0003A122AFDDBDCCBBFFB9EEB799B588B3BD5
:1011B000BB1AABA66C877CE44CC55C222C033C605C
:1011C0000C411CAEED8FFDECCDCDDD2AAD0BBD6825
:1011D0008D499D977EB66ED55EF44E133E322E51EC
:1011E0001E700E9FFFBEEFDDDFFCCF1BBF3AAF5975
:1011F0009F788F8891A981CAB1EBA10CD12DC14EE6
:10120000F16FE18010A100C230E320045025404678
:10121000706760B9839893FBA3DAB33DC31CD37F97
:10122000E35EF3B1029012F322D2323542145277C8
:10123000625672EAB5CBA5A89589856EF54FE52C67
:10124000D50DC5E234C324A0148104667447642418
:10125000540544DBA7FAB79987B8975FE77EF71D77
:10126000C73CD7D326F2369106B016576676761568
:101270004634564CD96DC90EF92FE9C899E9898AC7
:10128000B9ABA94458654806782768C018E10882B8
:1012900038A3287DCB5CDB3FEB1EFBF98BD89BBBD7
:1012A000AB9ABB754A545A376A167AF10AD01AB308
:1012B0002A923A2EFD0FED6CDD4DCDAABD8BADE827
:1012C0009DC98D267C076C645C454CA23C832CE058
:1012D0001CC10C1FEF3EFF5DCF7CDF9BAFBABFD9B7
:1012E0008FF89F176E367E554E745E932EB23ED1A8
:1012F0000EF01E01020408102040800102040810B4
:101300002040800102040810204080804020100806
:1013100004020100002200250028002B0002020226
:10132000020202020204040404040404040303038A
:10133000030303030301010101010101015072696B
:101340006E74657220496E666F004D61696E00496A
:101350006E6469676F00426C756500477265656E03
:101360000059656C6C6F77004F72616E6765005253
:1013700065640056696F6C65740057686974650030
:101380004272696768746E65737300576869746543
:1013900020496E74656E7369747900426C756520BE
:1013A000496E74656E7369747900477265656E2065
:1013B000496E74656E736974790052656420496E74
:1013C00074656E73697479004C454420436F6E7484
:1013D000726F6C00437573746F6D204C696768742D
:1013E00073004C696768742050726573657473008C
:1013F00044656661756C74004F6666004F6E004C04
:101400006967687473004D61696E003F00426163F3
:101410006B0053746F70004368616E6765204669A6
:101420006C616D656E740050726568656174204111
:1014300042532B005072656865617420504C412BFB
:10144000005072656865617420437573746F6D0038
:101450004261636B0024F4D43050C38E20C2A2409A
:1014600017828B7011127A910D816CD90AA861E1F3
:1014700008C7586607615143061E4B5D05C145A765
:10148000041A411104093D9803713931034036DBD8
:101490000265339102D4305402802E1D02632CEE7B
:1014A00001752AC501B028A001102781018F25648C
:1014B000012B244B01E0223401AC211F018D200DB2
:1014C00001801FFC00841EED00971DDF00B81CD2B8
:1014D00000E61BC600201BBC00641AB200B219A8AB
:1014E000000A19A0006A189900D117910040178BC3
:1014F00000B516840031167E00B31579003A1573D5
:1015000000C7146F0058146A00EE13660088136356
:101510000025135E00C7125B006C125700151254B1
:1015200000C111510070114F0021114B00D610491C
:10153000008D1047004610440002104200C00F40CA
:1015400000800F3E00420F3C00060F3B00CB0E38E0
:1015500000930E37005C0E3500270E3400F30D3279
:1015600000C10D3100900D3000600D2E00320D2DA8
:1015700000050D2C00D90C2B00AE0C2900850C2980
:10158000005C0C2700350C27000E0C2600E80B240D
:1015900000C40B2400A00B23007D0B23005A0B2159
:1015A00000390B2100180B2000F80A1F00D90A1E71
:1015B00000BB0A1E009D0A1D00800A1D00630A1C54
:1015C00000470A1B002C0A1B00110A1A00F7091A0F
:1015D00000DD091900C4091900AB091900920917A7
:1015E000007B091800630917004C0916003609161C
:1015F00000200916000A091500F5081500E0081476
:1016000000CC081400B8081400A4081400900813B3
:10161000007D0812006B08130058081200460812DB
:1016200000340811002308110012081100010811EC
:1016300000F0071000E0071000D0071000C00710EE
:1016400000B0070F00A107100091070E0083070FDD
:101650000074070F0065070E0057070E0049070EBC
:10166000003B070D002E070E0020070D0013070D8D
:101670000006070D00F9060C00ED060D00E0060C53
:1016800000D4060C00C8060C00BC060C00B0060C0A
:1016900000A4060B0099060C008D060B0082060BB9
:1016A0000077060B006C060B0061060A0057060B5C
:1016B000004C060A0042060A0038060A002E060AF6
:1016C0000024060A001A060A001006090007060A86
:1016D00000FD050900F4050900EB050900E2050914
:1016E00000D9050900D0050900C7050900BE050994
:1016F00000B5050800AD050800A50509009C050812
:1017000000940508008C050800840508007C050885
:1017100000740508006C050700650508005D0507F5
:1017200000560508004E050700470507004005085C
:101730000038050700310507002A050700230507C3
:10174000001C050600160507000F05070008050622
:101750000002050700FB040600F5040700EE04067E
:1017600000E8040600E2040700DB040600D50406D6
:1017700000CF040600C9040600C3040600BD040629
:1017800000B7040600B1040500AC040600A6040678
:1017900000A00405009B04060095040500900406C3
:1017A000008A04050085040500800406007A04050B
:1017B0000075040500700405006B0405006604054F
:1017C00000610405005C040500570405005204058F
:1017D000004D04050048040500430405003E0404D0
:1017E000003A04050035040500300404002C04050B
:1017F0000027040400230405001E0404001A040446
:101800000016040500110404000D04040009040579
:10181000000404040000040400FC030400F80304B2
:1018200000F4030400F0030400EC030400E80304E4
:1018300000E4030400E0030400DC030400D8030414
:1018400000D4030400D0030400CC030400C8030345
:1018500000C503030024F404D9201BC40C5C0E98BB
:1018600004C4095F0265077101F405F900FB04B3C4
:101870000048048700C1036900580355000303456D
:1018800000BE023A008402310053022A00290225D8
:101890000004022000E4011C00C8011900AF011778
:1018A00000980114008401130071011000610110FF
:1018B0000051010E0043010D0036010B002B010BFE
:1018C0000020010B00150109000C010900030108AB
:1018D00000FB000800F3000800EB000700E400062E
:1018E00000DE000600D8000600D2000600CC00058D
:1018F00000C7000500C2000500BD000400B90004D7
:1019000000B5000400B1000400AD000400A900040B
:1019100000A5000300A20003009F0004009B000339
:10192000009800030095000200930003009000035C
:10193000008D0002008B0003008800020086000278
:101940000084000300810002007F0002007D00028D
:10195000007B00020079000200770001007600029F
:10196000007400020072000100710002006F0002AA
:10197000006D0001006C0002006A000100690002B5
:1019800000670001006600010065000100640002BC
:10199000006200010061000100600001005F0002C0
:1019A000005D0001005C0001005B0001005A0001C5
:1019B00000590001005800010057000100560001C5
:1019C00000550001005400010053000000530001C5
:1019D000005200010051000100500001004F0001C1
:1019E000004E0000004E0001004D0001004C0001BF
:1019F000004B0000004B0001004A000100490001BB
:101A000000480000004800010047000100460000B7
:101A100000460001004500000045000100440001AF
:101A200000430000004300010042000000420001AA
:101A3000004100000041000100400001003F0000A3
:101A4000003F0001003E0000003E0001003D00009C
:101A5000003D0001003C0000003C0000003C000193
:101A6000003B0000003B0001003A0000003A00018A
:101A70000039000000390001003800000038000083
:101A80000038000100370000003700010036000078
:101A9000003600000036000100350000003500006F
:101AA0000035000100340000003400000034000163
:101AB000003300000033000000330001003200005A
:101AC000003200000032000100310000003100004F
:101AD0000031000100300000003000000030000143
:101AE000002F0000002F0000002F0000002F000139
:101AF000002E0000002E0000002E0001002D00002E
:101B0000002D0000002D0000002D0001002C000021
:101B1000002C0000002C0000002C0001002B000015
:101B2000002B0000002B0000002B0001002A000009
:101B3000002A0000002A0000002A000100290000FD
:101B400000290000002900000029000000290001F0
:101B500000280000002800000028000000280000E5
:101B600000280001002700000027000000270000D7
:101B700000270000002700010026000000260000CA
:101B800000260000002600000026000100250000BD
:101B900000250000002500000025000000250000B1
:101BA00000250001002400000024000000240000A3
:101BB0000024000000240001002300000023000096
:101BC0000023000000230000002300000023000089
:101BD000002300010022000000220000002200007B
:101BE000002200000022000000220001002100006D
:101BF0000021000000210000002100000021000061
:101C00000021000000210001002000000020000051
:101C10000020000000200000002000000020000044
:101C20000020000000200001001F0000001F000035
:101C3000001F0000001F0000001F0000001F000028
:101C4000001F0001001E0000001E0000001E00001A
:101C5000001E000000043700001E290000511B0078
:101C6000005810000010090000CC040000780200A9
:101C70000041010000507265686561742041425363
:101C80002B20456E64005072656865617420414286
:101C9000532B204265640054656D706572617475E4
:101CA000726500436F6F6C646F776E005072656889
:101CB000656174204142532B005072656865617400
:101CC00020504C412B0046616E20537065656400C6
:101CD000426564004E6F7A7A6C65004D61696E00F2
:101CE000546F74616C004261627973746570205A3C
:101CF00000466C6F770046616E2053706565640026
:101D0000426564004E6F7A7A6C6500537065656455
:101D1000004D61696E004D32310041747461636839
:101D2000204D65646961005072696E742066726F3F
:101D30006D204D65646961004D32320052656C65FD
:101D4000617365204D65646961004C454420436FB3
:101D50006E74726F6C0041626F7574205072696EA0
:101D6000746572004D363030204230004368616E39
:101D700067652046696C616D656E7400436F6E66C1
:101D8000696775726174696F6E0054656D70657214
:101D90006174757265004D6F74696F6E0052657382
:101DA000756D65205072696E74004D6564696120BF
:101DB00052656C65617365640054756E650053749B
:101DC0006F70205072696E74005061757365205099
:101DD00072696E7400496E666F2053637265656E3A
:101DE000003F005374617274205072696E74004336
:101DF000616E63656C005072696E740043616E6E53
:101E00006F7420656E746572207375626469723ACE
:101E10002000022E2E000152656672657368004D27
:101E200061696E002568753A253032687500253085
:101E30003268753A2530326875002568756420254A
:101E4000303268753A253032687500202020202015
:101E500020200020202020202020002020202000E2
:101E60001FE0201020102010102010202010201023
:101E700030300840048003001FE03FF03FF03FF0A7
:101E80001FE01FE03FF03FF03FF00FC0078003006E
:101E90003FFFF038007030FC3020FC10207810201C
:101EA00030102C00D02E31D02F7BD02F7BD02E3174
:101EB000D02C00D020301020781020FC1030FC30C6
:101EC0003800703FFFF03FFFF0380070318630235C
:101ED00087102787902F87D02F03D02030102078AD
:101EE000102078102030102F03D02F87D027879014
:101EF0002387103186303800703FFFF01FFFF81F36
:101F0000FFF80410400208200208200410400820B6
:101F100080104100104100082080041040000000A3
:101F20001FFFF81FFFF8256C6425636D004C6F617F
:101F300064206D6D00556E6C6F6164206D6D0046A0
:101F4000696C2E204469612E004F6666004F6E005A
:101F50004520696E206D6DC2B300554E4C4F414413
:101F60002046494C414D454E54004C4F414420467B
:101F7000494C414D454E540046494C414D454E5407
:101F8000204348414E4745004573746570732F6D7B
:101F90006D005A73746570732F6D6D00597374659D
:101FA00070732F6D6D005873746570732F6D6D00B5
:101FB000416476616E6365642053657474696E670D
:101FC000730046696C616D656E740053746570735F
:101FD0002F6D6D00436F6E66696775726174696F0E
:101FE0006E003F004E65787420506F696E74004437
:101FF0006F6E65004E65787400486F6D696E67207E
:1020000058595A00526573746F7265204465666151
:10201000756C747300416476616E6365642053650A
:102020007474696E6773004D61696E004D373032AC
:1020300020542564004D3630302042302054256431
:10204000004D373032203B2564004D37303120546D
:10205000256400436F6E74696E7565005075726714
:1020600065206D6F726500524553554D45204F50A8
:1020700054494F4E533A005052494E542050415506
:102080005345440020204E6F7A7A6C653A20005008
:1020900061726B696E672E2E2E00000057616974A5
:1020A00020666F720066696C616D656E742063688E
:1020B000616E676500746F2073746172740057619C
:1020C000697420666F720066696C616D656E74205C
:1020D000756E6C6F616400004E6F7A7A6C65206873
:1020E000656174696E6700506C6561736520776126
:1020F00069742E2E2E000050726573732062757401
:10210000746F6E00746F2068656174206E6F7A7AE8
:102110006C650000496E736572742066696C616D50
:10212000656E7400616E64207072657373206275F1
:1021300074746F6E00746F20636F6E74696E756572
:10214000005761697420666F720066696C616D6525
:102150006E74206C6F61640000507265737320426E
:102160007574746F6E00746F20726573756D652081
:102170007072696E7400005761697420666F722016
:102180007072696E7400746F20726573756D652E60
:102190002E2E0000436C69636B20746F2066696E9D
:1021A0006973680066696C616D656E742070757224
:1021B00067650000202D20496E76616C696420659A
:1021C00078747275646572206E756D626572202117
:1021D0000A0070012C0190012701B0012201C00109
:1021E0001D01F00118011002130130020E016002FE
:1021F000090190020401C002FF000003FA0040033D
:10220000F5008003F000D003EB002004E60070042A
:10221000E100E004DC004005D700C005D200400624
:10222000CD00D006C8008007C3003008BE00F0080B
:10223000B900C009B400B00AAF00B00BAA00D00CBE
:10224000A500000EA000500F9B00C0109600501279
:10225000910000148C00C0158700B0178200B019DF
:102260007D00D01B7800001E730040206E0090227D
:102270006900F024640040275F0090295A00E02B99
:102280005500102E500020304B0010324600E03335
:10229000410090353C001037370070383200A039CB
:1022A0002D00B03A2800A03B2300603C1E00103DEA
:1022B0001900903D1400103E0F00703E0A00C03E11
:1022C0000500003F0000403FFBFF803FF6FFC03F9E
:1022D000F1FF544845524D414C2052554E41574113
:1022E0005900546865726D616C2052756E6177613A
:1022F00079004572723A204D415854454D50004D79
:10230000415854454D502074726967676572656421
:10231000004572723A204D494E54454D50004D498A
:102320004E54454D5020747269676765726564004C
:102330004D383420582059205A204500202F0020A5
:1023400042403A0020403A0020573A000009121B50
:10235000242D363F48415A536C657E7719100B0285
:102360003D342F265158434A757C676E323B2029F5
:10237000161F040D7A7368615E574C452B22393065
:102380000F061D14636A7178474E555C646D767F45
:102390004049525B2C253E3708011A137D746F6645
:1023A00059504B42353C272E1118030A565F444DB5
:1023B000727B60691E170C053A3328214F465D5425
:1023C0006B627970070E151C232A31384148535A25
:1023D000656C777E09001B122D243F3658514A4305
:1023E0007C756E671019020B343D262F737A616875
:1023F000575E454C3B3229201F160D046A637871E5
:102400004E475C55222B3039060F141D252C373EC4
:102410000108131A6D647F7649405B523C352E27C4
:1024200018110A03747D666F5059424B171E050C34
:10243000333A21285F564D447B7269600E071C15A4
:102440002A233831464F545D626B70794D6F746941
:102450006F6E004D38340044697361626C652053BF
:1024600074657070657273004C6576656C20436F9F
:10247000726E657273004732385A00486F6D65207E
:102480005A004732385900486F6D6520590047326D
:10249000385800486F6D6520580047323800417544
:1024A000746F20486F6D65004D61696E00507265F4
:1024B0006865617420504C412B20456E6400507259
:1024C000656865617420504C412B2042656400456D
:1024D00072723A207574663820666F6E74206E6F63
:1024E0007420696E697469616C697A65642E00454F
:1024F00072723A207574663820666F6E74206E6F43
:102500007420696E697469616C697A65642E00452E
:1025100072723A207574663820666F6E74206E6F22
:102520007420696E697469616C697A65642E0068EB
:102530007474703A2F2F6D61726C696E66772E6FAE
:102540007267006275676669782D322E302E7800CA
:102550001FFFFFFFFFFFFF600000000001FF4000C2
:1025600000000000FF8000000000007F83CF00001B
:102570000C303F87FF80000C301F867980000C00F4
:102580000F8C30C7838C30E78C30CFC7CC31F38CC5
:1025900030DCECEC33B98C30D86C6C33198C30D027
:1025A0006C0C33198C30D86C0C33198C30DC6C0EFD
:1025B0003B198C30CF7C079F198C30C77C038F1957
:1025C00040000000000002600000000000061FFF45
:1025D000FFFFFFFFF8000C0D00FE07022603BC0101
:1025E0007FFE08FE08FE05080806000040F0C888C7
:1025F00088987810050808060000C0F88888888840
:1026000088F80505050600012030F8302005080887
:102610000600002070F820202020E00509090600AF
:10262000FF2070A8A8B8888870200506060600015B
:10263000E08CEA8C8A0A0509090600FFF8A8888858
:10264000888888A8F8050A0A0600FE2050505050D5
:1026500088A8A8887003030306000340A040FFFF7A
:10266000FFFFFFFFFFFFFFFFFFFFFFFFFFFFFFFF7A
:10267000FFFFFFFF0000000605FF0107070602003D
:1026800080808080800080030303060105A0A0A055
:1026900005060606000050F85050F85005090906D6
:1026A00000FF2070A8A07028A8702005070706006A
:1026B00000C8C8102040989805070706000040A0F1
:1026C000A040A890680103030602058080800309EA
:1026D000090601FF20404080808040402003090916
:1026E0000601FF804040202020404080050707066B
:1026F000000020A8702070A8200505050600012014
:1027000020F820200203030601FFC04080050101DC
:10271000060003F8020202060100C0C00507070612
:1027200000000810102040408005070706000070D8
:102730008898A8C8887003070706010040C0404079
:102740004040E0050707060000708808102040F8A8
:10275000050707060000F80810300888700507070D
:1027600006000010305090F8101005070706000012
:10277000F880F008088870050707060000304080E0
:10278000F0888870050707060000F8081010202060
:102790002005070706000070888870888870050784
:1027A0000706000070888878081060020505060199
:1027B00000C0C000C0C00206060601FFC0C000C0C5
:1027C00040800305050601012040804020050303E9
:1027D000060002F800F803050506010180402040CC
:1027E00080050707060000708810202000200507DC
:1027F000070600007088B8A8B880700507070600B3
:1028000000708888F8888888050707060000F04867
:1028100048704848F00507070600007088808080EF
:102820008870050707060000F04848484848F0054A
:102830000707060000F88080F08080F8050707068B
:102840000000F88080F08080800507070600007097
:10285000888080988870050707060000888888F8B7
:10286000888888030707060100E04040404040E0B8
:1028700005070706000038101010109060050707C4
:102880000600008890A0C0A09088050707060000F9
:10289000808080808080F805070706000088D8A81F
:1028A000888888880507070600008888C8A898884F
:1028B00088050707060000708888888888700507E3
:1028C00007060000F08888F0808080050707060072
:1028D0000070888888A89068050707060000F088BF
:1028E00088F0A090880507070600007088807008AF
:1028F0008870050707060000F8202020202020050A
:1029000007070600008888888888887005070706FA
:102910000000888888885050200507070600008836
:10292000888888A8A85005070706000088885020D6
:10293000508888050707060000888850202020203E
:10294000050707060000F80810204080F803090971
:102950000601FFE080808080808080E00507070618
:102960000000804040201010080309090601FFE024
:1029700020202020202020E0050303060005205011
:10298000880501010600FEF80303030601058040E7
:1029900020050505060000700878887805070706F9
:1029A00000008080F0888888F0050505060000702A
:1029B00080808870050707060000080878888888E6
:1029C000780505050600007088F080700507070689
:1029D0000000304840E04040400507070600FE7018
:1029E0008888887808700507070600008080F088CE
:1029F0008888880307070601004000C0404040E087
:102A00000409090601FE1000301010101090600536
:102A1000070706000080808890E09088030707067B
:102A20000100C04040404040E0050505060000D0E0
:102A3000A8A8A8A8050505060000B0C888888805CC
:102A4000050506000070888888700507070600FEE7
:102A5000F0888888F080800507070600FE7888885F
:102A600088780808050505060000B0C88080800544
:102A7000050506000078807008F0050707060000CD
:102A80002020F820202018050505060000888888E9
:102A9000986805050506000088888850200505050A
:102AA0000600008888A8A850050505060000885083
:102AB0002050880507070600FE888888502040803F
:102AC000050505060000F8102040F8030909060175
:102AD000FF2040404080404040200109090602FF9D
:102AE0008080808080808080800309090601FF80CB
:102AF000404040204040408005030306000248A8B3
:102B000090FF5072696E7420506175736564005057
:102B100072696E742066726F6D204D656469610024
:102B2000220A00556E6B6E6F776E20636F6D6D615C
:102B30006E643A202200456E6465723320526561EE
:102B400064792E005072696E74696E672E2E2E00A5
:102B50004D6564696120496E7365727465640050E7
:102B600072696E742041626F72746564004D323513
:102B7000005061757365205072696E740000002109
:102B800000240027002A000000200023002600293E
:102B900000000000010200090A0000000004030810
:102BA000070000000000000000000000000000001E
:102BB000004D6F76652025736D6D00004D6F766555
:102BC00020302E316D6D004D6F766520316D6D00BA
:102BD0004D6F76652031306D6D004D6F766520410B
:102BE00078697300486F74656E6420746F6F20633A
:102BF0006F6C64004578747275646572004D6F7611
:102C000065205A004D6F76652059004D6F7665201E
:102C1000580020436F756E7420583A004265640076
:102C2000453100626564002C2073797374656D20F2
:102C300073746F7070656421204865617465725F9C
:102C400049443A200048656174696E6720466169AD
:102C50006C65640048656174696E67206661696CC3
:102C600065640000E1DABADA11241FBECFEFD0E4C8
:102C7000DEBFCDBF11E0A0E0B1E0E0ECFBED01E094
:102C80000BBF02C007900D92A83AB107D9F722E115
:102C9000A8EAB1E001C01D92A939B207E1F716E137
:102CA000C3E3D6E104C02197FE010E943FEDC23389
:102CB000D107C9F70E94DBD40C94D3ED0C9400002B
:102CC0002F923F924F925F926F927F928F929F923C
:102CD000AF92BF92CF92DF92EF92FF920F931F932A
:102CE000CF93DF93CDB7DEB7C155D1090FB6F894B6
:102CF000DEBF0FBECDBF62968FAF62972091B40149
:102D000021962FAF219781E08093B40180919F029B
:102D10008D3409F467C1843511F40C94F52387349C
:102D200011F00C94102420909D0230909E0235E109
:102D30002316310411F40C94122494F454E0251653
:102D4000310444F482E0281631040CF054C037FEFC
:102D500035C044C194E02916310409F45AC03EC17B
:102D6000AAE52A16310409F4C4C05CF4EBE12E167E
:102D7000310409F48DC0FCE12F16310409F4AAC016
:102D80002DC12BE52216310409F4B7C03CE523160A
:102D9000310409F023C15AE5252E51E0352E61E5B5
:102DA000E62E62E0F62EE8EEF4E0F9A3E8A378EF71
:102DB000C72E74E0D72E00E010E0DFC080912F0313
:102DC000813011F00C94122488E50E94772D182F81
:102DD00089E50E94772D811182E0182B8AE50E94F7
:102DE000772D811184E0812B0E941E4381110C9468
:102DF00012240C94202480912F03813011F00C9424
:102E0000122487E00E941E4381110C9412240C941A
:102E1000F02480E50E94C02D882329F00E945E5D89
:102E20006B017C0103C0C12CD12C760183E50E948B
:102E3000C02D882361F00E94402D20E030E04AE759
:102E400054E40E94C0E30E9471EB6B017C010E947C
:102E500059898091CE11811105C060E08BE293E029
:102E60000E9478C70E94BCCCC60ED71EE81EF91E71
:102E70000E94BCCCDC01CB018C199D09AE09BF09B5
:102E8000B7FD02C00C94122480E00E941D33F0CFE5
:102E900087E00E941E4381110C94122419821A8229
:102EA0001B821C821D821E821F82188680E090E099
:102EB000A0E2B2E489879A87AB87BC8760E070E0C4
:102EC00080E50E94F257BE016F5F7F4F0E944EC6A1
:102ED0000C94122480915F028770873011F00C945B
:102EE000CE298FE40E944CC081110C9412240C94C2
:102EF000CE291092B3010C9412248FE08093B30179
:102F00000C9412240E94402D2B013C01133049F0F7
:102F1000F60120813181428153810E94FDE92B011C
:102F20003C01A8A1B9A12D913D914D915C91C301A6
:102F3000B2010E94FDE94B015C012DEB37E346E84D
:102F400055EB0E945EEC87FD20C02DEB37E346E891
:102F500055E3C501B4010E945AE31816B4F01F5F8F
:102F6000B4E0EB0EF11CE8A1F9A13496F9A3E8A3B3
:102F7000F4E0CF0ED11C143039F1D1018D911D0137
:102F80000E94C02D882359F3BDCF133051F44092D5
:102F9000F4045092F5046092F6047092F70401E094
:102FA000DECFA5019401F701608171818281938157
:102FB0000E94FEE9D7016D937D938D939C931397A7
:102FC000812F0E94EB42CBCF002321F084EF94E0CD
:102FD0000E946A890E9446460C9412240E943EC0B8
:102FE0000C94122480919D0290919E02823791054B
:102FF00009F46BC60CF0F3C08934910509F4B8C428
:103000000CF079C08831910509F4CEC20CF049C0AA
:103010008231910509F409C66CF497FF02C00C9443
:10302000F223823091050CF419C2419709F480C251
:103030000C94F2238531910509F497C22CF544973D
:1030400011F00C94F2238CE793E00E94143184EC8D
:103050009DE00E94D7398BE1E4ECFDE0DE011196A2
:1030600001900D928A95E1F760E070E0CE01019643
:103070000E949F73CE0101960E94E53C8DE693E08D
:103080000E9414310C9412248631910509F471C206
:10309000479711F00C94F223E0919B02F0919C026F
:1030A00075C28D31910509F4F9C2B4F48A319105E4
:1030B00009F493C20CF484C28B31910509F49BC2CC
:1030C0004C9711F00C94F22380919B0290919C02FA
:1030D0000E9426720C9412248F31910509F488C342
:1030E0000CF4E3C28032910509F440C38A9709F4D5
:1030F00029C40C94F2238836910509F450C40CF0CD
:1031000044C08235910509F482C564F58C3491057B
:1031100009F43FC44CF48B34910511F00C94F22364
:103120000E94FF300C9412248D34910509F434C4AC
:103130008135910511F00C94F2230E945FB20E9438
:1031400025490E943F8B0E94D83068EE73E080E0F2
:1031500090E00E940C3060E085E994E00E9478C71E
:103160000C9412248435910509F45FC50CF456C5FE
:103170008535910509F486C58C35910511F00C94BF
:10318000F2230E94735C0C9412248D36910509F48D
:1031900024C4ACF48A36910509F44CC40CF434C44C
:1031A0008B36910509F462C48C36910511F00C94AC
:1031B000F2231092241210922C010C9412248F36B8
:1031C000910509F46CC40CF459C48037910509F4D5
:1031D000AAC48137910509F4B0C40C94F2238C3D44
:1031E000910509F490C70CF0BEC08639910509F429
:1031F0002CC60CF08BC08737910509F4B9C50CF0CB
:1032000075C08537910509F467C50CF075C583371E
:10321000910511F00C94F22385EC95E00E94143195
:1032200060E085EB95E00E94E05560E080EA95E083
:103230000E94E05560E089E995E00E94E05561E078
:103240008EE895E00E94E05561E08EE795E00E94EF
:10325000E05560E085E795E00E94E05561E08BE68F
:1032600095E00E94E05560E081E695E00E94E0551F
:1032700060E089E595E00E94E05560E08BE495E030
:103280000E94E05561E08DE395E00E94E05560E02A
:103290008EE295E00E94E05560E080E295E00E94B9
:1032A000E05560E08AE095E00E94E05560E089EF3B
:1032B00094E00E94E05560E08AEE94E00E94E055C0
:1032C00060E085ED94E00E94E05561E082EC94E0DE
:1032D0000E94E05560E085EB94E00E94E05560E0DC
:1032E00081EA94E00E94E0550C94122489379105FC
:1032F00009F449C50CF43FC58C38910509F444C460
:103300008139910509F446C50C94F2238B3C910553
:1033100009F472C6ACF48E3B910509F44FC434F441
:103320008B39910509F44DC40C94F223883C910526
:1033300009F4F2C5893C910509F438C60C94F223CE
:103340008D3C910509F4AEC60CF478C68E3C91050F
:1033500009F4BBC6833D910511F00C94F2230E9441
:103360007E5D0C9412248A3921E0920709F4E2C3AD
:10337000ACF58D3241E0940711F40C94B421B4F40F
:10338000823E910509F43CC734F48D3D910509F462
:10339000E1C60C94F2238232A1E09A0709F47CC7BB
:1033A0008C32914009F4CBC70C94F2238F32E1E0C8
:1033B0009E0711F40C94EA2214F40C94A622803394
:1033C00021E0920711F40C9433228039914011F0DE
:1033D0000C94F2230E9459890C9412248C3042E000
:1033E000940711F40C946423ECF4843FA1E09A0751
:1033F00011F40C945A233CF48C3A914011F40C943F
:10340000ED220C94F223853FF1E09F0711F40C9418
:103410006123863F914011F00C94F2230E94CC4628
:103420000C9412248B3532E0930711F40C946C2326
:103430004CF48835924011F00C94F2230E941858F5
:103440000C941224803AA3E09A0709F4C3C1873E82
:10345000934011F40C94E5230C94F22380E50E9430
:10346000C02D882329F00E945E5D6B017C0103C0A2
:10347000C12CD12C760183E50E94C02D882361F0F8
:103480000E94402D20E030E04AE754E40E94C0E36F
:103490000E9471EB6B017C010E94598981E50E94B9
:1034A000772D182F882329F00E94534B81E08093B9
:1034B000BB0180919B0290919C02009721F061E0FA
:1034C0000E94F2C707C0111105C060E081E593E0DA
:1034D0000E9478C70091B40183E08093B40181E039
:1034E00080932412C114D104E104F10431F00E944C
:1034F000BCCCC60ED71EE81EF91E8091241288236C
:1035000011F40C94F12AC114D104E104F10411F472
:103510000C94EC2A0E94BCCCDC01CB018C199D09D7
:10352000AE09BF09B7FF02C00C94EC2A0C94F12A33
:103530008091970284FF02C00C94022B8091990223
:1035400087FF02C00C94022B80919A02837011F0C5
:103550000C94022B60E084E693E00E9478C75E98AA
:103560005E9815985E980C9412240E947D700C94BD
:1035700012240E94C86F8091AD0D877F8093AD0D9E
:103580000C941224803209F41082319680818111CA
:10359000F9CF60E080919B0290919C020E9473722F
:1035A00010923E030C9412240E94DB30882321F0F9
:1035B0000E94D96F0E94FF300E9419BE0C94122401
:1035C0008091AD0D82FF03C08B7F8093AD0D0E9473
:1035D00010490E9419BE0C9412248091AD0D83FDF8
:1035E00002C00C94122483E50E94C02D81110C941A
:1035F000142B0C94122483E40E94772D882319F154
:1036000087E993E00E94143180910B0F882391F099
:10361000BE016F5F7F4F88E09FE00E94753C8E0186
:103620000F5F1F4FF80181918F01882339F00E94AD
:103630000D31F8CF8DE893E00E9414318AE00E94AA
:103640000D310C9412248091AD0D82FF21C086EAC9
:1036500093E00E9414316091A90D7091AA0D8091A0
:10366000AB0D9091AC0D4AE00E94DA318FE20E94DE
:103670000D316091A50D7091A60D8091A70D9091CF
:10368000A80D4AE00E94DA310E94F6320C9412240E
:1036900088EB93E00E9414310C9412248091AD0DBC
:1036A0008E7F8093AD0D0C9412248091AD0D83FD1F
:1036B00002C00C9412240E9427C08091AD0D83FD9E
:1036C00002C00C94122440919B0250919C02BE01B6
:1036D000645E7F4F80E00E94B4788C01009711F403
:1036E0000C9412246C8D7D8D19821C8222E0AC0119
:1036F000CE0101960E94DA3E811102C0F12C14C065
:10370000CE0101960E9422788823C1F361E0CE01A8
:1037100001960E94593C009789F325EEDC012C9319
:103720001C820E94453AF82ECE0101960E94E53C8B
:10373000B801FF2089F084EE93E00E9423318AE0F3
:103740000E940D311092A90D1092AA0D1092AB0D8E
:103750001092AC0D0C9412248CEC93E00E94233157
:1037600089EC93E00E9414310C9412248091AD0DE9
:1037700082FD0E9459898091AD0D83FD02C00C9499
:10378000122480E50E944CC0182F682F80919B0264
:1037900090919C020E94737283E50E94C02D882341
:1037A00081F00E941C2DAB01BC014093A90D5093E8
:1037B000AA0D6093AB0D7093AC0D88E09FE00E9462
:1037C000E8370E94D96F11110C9412240E94FF3027
:1037D0000C94122420919B0230919C029091AD0D8B
:1037E00092609093AD0DC9010E9426720C94122430
:1037F0000E949D487B018C0120E831E541E050E0CA
:103800000E949AE9C9016DE671E00E9417ED4B0133
:103810005C01C801B70120E13EE040E050E00E94B9
:103820009AE9CA01B90128E130E040E050E00E9485
:103830009AE9762E672EC62ED72E4CE3242E312CF5
:10384000412C512CC801B701A20191010E949AE9B3
:10385000F62EE72ECA01B901A20191010E949AE950
:10386000CB018E010F5F1F4F8114910499F0EF92ED
:10387000FF927F936F936F927F92BF92AF929F92CE
:103880008F928AE194E09F938F931F930F930E94EE
:10389000F2E213C0A114B104B1F0EF92FF927F9352
:1038A0006F936F927F92BF92AF928AE094E09F9362
:1038B0008F931F930F930E94F2E20FB6F894DEBF2E
:1038C0000FBECDBF30C0CD2879F0EF92FF927F932D
:1038D0006F936F927F928EEF93E09F938F931F93DE
:1038E0000F930E94F2E2E9CF892B69F0EF92FF92E9
:1038F0007F936F9386EF93E09F938F931F930F9324
:103900000E94F2E2DACFEF92FF9282EF93E09F9370
:103910008F931F930F930E94F2E20F900F900F90DE
:103920000F900F900F9060E0C8010E94F2C70E94B4
:103930003A31B8018EE294E00E9423318AE00E947D
:103940000D3170C76FEF7FEF80E50E9405588C0145
:1039500097FD68C7E82E89E40E944CC081110C9441
:10396000252B802F0E94B6D4811167C40C94252B7F
:1039700080E50E94772D882309F454C70E942C2DDE
:1039800090E08536910510F084E690E080933E0348
:1039900049C70E94104946C70E94254943C78091E4
:1039A000E80983FD3FC70E94C95787FD3BC783E5F0
:1039B0000E94C02D882309F435C70E94402D0E9423
:1039C0006AEBCB010E946EAE0E944CB281112AC7F5
:1039D0000E9425490E9419BE25C78091E80983FDF0
:1039E00021C70E94C957082F87FD1CC783E50E9485
:1039F000C02D182F81110C94622B82E50E94C02DDE
:103A000081110C94622B0EC70E94C957182F87FD95
:103A10000AC088E694E00E941431812F0E947EAE95
:103A20008AE00E940D312196AFAD2197A093B40199
:103A30000C94DA2C80E50E9459C08111F3C681E410
:103A40000E94772D882321F06091200570E002C04C
:103A50006FEF70E083E50E94F2578F3F910519F0F8
:103A600010F08FEF90E080932005DCC680E50E9487
:103A700059C08111D7C610922005D4C68EE40E9489
:103A8000C02D882309F4CEC60E941C2D6093240308
:103A9000709325038093260390932703C3C683E581
:103AA0000E94772D882329F083E50E9459C08093D6
:103AB000E8090E943A3189E794E00E94143180912C
:103AC000E809882369F13FE6E32E34E0F32E00E0B5
:103AD00010E020E08091E80990E0A0E0B0E0002E46
:103AE00004C0B695A795979587950A94D2F780FF5D
:103AF0000EC0DD24D394D20E222319F08CE20E9452
:103B00000D31F701859194910E9414312D2D0F5F95
:103B10001F4FB2E0EB0EF11C05301105D9F68ECD2A
:103B20008BE694E089CD41E060E070E080E894E0CD
:103B30000E9462310E94563075C683E50E94C02DF6
:103B4000882371F00E942C2D282F30E02D33310571
:103B50001CF48093040166C68CE38093040162C662
:103B60000E943A31C0900401D12CE12CF12C8EE856
:103B700094E00E9414314AE0C701B6010E94DA3194
:103B80008AE00E940D314EC68091E80983FD4AC645
:103B900083E50E94C02D882309F416CF0E94402D92
:103BA0000E946AEB6436710514F064E670E070936D
:103BB0006211609361110E9488AD06CF0E947C5112
:103BC00031C683E50E94C02D882309F42BC60E94CC
:103BD0002C2D182F90E0CD970CF01CE31093AC0126
:103BE0000E94BCCC6B017C01212F30E0A8EEB3E039
:103BF0000E94EEE9C60ED71EE81EF91EC092A8016B
:103C0000D092A901E092AA01F092AB010BC680917B
:103C1000B3018F7D80618093B30104C68091B301AD
:103C20008F7E80628093B301FDC583E50E94C02D25
:103C3000882399F00E94402D20E030E04AE754E4C8
:103C40000E94C0E30E9471EB60930501709306012E
:103C50008093070190930801E5C58091970284FF46
:103C600002C00C94B12B8091990287FF02C00C9482
:103C7000B12B80919A02837011F00C94B12B0E94A9
:103C80003F8BD0C583E50E94772D882309F4CAC5F0
:103C90000E94BCCC60937111709372118093731168
:103CA000909374110E94402D20E030E04AE754E4E4
:103CB0000E94C0E30E9471EB6093AD017093AE016E
:103CC0008093AF019093B001ADC50E943C6D88E236
:103CD0009DE00E944ED4A6C580919B0290919C02CB
:103CE000009709F469CCFC012081222309F464CCFB
:103CF00060E00E94F2C796C500919B0210919C0261
:103D000094E0F12C40E0915031F1D8018C91282FB2
:103D10002B7F213429F411962C912133E1F408C032
:103D20008035C9F4F801818180538A3048F013C08E
:103D3000813421F0853421F441E002C0FF24F39462
:103D400098012E5F3F4F89012F5F3F4FD8018C9123
:103D50008032C9F3D8CF41110E943A31FF2021F0BF
:103D60008EE896E00E941431C8010E94FC325AC5C8
:103D70000E94A64657C581E080932C0380932B03B5
:103D80000E94C1464FC510922C0310922B030E9433
:103D9000C14648C560E070E083E50E9405588C018B
:103DA0001127023011053CF00E94363182E996E07D
:103DB0000E94143137C588E40E94C02D8823A9F0E1
:103DC0000E941C2D6F3A71053CF06530B1E07B0715
:103DD0002CF064E071E002C06FEA70E0F801EE0FD1
:103DE000FF1FE35BFD4F7183608386E40E94C02D5B
:103DF000882381F00E941C2D77FD07C06F3F71055D
:103E000029F024F06FEF70E001C060E0F801E95B99
:103E1000FD4F608382E40E94C02D882309F402C50F
:103E20000E941C2D6530710534F0653671052CF04B
:103E300064E670E002C065E070E0000F111FF80159
:103E4000E75BFD4F71836083EDC480E50E94772DB1
:103E5000882351F08091B1019091B201892B41F0FA
:103E60000E942C2D182F05C01091B60D115001C0C5
:103E70001FEF87E50E94772D882351F08091B101D3
:103E80009091B201892B31F00E942C2D082F03C094
:103E900000E001C00FEF82E40E94772D882351F0EB
:103EA0008091B1019091B201892B31F00E942C2DAB
:103EB000F82E04C0F12C02C0FF24FA9485E50E947C
:103EC000772D882351F08091B1019091B201892B17
:103ED00031F00E942C2DE82E04C0E12C02C0EE240B
:103EE000EA9482E50E94772D882349F08091B10100
:103EF0009091B201892B29F00E942C2D03C080E003
:103F000001C08FEF8983EA82FB820C831D83CE017F
:103F100001960E94A9BF86C40E94C957182F87FD29
:103F200081C484E40E94772D8823E9F10E94402D0A
:103F30006B017C0101E020E030E0A9010E945AE31E
:103F4000811101C000E000936B1020E030E0A90176
:103F5000C701B6010E945AE3882329F124E0120226
:103F6000F0011124E059FF4EC082D182E282F38237
:103F700020E030E0A9016091701070917110809183
:103F80007210909173100E945AE381110CC080E06E
:103F900090E0A0EEBFE38093701090937110A09317
:103FA0007210B09373100E9460813CC40E94C95784
:103FB00087FD38C41AE5E12E11E0F12E09EE19E073
:103FC00089EFC82E89E0D82ED7018D917D010E94FE
:103FD000772D882359F00E94402D0E9471EBF80143
:103FE00060837183828393830E9412890C5F1F4FC9
:103FF000C016D10649F716C40E94C95787FD12C4DE
:10400000AAE5EA2EA1E0FA2E09EE19E0B9EFCB2ECF
:10401000B9E0DB2ED7018D917D010E94772D882399
:1040200039F00E94402DF80164A375A386A397A3DD
:104030000C5F1F4FC016D10669F7F4C38091980238
:1040400087FF02C00C94D62B809199028E7011F0DC
:104050000C94D62B40911D0A50911E0A60911F0AA4
:104060007091200A8AEB96E00E94E5324091210A85
:104070005091220A6091230A7091240A87EB96E0FE
:104080000E94E5324091250A5091260A6091270A44
:104090007091280A84EB96E00E94E5328AE00E9443
:1040A0000D31C0C38091970281FF02C00C941E2C79
:1040B0008091980281FF02C00C941E2C809199027D
:1040C0008C7011F00C941E2CADC3F1E3EF2EF3E0D5
:1040D000FF2E10E088E5810F0E94772D882359F08C
:1040E0000E94402DD7016D937D938D939C931397E0
:1040F000812F0E94EB421F5FB4E0EB0EF11C1330E6
:1041000049F70C94EA1783E50E94C02D882331F00B
:104110000E941C2D70934B0160934A01809197027D
:1041200090919802A0919902B0919A02892B8A2BC2
:104130008B2B09F077C360914A0170914B0189EE96
:1041400096E00E94633285E20E940D318AE00E946F
:104150000D3168C30E94C957F82E87FD63C383E5FC
:104160000E94C02D0F2D0F2C000C110B882369F11C
:104170000E941C2DF801EE0FFF1FEE5BFE4F7183B6
:104180006083000F111F000F111FF801E35DFE4F48
:104190007F01072E000C880B990B0E9461E32AE037
:1041A00037ED43E25CE30E94C0E3F801E459FF4EBF
:1041B00020813181428153810E94C0E3D7016D93F8
:1041C0007D938D939C9313972DC30E943A3185E480
:1041D0000E940D3180E38F0D0E940D31F801EE0F2A
:1041E000FF1FEE5BFE4F608171818DEE96E00E94B5
:1041F000633285E20E940D318AE00E940D3112C3C4
:1042000080E50E94772D882309F40CC360E070E0FC
:1042100080E50E940558F82E6FEF7FEF83E50E943E
:1042200005588C010196039708F0FCC2F7FCFAC20E
:104230008F2D0E94B6D4882339F00E94363185EF45
:1042400096E00E941431EEC20E94598960E08F2DE1
:104250000E94AFCB0F3FBFEF1B0731F001301105BC
:1042600071F401E010E00DC08F2D0E9457CB31E0BA
:1042700020E0892B09F030E0032F122F02C000E06C
:1042800010E08F2D0E9457CB8017910709F4CAC206
:1042900080E00E941D33F5CF8AE50E94C02D811178
:1042A00005C083E50E94C02D882379F10E94402D2E
:1042B00020E030E040E050EC0E945AE387FF02C06B
:1042C0000C94802C0E94402D20E030E040E050E42F
:1042D0000E945EEC181614F40C947A2C0E94402D67
:1042E00020912E032695269520FF0FC02091050AC8
:1042F0003091060A4091070A5091080A0E94C0E3D3
:104300000E946AEBCB010E94ED2F8091990287FFFA
:1043100002C00C94862C80919A02837011F00C9448
:10432000862C0E943A3160915D0270915E0284E0B9
:1043300097E00E9463328AE00E940D3173C264E00C
:1043400071E083E50E94F2578C0168EE73E080E52E
:104350000E94F2578938E3E19E0710F088E893E164
:10436000B8010E944BC75EC285E40E9459C081110A
:1043700073C080E50E94772D882351F00E94402D64
:104380006093D00C7093D10C8093D20C9093D30C8B
:1043900089E40E94772D882381F00E94402D2CEA29
:1043A00035EC47E25EE30E94C0E36093D40C709367
:1043B000D50C8093D60C9093D70C84E40E94772D73
:1043C000882381F00E94402D2CEA35EC47E25EE321
:1043D0000E94F8EA6093D80C7093D90C8093DA0CA1
:1043E0009093DB0C0E943A314091D00C5091D10C4B
:1043F0006091D20C7091D30C89E297E00E94E53273
:104400002CEA35EC47E25EE36091D40C7091D50C58
:104410008091D60C9091D70C0E94F8EAAB01BC01B8
:1044200085E297E00E94E5322CEA35EC47E25EE354
:104430006091D80C7091D90C8091DA0C9091DB0CC2
:104440000E94C0E3AB01BC0181E297E00E94E5322B
:104450008AE00E940D31E6C10E9436318FE097E07C
:104460000E941431DFC180E50E94772D882351F02E
:104470000E94402D609364117093651180936611C2
:104480009093671189E40E94772D882381F00E9420
:10449000402D2CEA35EC47E25EE30E94C0E36093D6
:1044A00068117093691180936A1190936B1184E481
:1044B0000E94772D882381F00E94402D2CEA35EC54
:1044C00047E25EE30E94F8EA60936C1170936D110D
:1044D00080936E1190936F110E943A314091641154
:1044E00050916511609166117091671185E397E0B5
:1044F0000E94E5322CEA35EC47E25EE360916811F8
:104500007091691180916A1190916B110E94F8EA83
:10451000AB01BC0181E397E00E94E5322CEA35EC67
:1045200047E25EE360916C1170916D1180916E11A4
:1045300090916F110E94C0E3AB01BC018DE297E046
:104540000E94E5328AE00E940D316CC183E50E9431
:10455000772D182F882371F00E94402D0E946AEB5E
:10456000709332016093310121E0672B09F020E064
:104570002093350580E50E94772D882359F02091FE
:10458000310130913201232B11F00E946E5D809336
:10459000350548C1111146C10E943A3185E597E0C1
:1045A0000E94143180913505811103C089E397E0A1
:1045B00002C08DE397E00E94143160913101709147
:1045C000320184E497E00E94633280E497E00E9425
:1045D000143128C10E946C4B25C187E00E941E4304
:1045E000811120C10BED1AE028EE34E039A328A395
:1045F000AE014F5F5F4F1A0130E3C32E3BE0D32E75
:104600007A01F8016591759185919491A8A1B9A15C
:104610008D909D90AD90BD90B9A3A8A3A5019401E4
:104620000E94FDE92B013C0120E030E040EA51EC22
:104630000E945EEC87FD10C020E030E040EA51E4CB
:10464000C301B2010E945AE3181634F0F701408208
:104650005182628273820EC0F60184911816B4F7FB
:10466000B7FAB094B7F8B094D7018D929D92AD92FD
:10467000BC921397D7018D909D90AD90BD907D0118
:1046800020E030E040EA51ECC501B4010E945EEC4C
:1046900087FF02C00C948E2C20E030E040EA51E409
:1046A000C501B4010E945AE3181614F00C94A32C0F
:1046B0000C948E2C0E94363184EA97E00E941431CB
:1046C000B1C00E94CC46AEC08091AD0D82FFAAC0A1
:1046D00080648093AD0DA6C00E94C957082F87FD46
:1046E000A1C085E50E94772D8823B1F1E02E002E30
:1046F000000CFF080E94402D4B015C0120E030E0DF
:10470000A9010E945EEC87FF04C0B7FAB094B7F825
:10471000B094C70123E0880F991F2A95E1F79C0107
:10472000215C3D4F7901D9018D929D92AD92BC9251
:10473000139720E030E041EE53E4C501B4010E943C
:104740005EEC18164CF480E090E0A1EEB3E4F701C3
:1047500080839183A283B3838CE40E94772D882386
:1047600009F460C0002E000C110B0E94402D6B015B
:104770007C0120E030E0A9010E945EEC87FF04C0CC
:10478000F7FAF094F7F8F09420E030E041EE53E4CB
:10479000C701B6010E945EEC980193E0220F331F1F
:1047A0009A95E1F7F901E15CFD4F18162CF0C482EF
:1047B000D582E682F78236C080E090E0A1EEB3E4D5
:1047C00084839583A683B7832DC081E080932F03D4
:1047D0001092231283E50E944CC0811123C00E94D5
:1047E0008A5320C00E943EC01DC000919D021091BE
:1047F0009E020023B9F00E943A3184E50E940D31F7
:10480000B8017727072E000C880B990B0E944732BE
:1048100080E20E940D3185EB97E00E94143102C0C6
:104820000E943EC06296FFAD6297F11102C00E94E5
:104830007A5321962FAD21972093B4010C94DA2C52
:104840000E94175780E692E00E9474438091E80925
:1048500083FD88C02091F4043091F5044091F60462
:104860005091F70460916C0270916D0280916E021C
:1048700090916F020E945AE3882309F473C08091DB
:10488000350581111EC020E030E0A9016091C90CFE
:104890007091CA0C8091CB0C9091CC0C0E94FEE9D7
:1048A0000E946AEB20913101309132016217730747
:1048B00044F40E943A318AEF92E00E94143111E0F0
:1048C00001C010E02091F4043091F5044091F60409
:1048D0005091F70460916C0270916D0280916E02AC
:1048E00090916F020E94FDE96B017C0120E030E0B5
:1048F000A9010E945EEC87FF04C0F7FAF094F7F874
:10490000F09420912D0130912E0140912F01509172
:104910003001C701B6010E94C0E320E030E041EE63
:1049200053E40E945EEC18163CF40E943A318BED81
:1049300092E00E94143102C01123A1F080916C0218
:1049400090916D02A0916E02B0916F028093F40479
:104950009093F504A093F604B093F7048CE692E0EC
:104960000E946A892AE037ED43E25CE3609100012E
:104970007091010180910201909103010E94C0E3B6
:104980006B017C0160914A0170914B01072E000C74
:10499000880B990B0E9461E39B01AC01C701B60132
:1049A0000E94C0E369837A838B839C83C12CD12CC2
:1049B00076018E010F5F1F4F2CE632E048E652E091
:1049C00064E672E080E692E00E94DE6C80E1E0E660
:1049D000F2E0A8EEB4E001900D928A95E1F722CFC3
:1049E0000E94175782E50E94C02D882309F448C011
:1049F0000E94402D6B017C0120E030E0A9010E9463
:104A00005AE3882309F4C3C48091E8049091E9042F
:104A1000A091EA04B091EB0488A399A3AAA3BBA335
:104A20002091EC043091ED044091EE045091EF049C
:104A30002CA33DA34EA35FA38090600290906102DF
:104A4000A0906202B09063024090640250906502B0
:104A50006090660270906702A5019401BC01CD01CF
:104A60000E945AE381113AC0A30192016CA17DA179
:104A70008EA19FA10E945AE3882309F488C42EC006
:104A800089E40E94C02D882329F00E94402D6B01EB
:104A90007C0103C0C12CD12C76018AE40E94C02D78
:104AA000882309F4D9C00E94402D68A779A78AA756
:104AB0009BA720E030E0A901C701B6010E945AE39C
:104AC0008111D8C020E030E0A90168A579A58AA5A8
:104AD0009BA50E945AE38111CDC059C411E032E078
:104AE0002316310409F010E020E030E0A901C701ED
:104AF000B6010E945AE3881F8827881F181309C02F
:104B000080E090E0A0E8BFE388A799A7AAA7BBA789
:104B100008C020E030E040E85FEB28A739A74AA7AB
:104B20005BA728A139A14AA15BA1C501B4010E94DC
:104B3000FDE920E030E040E05FE30E94C0E368A3CD
:104B400079A38AA39BA32CA13DA14EA15FA1C30180
:104B5000B2010E94FDE920E030E040E05FE30E9406
:104B6000C0E36CA37DA38EA39FA328A139A14AA172
:104B70005BA1CA01B9010E94C0E34B015C012CA1F9
:104B80003DA14EA15FA1CA01B9010E94C0E39B01F2
:104B9000AC01C501B4010E94FEE90E94ACEC4B01DE
:104BA0005C019B01AC01C701B6010E94FDE92B012C
:104BB0003C01A5019401C701B6010E94FEE99B01D9
:104BC000AC01C301B2010E94C0E36B017C0120E093
:104BD00030E0A9010E945EEC87FD07C0C701B60165
:104BE0000E94ACEC2B013C0103C0412C512C320142
:104BF0006CA17DA18EA19FA19058A50194010E9456
:104C0000F8EA28A539A54AA55BA50E94C0E3A3013F
:104C100092010E94C0E328A139A14AA15BA10E9490
:104C2000FEE96B017C01A501940168A179A18AA12B
:104C30009BA10E94F8EA28A539A54AA55BA50E9478
:104C4000C0E3A30192010E94C0E32CA13DA14EA1AB
:104C50005FA10E94FEE929CF20E030E0A901C70151
:104C6000B6010E945AE3882309F491C318A619A635
:104C70001AA61BA6D701C601B05888A399A3AAA358
:104C8000BBA328A539A54AA55BA550582CA33DA3D5
:104C90004EA35FA39C01AD01BC01CD010E94C0E306
:104CA0004B015C012CA13DA14EA15FA1CA01B9013C
:104CB0000E94C0E39B01AC01C501B4010E94FEE962
:104CC0000E94ACEC6CAF7DAF8EAF9FAF8091E804DB
:104CD0009091E904A091EA04B091EB048CA79DA700
:104CE000AEA7BFA7A7019601BC01CD010E94FEE9B6
:104CF00025966CAF7DAF8EAF9FAF25972091EC04CA
:104D00003091ED044091EE045091EF0428AB39ABA3
:104D10004AAB5BAB68A579A58AA59BA50E94FEE975
:104D200029966CAF7DAF8EAF9FAF299780916002BF
:104D300090916102A0916202B09163028CAB9DAB35
:104D4000AEABBFAB25962CAD3DAD4EAD5FAD25975F
:104D5000BC01CD010E94FDE96B017C012091640240
:104D600030916502409166025091670228AF39AFD9
:104D70004AAF5BAF29962CAD3DAD4EAD5FAD2997E7
:104D800068AD79AD8AAD9BAD0E94FDE94B015C0138
:104D9000A701960168A179A18AA19BA10E94C0E305
:104DA0002B013C01A50194016CA17DA18EA19FA1C5
:104DB0000E94C0E39B01AC01C301B2010E94FEE965
:104DC0002B013C01A501940168A179A18AA19BA1B5
:104DD0000E94C0E34B015C01A70196016CA17DA17B
:104DE0008EA19FA10E94C0E39B01AC01C501B4014B
:104DF0000E94FDE9A30192010E947DEA6B017C0102
:104E000020E030E0A9010E945AE387FF0AC02BEDA1
:104E10003FE049EC50E4C701B6010E94FEE96B0196
:104E20007C012BED3FE049EC50E4C701B6010E9444
:104E3000F8EA20E030E040EC51E40E94C0E30E9438
:104E4000DCEA0E9471EB8B01672B11F401E010E0AA
:104E500032E02316310451F42BED3FE049EC50E4ED
:104E6000C701B6010E94FDE96B017C0120E030E042
:104E7000A901C701B6010E945AE3811122C02CA9E1
:104E80003DA94EA95FA96CA57DA58EA59FA50E94F1
:104E90005AE3811116C028AD39AD4AAD5BAD68A9A2
:104EA00079A98AA99BA90E945AE381110AC008E145
:104EB00010E0ABEDCA2EAFE0DA2EA9ECEA2EA0E4AA
:104EC000FA2E8091F0049091F104A091F204B09137
:104ED000F30488AB99ABAAABBBAB9C01AD0160916D
:104EE00068027091690280916A0290916B020E943F
:104EF000FDE92B013C01A70196016CAD7DAD8EADA6
:104F00009FAD0E94C0E34B015C0120E030E0A901AD
:104F1000C301B2010E945AE38823C9F0A50194019C
:104F2000C501B4010E94C0E34B015C01A3019201E1
:104F3000C301B2010E94C0E39B01AC01C501B401F1
:104F40000E94FEE90E94ACEC4B015C010DC020E028
:104F500030E0A901C501B4010E945EEC87FF04C0E6
:104F6000B7FAB094B7F8B0942FE632E143E85AE3C9
:104F7000C501B4010E945AE387FDFEC120916C0275
:104F800030916D0240916E0250916F0228AF39AF9F
:104F90004AAF5BAF8091F4049091F504A091F604C0
:104FA000B091F7048CAB9DABAEABBFAB2AE037ED55
:104FB00043E25CE360910001709101018091020184
:104FC000909103010E94C0E36CA77DA78EA79FA7C5
:104FD00060914A0170914B01072E000C880B990BD0
:104FE0000E9461E39B01AC016CA57DA58EA59FA5E8
:104FF0000E94C0E36C8F7D8F8E8F9F8FC501B4019F
:105000000E94A0EB0E9471EB1B016017710708F46E
:105010001801B10180E090E00E945FE34B015C0168
:105020009B01AC01C701B6010E94F8EA6CA77DA7FD
:105030008EA79FA7A5019401C301B2010E94F8EABF
:105040002D966CAF7DAF8EAF9FAF2D972CA93DA94C
:105050004EA95FA968AD79AD8AAD9BAD0E94FDE90F
:10506000A50194010E94F8EA61966CAF7DAF8EAF06
:105070009FAF61972CA53DA54EA55FA5CA01B901BB
:105080000E94C0E320E030E040E05FE30E94C0E324
:105090009B01AC0160E070E080E89FE30E94FDE9C5
:1050A00068AF79AF8AAF9BAF28A939A94AA95BA994
:1050B00029873A874B875C878CA99DA9AEA9BFA990
:1050C0008D879E87AF87B88B0E94BCCC9B01AC01BB
:1050D00028533F4F4F4F5F4F2CAF3DAF4EAF5FAFA9
:1050E00048A059A06AA07BA041E050E059AB48AB72
:1050F00059E15CAB88A999A98215930508F010C104
:105100000E94AFCF0E94BCCCDC01CB012CAD3DADE9
:105110004EAD5FAD821B930BA40BB50BB7FD0FC05B
:105120000E94BCCC9B01AC0128533F4F4F4F5F4FB7
:105130002CAF3DAF4EAF5FAF80E00E941D333CA966
:1051400031503CAB3323E9F12CA13DA14EA15FA12D
:1051500068AD79AD8AAD9BAD0E94C0E36B017C0167
:105160009201A3016CA57DA58EA59FA50E94C0E319
:10517000A70196010E94FEE97B018C019201A30127
:1051800068AD79AD8AAD9BAD0E94C0E34B015C0177
:105190002CA13DA14EA15FA16CA57DA58EA59FA5CB
:1051A0000E94C0E39B01AC01C501B4010E94FDE96E
:1051B0002B013C01C701D8018CA39DA3AEA3BFA3C3
:1051C0004FC048A959A9BA0180E090E00E945FE36E
:1051D0002CA53DA54EA55FA50E94C0E34B015C0137
:1051E0000E94F3EA6B017C01C501B4010E949EECB0
:1051F0004B015C01A701960168A179A18AA19BA13D
:105200000E94C0E32B013C01A501940168A579A58A
:105210008AA59BA50E94C0E3A30192010E94FEE91A
:105220002B013C01A501940168A179A18AA19BA150
:105230000E94C0E34B015C01A701960168A579A516
:105240008AA59BA50E94C0E39B01AC01C501B401E6
:105250000E94FDE96CA37DA38EA39FA359E15CABE3
:105260009201A30125966CAD7DAD8EAD9FAD2597C6
:105270000E94FEE969837A838B839C832CA13DA1E4
:105280004EA15FA129966CAD7DAD8EAD9FAD2997E6
:105290000E94FEE96D837E838F8398872D962CADC7
:1052A0003DAD4EAD5FAD2D9769857A858B859C852B
:1052B0000E94FEE969877A878B879C8761962CAD6F
:1052C0003DAD4EAD5FAD61976D857E858F859889CB
:1052D0000E94FEE96D877E878F87988BCE010196AD
:1052E0000E947443C12CD12CF0E8EF2EFFE3FF2E77
:1052F0008E01045E1F4F9E01235F3F4FAE01475F4B
:105300005F4FBE016B5F7F4FCE0101960E94DE6C46
:10531000882331F088A999A9019699AB88ABEACE88
:1053200080E1E0E6F2E0DE01119601900D928A95AF
:10533000E1F7CE0101960E947443C12CD12CE0E824
:10534000EE2EEFE3FE2E8E01045E1F4F9E01235FC3
:105350003F4FAE01475F5F4FBE016B5F7F4FCE0196
:1053600001960E94DE6C80E1FE013196A8EEB4E069
:1053700001900D928A95E1F70E94BCCC6093711167
:105380007093721180937311909374114BCA0E94A1
:10539000363185E193E00E94143144CA0E94598954
:1053A0008091000190910101A0910201B09103014F
:1053B0008093B7019093B801A093B901B093BA015B
:1053C00080914A0190914B019093B6018093B50171
:1053D00084E690E090934B0180934A0181E08093B2
:1053E0002C030E94C14688E50E94772D182F89E57D
:1053F0000E94772DF82E8AE50E94772D1F11EAC0B2
:10540000181711F0F12EE6C0FF24F39411E001E02B
:1054100080E1E8EEF4E0A0E6B2E001900D928A951A
:10542000E1F780912E0382FF48C082E50E94C02DE3
:10543000882309F442C00E94402D4B015C0120E00A
:1054400030E0A9010E945AE38823B9F1111102C08A
:10545000FF20E9F180912E0382FD09C02091F00424
:105460003091F1044091F2045091F30403C020E024
:1054700030E0A901C501B4010E94FEE96093680211
:105480007093690280936A0290936B022091F004FA
:105490003091F1044091F2045091F3040E945EECCB
:1054A00018165CF419821A821B821C82BE016F5F7F
:1054B0007F4F88E692E00E941045112319F080E0AA
:1054C0000E947145FF2019F081E00E947145002380
:1054D00009F45CC080912E038370833061F060E03A
:1054E00083E493E00E9478C70E943A3184E393E01A
:1054F0000E94143138C00E942F45E090F004F090D3
:10550000F1040091F2041091F30480E090E0AAEE1F
:10551000B2E48093600290936102A0936202B09320
:1055200063028093640290936502A0936602B09335
:105530006702E0926802F092690200936A02109397
:105540006B0219821A821B821C82DE0111966D0188
:1055500020E030E04AEE52E4CA01B9010E94304432
:1055600082E00E9471451C8E1D8E1E8E1F8E80E073
:1055700090E0A0E2B1E489839A83AB83BC83BE014F
:10558000645E7F4FCE0101960E9410450E942F4518
:1055900080912B0380932C038091B7019091B801E7
:1055A000A091B901B091BA018093000190930101DB
:1055B000A0930201B09303018091B5019091B601CF
:1055C00090934B0180934A0183E0809352010E94A3
:1055D000464628C9082F1CCF80E00E941D330C943A
:1055E0007D1A8091BB01882321F00E94182D109212
:1055F000BB01111102C00E9419BE10922412009327
:10560000B40110C988E50E94772D81115E9889E563
:105610000E94772D81115E988AE50E94772D88235C
:1056200009F400C91598FEC80E941C2DAB01BC01ED
:105630004093A90D5093AA0D6093AB0D7093AC0DE0
:1056400088E09FE00E94E837EDC88DE40E94C02DFD
:105650008823D9F00E942C2D813069F038F08230F7
:1056600079F462E0802F0E94AFCBDCC860E0802F2D
:105670000E94AFCBD7C861E0802F0E94AFCBD2C8C9
:105680008BE394E00E941431CDC883E50E94C02DC5
:10569000882309F4C7C80E942C2DF82E94E0E91243
:1056A00003C080932005BEC861E0802F0E94AFCB6D
:1056B0006F2D802F0E9480CB6F2D70E0802F0E9475
:1056C000EBCBB0C80E94402D0E946AEBCB010E9438
:1056D0006EAE0E944CB2882319F00E94FF3004C0C5
:1056E0000E9425490E9419BE6091CD0C7091CE0C8C
:1056F000072E000C880B990B0E9461E36B017C0163
:105700008090C90C9090CA0CA090CB0CB090CC0C9F
:10571000A50194010E945EEC18161CF0111111C035
:1057200015C088E594E09F938F9383E694E09F9360
:105730008F931F920E94D7C70F900F900F900F90DA
:105740000F90612F802F0E94F5AE6CC8A5019401C7
:10575000C701B6010E945EEC18161CF38DE494E0BC
:10576000E2CF0E94598988E50E94772D882331F085
:105770005E9A80912E038E7F80932E0389E50E948E
:10578000772D882331F05E9A80912E038D7F809350
:105790002E038AE50E94772D882309F443C8159AC1
:1057A00080912E038B7F80932E033CC883E50E945B
:1057B000C02D882391F00E94402D60931D0A7093A4
:1057C0001E0A80931F0A9093200A6093250A709303
:1057D000260A8093270A9093280A80E50E94C02D0C
:1057E000882351F00E94402D60931D0A70931E0A79
:1057F00080931F0A9093200A82E50E94C02D88237F
:1058000051F00E94402D6093210A7093220A8093E8
:10581000230A9093240A84E50E94C02D882311F462
:105820000C9412240E94402D6093250A7093260A3E
:105830008093270A9093280A0C94122482E40E94F1
:10584000772D882351F00E945E5D6093F909709373
:10585000FA098093FB099093FC0983E50E94772D58
:10586000882351F00E94402D6093290A70932A0AE0
:1058700080932B0A90932C0A84E50E94772D88232D
:1058800051F00E94402D60932D0A70932E0A809350
:105890002F0A9093300A8AE40E94772D882311F40E
:1058A0000C9412240E94402D6B017C012AE037EDFC
:1058B00043E25CE30E945EEC87FD14C02AE939E90B
:1058C00049E95EE3C701B6010E945AE3181654F095
:1058D000C0920405D0920505E0920605F0920705F6
:1058E0000C9412240E9436318AEC96E00E94143106
:1058F0000C94122460E070E080E090E40C9470213D
:1059000060E070E080E090EC0C94702182E50E94F1
:10591000772D81110C9491210C9412240E94363120
:1059200086E897E00E94143161E088E797E00E94E2
:1059300078C70E94D7A268E270E088EC90E00E94ED
:105940004BC70C9412240C5F1F4FBFEFCB1ADB0A1E
:10595000EAE0073E1E0711F00C94012381E3E82ED4
:1059600083E0F82E10E0F10181919191A191B19124
:105970001F01F70181939193A193B1937F01812F2F
:105980000E94EB421F5F133071F70E94464660E0B1
:1059900088E697E00E9478C763E972E084E690E0C9
:1059A0000E944BC76AEB72E084E690E00E944BC70E
:1059B0000C941224CF5ADF4F0FB6F894DEBF0FBEFF
:1059C000CDBFDF91CF911F910F91FF90EF90DF90AE
:1059D000CF90BF90AF909F908F907F906F905F908F
:1059E0004F903F902F90089588E99DE00C94A9BFB7
:1059F000CF93DF9300D000D01F92CDB7DEB7809158
:105A00009711882359F019821A821B821C828FEF0A
:105A10008D83CE0101960E94A9BF02C00E94F42C82
:105A20000F900F900F900F900F90DF91CF910895EE
:105A30008DE99DE00C94A9BF8091B1019091B201D4
:105A4000009731F04AE050E060E070E00C9450E0E4
:105A500060E070E0CB0108950E941C2D97FD0CC002
:105A60000E941C2D6F3F71058105910509F034F4EA
:105A70000E941C2D862F089580E008958FEF0895D1
:105A80000F931F93CF938091B1019091B201009732
:105A900011F1FC018F01C1912C2F2F7DA9F0C5348C
:105AA00011F0C536B9F7F801108260E070E080911E
:105AB000B1019091B2010E94F4DEF801C083562F2B
:105AC000472F382F292F0BC060E070E0CF911F9136
:105AD0000F910C94F4DE50E040E030E020E0652FC0
