:100000000C94151C0C943F1C0C943F1C0C943F1C2E
:100010000C943F1C0C943F1C0C943F1C0C943F1CF4
:100020000C943F1C0C943F1C0C943F1C0C943F1CE4
:100030000C943F1C0C94F4580C943F1C0C943F1CE3
:100040000C943F1C0C94A7C40C948DD30C943F1CAF
:100050000C94673C0C945D3C0C943F1C0C943F1C2E
:100060000C943F1C0C943F1C0C943F1C0C943F1CA4
:100070000C943F1C0C943F1C0C943F1C0C943F1C94
:100080000C943F1C0C943F1C0C943F1CEBB0D0B064
:10009000D3B0EEB0D6B0D9B0DCB0E8B0DFB0F9B0D4
:1000A000E2B0E5B0F8CFB7CEEECE34D0EECEEECEA5
:1000B000EECEEECEEECEEECEEECEEECEEECEEECE60
:1000C000EECEEECEEECEEECEEECEEECEEECEEECE50
:1000D000EECEEECEEECEEECEEECEEECEEECEEECE40
:1000E0002ED0EECEEECEEECEEECEEECEEECEEECEEE
:1000F000EECE07D0EECEEECEEECEEECEEECEEECE05
:10010000EECEEECEEECEEECE4BD0EBCE01D204D282
:10011000F7D1FBD11BD21BD208D20CD212D216D2ED
:10012000D7D2DCD2E1D2EBD219D319D3F5D2FDD29A
:1001300005D30FD3084AD73B3BCE016E84BCBFFD2D
:10014000C12F3D6C74319ABD56833DDA3D00C77FA7
:1001500011BED9E4BB4C3E916BAAAABE0000008040
:100160003F05A84CCDB2D44EB93836A9020C50B9CF
:10017000918688083CA6AAAA2ABE000000803F00FB
:100180004E414E494E495459494E46CDCCCC3D0A7C
:10019000D7233C17B7D13877CC2B329595E6241F5F
:1001A000B14F0A000020410000C84200401C462018
:1001B000BCBE4CCA1B0E5AAEC59D7400407A10F3EB
:1001C0005A00A0724E18090010A5D4E80000E87685
:1001D00048170000E40B54020000CA9A3B000000DC
:1001E000E1F505000080969800000040420F0000F5
:1001F00000A08601000000102700000000E80300B6
:100200000000006400000000000A0000000000017F
:1002100000000000002C76D888DC674F0823DFC17F
:10022000DFAE59E1B1B796E5E3E453C63AE651993A
:100230007696E8E6C28426EB898C9B62ED407C6F63
:10024000FCEFBC9C9F40F2BAA56FA5F490055A2A1A
:10025000F75C936B6CF9676DC11BFCE0E40D47FE26
:10026000F520E6B500D0ED902E030094357705001B
:1002700080841E080000204E0A000000C80C3333A2
:1002800033330F986E12831141EF8D2114893BE6B1
:100290005516CFFEE6DB18D1844B381BF77C1D903A
:1002A0001DA4BBE424203284725E228100C9F124A3
:1002B000ECA1E53D27434F4D4D554E49434154492F
:1002C0004F4E0044525952554E004552524F5253D0
:1002D00000494E464F004543484F0020746F6F2041
:1002E0006C6F6E6720657874727573696F6E2070BD
:1002F000726576656E7465640A0020636F6C6420B5
:10030000657874727573696F6E2070726576656E4C
:100310007465640A0047322F47332062616420709D
:100320006172616D65746572730A00536C65657006
:100330002E2E2E00486F6D65205859206669727305
:10034000740A00486F6D65205859204669727374AD
:1003500000436C69636B20746F20526573756D6523
:100360002E2E2E004E6F204D6F76652E00456E644A
:100370002066696C65206C6973740A004265676960
:100380006E2066696C65206C6973740A00286E6F54
:100390002066696C65290043757272656E7420660B
:1003A000696C653A20005344207072696E74696EFE
:1003B00067206279746520004E6F7420534420706A
:1003C00072696E74696E670A002E0A0044656C6576
:1003D00074696F6E206661696C65642C2046696C77
:1003E000653A200046696C652064656C65746564D7
:1003F0003A002569730025696D2025697300256918
:10040000682025696D2025697300256964202569A8
:10041000682025696D202569730025697920256983
:1004200064202569682025696D2025697300507254
:10043000696E742074696D653A2000496E76616C4E
:1004400069642050696E204D6F64650A00436F6FC8
:100450006C696E672E2E2E0048656174696E672E7A
:100460002E2E0045202553006F6B006F666600D668
:1004700002D102CA02C302B50244454255473A00BE
:100480004D3131322053687574646F776E004D3191
:100490003133205300456E64657233204F46462E3B
:1004A000004348414D4245525F54454D50455241ED
:1004B00054555245004D4F54494F4E5F4D4F4445A2
:1004C0005300544845524D414C5F50524F544543A0
:1004D00054494F4E004155544F5245504F52545F6E
:1004E00053445F5354415455530050524F4D505450
:1004F0005F535550504F525400454D455247454E5D
:1005000043595F50415253455200434153455F4C5C
:10051000494748545F4252494748544E4553530057
:10052000544F47474C455F4C494748545300534F3D
:100530004654574152455F504F5745520042554926
:100540004C445F50455243454E54004C4556454C33
:10055000494E475F44415441005A5F50524F424513
:10056000004155544F4C4556454C005052494E544D
:100570005F4A4F420050524F475245535300415536
:10058000544F5245504F52545F54454D5000564FB2
:100590004C554D455452494300454550524F4D002E
:1005A00042494E4152595F46494C455F5452414E73
:1005B000534645520053455249414C5F584F4E5F98
:1005C000584F4646004649524D574152455F4E41AD
:1005D0004D453A4D61726C696E2062756766697847
:1005E0002D322E302E7820284769744875622920D4
:1005F000534F555243455F434F44455F55524C3A24
:1006000068747470733A2F2F6769746875622E630B
:100610006F6D2F4D61726C696E4669726D77617294
:10062000652F4D61726C696E2050524F544F434F8D
:100630004C5F56455253494F4E3A312E30204D4172
:100640004348494E455F545950453A456E6465727A
:10065000332045585452554445525F434F554E54EC
:100660003A3120555549443A6365646532613266D2
:100670002D343161322D343734382D396231322DF9
:100680006335356336326633363766660A002F2F98
:1006900020004D31343520533C696E6465783E202E
:1006A0006F7574206F662072616E67652028302D2B
:1006B00031290A00205400205200416363656C65B3
:1006C000726174696F6E3A2050003F4A206F7574F2
:1006D000206F662072616E67652028302E303120D1
:1006E000746F20302E33290A0046523A0020466C9F
:1006F0006F773A200050726F7465637465642050A0
:10070000696E0A004261627973746570205A00490B
:100710006E76616C69642065787472756465720ABE
:100720000020643A0020693A0020703A0020643AC0
:100730000020693A0020703A0064697300656E0019
:1007400043290A0061626C656420286D696E20741B
:10075000656D702000436F6C6420657874727564F9
:1007600065732061726520004F666673657473203F
:100770004170706C696564004572723A20546F6F05
:10078000206661722100546F6F206661722066726C
:100790006F6D207265666572656E636520706F6946
:1007A0006E740A00454550524F4D20646973616272
:1007B0006C65640A00496E76616C696420657874C2
:1007C00072756465720A000F150E1216170E130368
:1007D000021A1401000E0C190DFF180C040001621E
:1007E0007573793A2070617573656420666F722045
:1007F000696E7075740A00627573793A207061755C
:1008000073656420666F7220757365720A00627585
:1008100073793A2070726F63657373696E670A004B
:1008200053544F505045442E20005072696E7465E9
:10083000722073746F707065642064756520746FC6
:10084000206572726F72732E204669782074686515
:10085000206572726F7220616E6420757365204D21
:1008600039393920746F20726573746172742E2067
:100870002854656D706572617475726520697320A6
:1008800072657365742E20536574206974206166E7
:100890007465722072657374617274696E67290A77
:1008A000004E6F20436865636B73756D20776974C4
:1008B00068206C696E65206E756D6265722C204CC7
:1008C000617374204C696E653A20004E6F20436856
:1008D00065636B73756D2077697468206C696E65EC
:1008E000206E756D6265722C204C617374204C69AA
:1008F0006E653A2000636865636B73756D206D6982
:10090000736D617463682C204C617374204C696E44
:10091000653A20004C696E65204E756D62657220E7
:100920006973206E6F74204C617374204C696E651E
:10093000204E756D6265722B312C204C61737420D2
:100940004C696E653A20004D3131300053442072BD
:10095000656164206572726F720A002121204B4923
:100960004C4C2063617573656420627920746F6FED
:10097000206D75636820696E6163746976652074A3
:10098000696D65202D2063757272656E7420636FCA
:100990006D6D616E643A2000506C65617365205224
:1009A00065736574005052494E5445522048414C7D
:1009B0005445440025533A202553004B494C4C459F
:1009C000442E20005072696E7465722068616C74E8
:1009D00065642E206B696C6C28292063616C6C65E2
:1009E00064210A006563686F3A004572726F723A5B
:1009F00000486F74656E6420746F6F20636F6C6461
:100A00000A007C3C3E5E2B3D3F2F5B5D3B2C2A2247
:100A10005C004361703A00220A00656E717565756D
:100A200065696E672022006F6B00526573656E64A6
:100A30003A200020573A0042656420436F6F6C698A
:100A40006E672E2E2E004265642048656174696EC3
:100A5000672E2E2E0023646566696E652044454628
:100A600041554C545F00626564004B6420004B6943
:100A700020004B702000504944204175746F7475FC
:100A80006E652066696E69736865642120507574AF
:100A900020746865206C617374204B702C204B6946
:100AA00020616E64204B6420636F6E7374616E749A
:100AB000732066726F6D2062656C6F7720696E744B
:100AC0006F20436F6E66696775726174696F6E2E11
:100AD000680A00504944204175746F74756E652032
:100AE0006661696C6564212074696D656F75740A4F
:100AF00000504944204175746F74756E65206661BD
:100B0000696C6564212054656D70657261747572DD
:100B10006520746F6F20686967680A00204B643A2B
:100B20002000204B693A2000204B703A20000A2018
:100B3000436C617373696320504944200A00204B61
:100B4000643A2000204B693A2000204B703A200084
:100B50000A204E6F206F76657273686F6F740A009B
:100B60002054753A2000204B753A2000206D6178A2
:100B70003A2000206D696E3A200020643A2000205F
:100B8000626961733A2000504944204175746F7462
:100B9000756E652073746172740A00504944204177
:100BA00075746F74756E65206661696C656421206B
:100BB00054656D706572617475726520746F6F2015
:100BC000686967680A00504944204175746F7475FC
:100BD0006E65206661696C656421204261642065F0
:100BE00078747275646572206E756D6265720A0044
:100BF0002020506C616E6E65724275666665724249
:100C0000797465733A20002046726565204D656DE4
:100C10006F72793A2000436F6D70696C65643A2099
:100C20004D617220313920323032300A00204C615F
:100C3000737420557064617465643A2032303230C8
:100C40002D30332D3139207C20417574686F723A14
:100C500020636363630A006275676669782D322ECC
:100C6000302E780A004D61726C696E0020536F66F9
:100C700074776172652052657365740A002057614C
:100C8000746368646F672052657365740A0020425C
:100C9000726F776E206F75742052657365740A00E9
:100CA0002045787465726E616C2052657365740AB4
:100CB00000506F77657255700A0073746172740A20
:100CC000006175746F25632E6700473238585900EC
:100CD000446F6E65207072696E74696E6720666914
:100CE0006C650A004D3051315331383030004D3091
:100CF00051315031004D3737004D3331006572723C
:100D00006F722077726974696E6720746F206669EC
:100D10006C650A00446F6E6520736176696E6720AA
:100D200066696C652E0A004D323900456E64737435
:100D30006F707300255320256320256320256320D1
:100D4000256300205A3A0020593A0020583A00659D
:100D50006E6473746F7073206869743A2000204564
:100D600000204D39322058004F4646004F4E00209B
:100D70005A0020590020580020204D61783A200068
:100D8000200020204D696E3A2000536F6674206564
:100D90006E6473746F70733A2000496E7365727479
:100DA0002066696C616D656E7420616E642070727E
:100DB00065737320627574746F6E0A00496E736593
:100DC00072742066696C616D656E7420616E64205A
:100DD000707265737320627574746F6E0A0050725E
:100DE00065737320627574746F6E20746F2068650C
:100DF0006174206E6F7A7A6C650A004D3630303A35
:100E000020546F6F20436F6C6400486F74656E648C
:100E100020746F6F20636F6C640A0020496E7661E6
:100E20006C6964206578747275646572200024F4BE
:100E3000D43050C38E20C2A24017828B7011127A18
:100E4000910D816CD90AA861E108C7586607615104
:100E500043061E4B5D05C145A7041A411104093D17
:100E60009803713931034036DB0265339102D43087
:100E70005402802E1D02632CEE01752AC501B02894
:100E8000A001102781018F2564012B244B01E02252
:100E90003401AC211F018D200D01801FFC00841E38
:100EA000ED00971DDF00B81CD200E61BC600201B1A
:100EB000BC00641AB200B219A8000A19A0006A188E
:100EC0009900D117910040178B00B5168400311698
:100ED0007E00B31579003A157300C7146F005814DB
:100EE0006A00EE1366008813630025135E00C712C4
:100EF0005B006C12570015125400C11151007011A3
:100F00004F0021114B00D61049008D1047004610AC
:100F1000440002104200C00F4000800F3E00420F0C
:100F20003C00060F3B00CB0E3800930E37005C0EE2
:100F30003500270E3400F30D3200C10D3100900D45
:100F40003000600D2E00320D2D00050D2C00D90C47
:100F50002B00AE0C2900850C29005C0C2700350CF9
:100F600027000E0C2600E80B2400C40B2400A00B65
:100F700023007D0B23005A0B2100390B2100180B95
:100F80002000F80A1F00D90A1E00BB0A1E009D0A95
:100F90001D00800A1D00630A1C00470A1B002C0A62
:100FA0001B00110A1A00F7091A00DD091900C4090B
:100FB0001900AB091900920917007B091800630991
:100FC00017004C09160036091600200916000A09F8
:100FD0001500F5081500E0081400CC081400B80846
:100FE0001400A4081400900813007D0812006B0878
:100FF0001300580812004608120034081100230894
:1010000011001208110001081100F0071000E0079C
:101010001000D0071000C0071000B0070F00A10794
:10102000100091070E0083070F0074070F0065077B
:101030000E0057070E0049070E003B070D002E0754
:101040000E0020070D0013070D0006070D00F9061E
:101050000C00ED060D00E0060C00D4060C00C806DE
:101060000C00BC060C00B0060C00A4060B00990690
:101070000C008D060B0082060B0077060B006C0639
:101080000B0061060A0057060B004C060A004206D8
:101090000A0038060A002E060A0024060A001A066C
:1010A0000A001006090007060A00FD050900F405FC
:1010B0000900EB050900E2050900D9050900D00582
:1010C0000900C7050900BE050900B5050800AD0502
:1010D0000800A50509009C050800940508008C057A
:1010E0000800840508007C050800740508006C05EC
:1010F0000700650508005D050700560508004E0558
:1011000007004705070040050800380507003105BE
:1011100007002A050700230507001C050600160521
:1011200007000F0507000805060002050700FB047D
:101130000600F5040700EE040600E8040600E204D9
:101140000700DB040600D5040600CF040600C9042E
:101150000600C3040600BD040600B7040600B1047F
:101160000500AC040600A6040600A00405009B04CC
:10117000060095040500900406008A040500850415
:101180000500800406007A0405007504050070045B
:1011900005006B04050066040500610405005C049D
:1011A000050057040500520405004D0405004804DD
:1011B0000500430405003E0404003A04050035041C
:1011C0000500300404002C04050027040400230457
:1011D00005001E0404001A0404001604050011048E
:1011E00004000D04040009040500040404000004C4
:1011F0000400FC030400F8030400F4030400F003FB
:101200000400EC030400E8030400E4030400E0032A
:101210000400DC030400D8030400D4030400D0035A
:101220000400CC030400C8030300C503030024F436
:1012300004D9201BC40C5C0E9804C4095F02650726
:101240007101F405F900FB04B30048048700C103F1
:1012500069005803550003034500BE023A008402AA
:10126000310053022A002902250004022000E40173
:101270001C00C8011900AF01170098011400840177
:101280001300710110006101100051010E004301B3
:101290000D0036010B002B010B0020010B00150186
:1012A00009000C01090003010800FB000800F3001D
:1012B0000800EB000700E4000600DE000600D8008E
:1012C0000600D2000600CC000500C7000500C200E1
:1012D0000500BD000400B9000400B5000400B10021
:1012E0000400AD000400A9000400A5000300A20052
:1012F00003009F0004009B0003009800030095007A
:10130000020093000300900003008D0002008B0098
:1013100003008800020086000200840003008100B0
:1013200002007F0002007D0002007B0002007900C5
:1013300002007700010076000200740002007200D3
:101340000100710002006F0002006D0001006C00DE
:1013500002006A00010069000200670001006600E7
:1013600001006500010064000200620001006100EC
:101370000100600001005F0002005D0001005C00F0
:1013800001005B0001005A000100590001005800F3
:1013900001005700010056000100550001005400F3
:1013A00001005300000053000100520001005100F1
:1013B0000100500001004F0001004E0000004E00EF
:1013C00001004D0001004C0001004B0000004B00EB
:1013D00001004A00010049000100480000004800E7
:1013E00001004700010046000000460001004500E2
:1013F00000004500010044000100430000004300DC
:1014000001004200000042000100410000004100D4
:101410000100400001003F0000003F0001003E00CD
:1014200000003E0001003D0000003D0001003C00C6
:1014300000003C0000003C0001003B0000003B00BD
:1014400001003A0000003A000100390000003900B4
:1014500001003800000038000000380001003700AB
:1014600000003700010036000000360000003600A2
:101470000100350000003500000035000100340097
:10148000000034000000340001003300000033008D
:101490000000330001003200000032000000320082
:1014A0000100310000003100000031000100300077
:1014B000000030000000300001002F0000002F006D
:1014C00000002F0000002F0001002E0000002E0061
:1014D00000002E0001002D0000002D0000002D0056
:1014E00000002D0001002C0000002C0000002C004A
:1014F00000002C0001002B0000002B0000002B003E
:1015000000002B0001002A0000002A0000002A0031
:1015100000002A0001002900000029000000290025
:101520000000290000002900010028000000280018
:10153000000028000000280000002800010027000B
:1015400000002700000027000000270000002700FF
:1015500001002600000026000000260000002600F2
:1015600000002600010025000000250000002500E5
:1015700000002500000025000000250001002400D7
:1015800000002400000024000000240000002400CB
:1015900001002300000023000000230000002300BE
:1015A00000002300000023000000230001002200AF
:1015B00000002200000022000000220000002200A3
:1015C0000000220001002100000021000000210095
:1015D0000000210000002100000021000000210087
:1015E000010020000000200000002000000020007A
:1015F000000020000000200000002000000020006B
:1016000001001F0000001F0000001F0000001F005D
:1016100000001F0000001F0000001F0001001E004E
:1016200000001E0000001E0000001E000000043725
:1016300000001E290000511B000058100000100976
:101640000000CC04000078020000410100002045A9
:101650003A00205A3A0020593A00583A0020746F54
:101660006F206C6F6E6720657874727573696F6E2A
:101670002070726576656E7465640A0020636F6C15
:101680006420657874727573696F6E207072657608
:10169000656E7465640A0043616E6E6F74206F70CE
:1016A000656E207375626469722000534420636123
:1016B0007264206F6B0A006F70656E526F6F7420DA
:1016C0006661696C65640A00766F6C756D652E697C
:1016D0006E6974206661696C65640A005344206910
:1016E0006E6974206661696C0A004D3234004D32B7
:1016F000332025730046696C652073656C656374DF
:1017000065640A002053697A653A200046696C6571
:10171000206F70656E65643A2000454E4420535535
:1017200042524F5554494E450A002220706F7300B3
:101730002220706172656E743A2200535542524FF6
:101740005554494E452043414C4C207461726765A5
:10175000743A2200747279696E6720746F20636135
:101760006C6C207375622D67636F64652066696CAD
:101770006573207769746820746F6F206D616E796E
:10178000206C6576656C732E204D4158206C657613
:10179000656C2069733A310A0057726974696E6723
:1017A00020746F2066696C653A20002E0A006F7005
:1017B000656E206661696C65642C2046696C653ACB
:1017C0002000667265736800646F696E670020664A
:1017D000696C653A20004E6F77200000006B430073
:1017E000006B430000704300000000000000000098
:1017F00000000048617264636F646564204465663C
:1018000061756C742053657474696E6773204C6FD6
:10181000616465640A00000096430000964300007E
:101820009642000096430000A0420000A042000043
:10183000C8430000C342B80B0000B80B00006400AE
:101840000000102700006F70656E00545249474732
:1018500045524544003A20007A5F6D696E00795F19
:101860006D696E00785F6D696E005265706F72749D
:10187000696E6720656E6473746F70207374617431
:1018800075730A00486F6D652025732573257320D5
:10189000466972737400486F6D696E6720466169AE
:1018A0006C65640000000000000000000000000003
:1018B0000000484200004842000080405761726EBC
:1018C000696E673A20486F6D696E672042756D706A
:1018D0002044697669736F72203C20310A0002024D
:1018E000040000A0400000A0400000004000006B89
:1018F0004300006B4300007043FFFFFF2E0A006FA0
:1019000070656E206661696C65642C2046696C6543
:101910003A200000002110422063308440A550C6C8
:1019200060E770088129914AA16BB18CC1ADD1CE1D
:10193000E1EFF13112100273325222B5529442F7A4
:1019400072D662399318837BB35AA3BDD39CC3FF6D
:10195000F3DEE36224433420040114E664C774A474
:101960004485546AA54BB528850995EEE5CFF5ACBD
:10197000C58DD55336722611163006D776F6669584
:1019800056B4465BB77AA719973887DFF7FEE79D0D
:10199000D7BCC7C448E5588668A7784008611802D4
:1019A000282338CCC9EDD98EE9AFF9488969990A5D
:1019B000A92BB9F55AD44AB77A966A711A500A33E4
:1019C0003A122AFDDBDCCBBFFB9EEB799B588B3BAD
:1019D000BB1AABA66C877CE44CC55C222C033C6034
:1019E0000C411CAEED8FFDECCDCDDD2AAD0BBD68FD
:1019F0008D499D977EB66ED55EF44E133E322E51C4
:101A00001E700E9FFFBEEFDDDFFCCF1BBF3AAF594C
:101A10009F788F8891A981CAB1EBA10CD12DC14EBD
:101A2000F16FE18010A100C230E320045025404650
:101A3000706760B9839893FBA3DAB33DC31CD37F6F
:101A4000E35EF3B1029012F322D2323542145277A0
:101A5000625672EAB5CBA5A89589856EF54FE52C3F
:101A6000D50DC5E234C324A01481046674476424F0
:101A7000540544DBA7FAB79987B8975FE77EF71D4F
:101A8000C73CD7D326F2369106B016576676761540
:101A90004634564CD96DC90EF92FE9C899E9898A9F
:101AA000B9ABA94458654806782768C018E1088290
:101AB00038A3287DCB5CDB3FEB1EFBF98BD89BBBAF
:101AC000AB9ABB754A545A376A167AF10AD01AB3E0
:101AD0002A923A2EFD0FED6CDD4DCDAABD8BADE8FF
:101AE0009DC98D267C076C645C454CA23C832CE030
:101AF0001CC10C1FEF3EFF5DCF7CDF9BAFBABFD98F
:101B00008FF89F176E367E554E745E932EB23ED17F
:101B10000EF01E010204081020408001020408108B
:101B200020408001020408102040808040201008DE
:101B300004020100002200250028002B00020202FE
:101B40000202020202040404040404040403030362
:101B50000303030303010101010101010150726943
:101B60006E74657220496E666F004D61696E004942
:101B70006E6469676F00426C756500477265656EDB
:101B80000059656C6C6F77004F72616E676500522B
:101B900065640056696F6C65740057686974650008
:101BA0004272696768746E6573730057686974651B
:101BB00020496E74656E7369747900426C75652096
:101BC000496E74656E7369747900477265656E203D
:101BD000496E74656E736974790052656420496E4C
:101BE00074656E73697479004C454420436F6E745C
:101BF000726F6C00437573746F6D204C6967687405
:101C000073004C6967687420507265736574730063
:101C100044656661756C74004F6666004F6E004CDB
:101C20006967687473004D61696E003F00426163CB
:101C30006B0053746F70004368616E67652046697E
:101C40006C616D656E7400507265686561742041E9
:101C500042532B005072656865617420504C412BD3
:101C6000005072656865617420437573746F6D0010
:101C70004261636B00507265686561742041425334
:101C80002B20456E64005072656865617420414286
:101C9000532B204265640054656D706572617475E4
:101CA000726500436F6F6C646F776E005072656889
:101CB000656174204142532B005072656865617400
:101CC00020504C412B0046616E20537065656400C6
:101CD000426564004E6F7A7A6C65004D61696E00F2
:101CE000546F74616C004261627973746570205A3C
:101CF00000466C6F770046616E2053706565640026
:101D0000426564004E6F7A7A6C6500537065656455
:101D1000004D61696E004D32310041747461636839
:101D2000204D65646961005072696E742066726F3F
:101D30006D204D65646961004D32320052656C65FD
:101D4000617365204D65646961004C454420436FB3
:101D50006E74726F6C0041626F7574205072696EA0
:101D6000746572004D363030204230004368616E39
:101D700067652046696C616D656E7400436F6E66C1
:101D8000696775726174696F6E0054656D70657214
:101D90006174757265004D6F74696F6E0052657382
:101DA000756D65205072696E74004D6564696120BF
:101DB00052656C65617365640054756E650053749B
:101DC0006F70205072696E74005061757365205099
:101DD00072696E7400496E666F2053637265656E3A
:101DE000003F005374617274205072696E74004336
:101DF000616E63656C005072696E740043616E6E53
:101E00006F7420656E746572207375626469723ACE
:101E10002000022E2E000152656672657368004D27
:101E200061696E002568753A253032687500253085
:101E30003268753A2530326875002568756420254A
:101E4000303268753A253032687500202020202015
:101E500020200020202020202020002020202000E2
:101E60001FE0201020102010102010202010201023
:101E700030300840048003001FE03FF03FF03FF0A7
:101E80001FE01FE03FF03FF03FF00FC0078003006E
:101E90003FFFF038007030FC3020FC10207810201C
:101EA00030102C00D02E31D02F7BD02F7BD02E3174
:101EB000D02C00D020301020781020FC1030FC30C6
:101EC0003800703FFFF03FFFF0380070318630235C
:101ED00087102787902F87D02F03D02030102078AD
:101EE000102078102030102F03D02F87D027879014
:101EF0002387103186303800703FFFF01FFFF81F36
:101F0000FFF80410400208200208200410400820B6
:101F100080104100104100082080041040000000A3
:101F20001FFFF81FFFF8256C6425636D004C6F617F
:101F300064206D6D00556E6C6F6164206D6D0046A0
:101F4000696C2E204469612E004F6666004F6E005A
:101F50004520696E206D6DC2B300554E4C4F414413
:101F60002046494C414D454E54004C4F414420467B
:101F7000494C414D454E540046494C414D454E5407
:101F8000204348414E4745004573746570732F6D7B
:101F90006D005A73746570732F6D6D00597374659D
:101FA00070732F6D6D005873746570732F6D6D00B5
:101FB000416476616E6365642053657474696E670D
:101FC000730046696C616D656E740053746570735F
:101FD0002F6D6D00436F6E66696775726174696F0E
:101FE0006E003F004E65787420506F696E74004437
:101FF0006F6E65004E65787400486F6D696E67207E
:1020000058595A00526573746F7265204465666151
:10201000756C747300416476616E6365642053650A
:102020007474696E6773004D61696E004D373032AC
:1020300020542564004D3630302042302054256431
:10204000004D373032203B2564004D37303120546D
:10205000256400436F6E74696E7565005075726714
:1020600065206D6F726500524553554D45204F50A8
:1020700054494F4E533A005052494E542050415506
:102080005345440020204E6F7A7A6C653A20005008
:1020900061726B696E672E2E2E00000057616974A5
:1020A00020666F720066696C616D656E742063688E
:1020B000616E676500746F2073746172740057619C
:1020C000697420666F720066696C616D656E74205C
:1020D000756E6C6F616400004E6F7A7A6C65206873
:1020E000656174696E6700506C6561736520776126
:1020F00069742E2E2E000050726573732062757401
:10210000746F6E00746F2068656174206E6F7A7AE8
:102110006C650000496E736572742066696C616D50
:10212000656E7400616E64207072657373206275F1
:1021300074746F6E00746F20636F6E74696E756572
:10214000005761697420666F720066696C616D6525
:102150006E74206C6F61640000507265737320426E
:102160007574746F6E00746F20726573756D652081
:102170007072696E7400005761697420666F722016
:102180007072696E7400746F20726573756D652E60
:102190002E2E0000436C69636B20746F2066696E9D
:1021A0006973680066696C616D656E742070757224
:1021B000676500005072696E7420506175736564C4
:1021C000005072696E742066726F6D204D6564698F
:1021D0006100220A00556E6B6E6F776E20636F6D23
:1021E0006D616E643A202200456E64657233205240
:1021F000656164792E005072696E74696E672E2E67
:102200002E004572723A207574663820666F6E74BF
:10221000206E6F7420696E697469616C697A656497
:102220002E004572723A207574663820666F6E749F
:10223000206E6F7420696E697469616C697A656477
:102240002E004572723A207574663820666F6E747F
:10225000206E6F7420696E697469616C697A656457
:102260002E00687474703A2F2F6D61726C696E66FF
:10227000772E6F7267006275676669782D322E302F
:102280002E78001FFFFFFFFFFFFF6000000000012E
:10229000FF400000000000FF8000000000007F837E
:1022A000CF00000C303F87FF80000C301F86798004
:1022B000000C000F8C30C7838C30E78C30CFC7CC3C
:1022C00031F38C30DCECEC33B98C30D86C6C3319D6
:1022D0008C30D06C0C33198C30D86C0C33198C309A
:1022E000DC6C0E3B198C30CF7C079F198C30C77C7F
:1022F000038F194000000000000260000000000091
:10230000061FFFFFFFFFFFF800091200FC0A01E8AB
:1023100003D720FFFD0EFD0BFD00000009000E019C
:102320000B0B09040080808080808080000080800A
:1023300004040409030790909090080A0A09000019
:10234000242424FF2424FF242424070B0B0901FF49
:10235000107C929050381412927C10070A0A0901DE
:102360000042A4A4481010244A4A84070A0A09011A
:102370000060909090606294889462010404090463
:102380000780808080030C0C0903FF204040808080
:1023900080808080404020030C0C0903FF80404077
:1023A000202020202020404080070707090103103B
:1023B000925438549210070707090101101010FEBB
:1023C0001010100204040904FEC0C040800701017F
:1023D000090104FE020202090400C0C0070A0A093A
:1023E000010002040408101020404080070A0A0976
:1023F000010038448282828282824438070A0A09B4
:102400000100103050901010101010FE070A0A0939
:102410000100384482020408102040FE070A0A091D
:102420000100FE020408180402028478070A0A095F
:102430000100040C14244484FE040404070A0A095D
:102440000100FE808080F80402028478070A0A09ED
:1024500001003C408080B8C482824438070A0A09DF
:102460000100FE020404080810101010070A0A09EF
:10247000010038448244384482824438070A0A09F9
:10248000010038448282463A0202047802070709B2
:102490000400C0C0000000C0C00209090904FEC059
:1024A000C0000000C0C040800509090902000810F2
:1024B00020408040201008070404090102FE0000AB
:1024C000FE05090909020080402010081020408004
:1024D000070A0A090100384482020408101000109B
:1024E000070A0A09010038449AAAAAAAAA9C403CF1
:1024F000070A0A09010010282828447C44828282A5
:10250000070A0A090100F8848284F884828284F828
:10251000070A0A0901003C42808080808080423C9A
:10252000070A0A090100F88482828282828284F882
:10253000070A0A090100FE808080F880808080FE02
:10254000070A0A090100FE808080F8808080808070
:10255000070A0A09010038448280808E828244384A
:10256000070A0A09010082828282FE8282828282B6
:10257000050A0A090200F82020202020202020F847
:10258000070A0A0901003E08080808080888887038
:10259000070A0A09010082848890A0D08884828278
:1025A000070A0A090100808080808080808080FE88
:1025B000070A0A0901008282C6AA92828282828266
:1025C000070A0A0901008282C2A2928A8682828256
:1025D000070A0A0901007C82828282828282827CCE
:1025E000070A0A090100F884828284F880808080CA
:1025F000080B0B0901FF384482828282828A443AA6
:1026000001070A0A090100F884828284F89088840C
:1026100082070A0A0901007C8280807C0202028211
:102620007C070A0A090100FE10101010101010108B
:1026300010070A0A09010082828282828282824411
:1026400038070A0A09010082828244444428282863
:1026500010070A0A0901008282828292929292AA4B
:1026600044070A0A09010082824428101028448283
:1026700082070A0A090100828244281010101010F3
:1026800010070A0A090100FE020408102040808099
:10269000FE040C0C0903FFF0808080808080808025
:1026A0008080F0070A0A09010080404020101008CD
:1026B000040402040C0C0902FFF01010101010109A
:1026C00010101010F00704040901061028448208B5
:1026D00001010900FFFF03030309030A80402007EB
:1026E00007070901007C02027E82867A070A0A092E
:1026F0000100808080BCC2828282C2BC07070709B9
:1027000001007C82808080827C070A0A0901000225
:1027100002027A86828282867A0707070901007C94
:102720008282FE80827C070A0A0901001C22222084
:1027300020F820202020070A0A0901FD7A848484D9
:1027400078807C82827C070A0A090100808080BC34
:10275000C28282828282050A0A090200600000E0C9
:102760002020202020F8050D0D0902FD180000385A
:10277000080808080808888870070A0A0901008004
:102780008080848890B0C88482050A0A090200E02B
:102790002020202020202020F8070707090100EC36
:1027A000929292929282070707090100BCC282822C
:1027B0008282820707070901007C82828282827CF2
:1027C000070A0A0901FDB8C4828282C4B8808080E9
:1027D000070A0A0901FD3A46828282463A0202024B
:1027E0000707070901009C62424040404007070775
:1027F0000901007C82807C02827C070909090100B2
:102800002020FC20202020221C070707090100822D
:1028100082828282867A0707070901008282444405
:102820002828100707070901008282929292AA4481
:1028300007070709010082442810284482070A0A72
:102840000901FD424224242418181090600707074C
:10285000090100FE0408102040FE060B0B090200CF
:102860001C20202020C0202020201C010C0C09044A
:10287000FF808080808080808080808080060B0B3D
:10288000090100E0101010100C10101010E00703E8
:102890000309010762928CFFFFFFFFFFFFFFFFFFAD
:1028A000FFFFFFFFFFFFFFFFFFFFFFFFFFFFFFFF38
:1028B000FFFFFFFFFFFFFFFF00000009000E010BFD
:1028C0000B0904008080000080808080808080066A
:1028D000080809010008789490A0A47840070A0A23
:1028E0000901001C222020F8202060A25C070606B7
:1028F000090103827C44447C82070A0A09010082A0
:102900008244287C107C101010010B0B0904FF80FE
:1029100080808080008080808080040B0B0902FF13
:1029200060908060909090601090600302020903B4
:102930000BA0A00809090900013C4299A5A1A5998D
:10294000423C050707090103609070907800F80782
:102950000808090101122448909048241206040432
:10296000090102FC040404050101090204F8080934
:10297000090900013C42B9A5BDA9A5423C060101D7
:10298000090109FC0404040903066090906007092A
:1029900009090101101010FE10101000FE040606B7
:1029A0000901046090106080F004060609010460CB
:1029B000902010906003030309030A204080070958
:1029C000090901FE8282828282C6BA8080070A0AD1
:1029D0000901007E8A8A8A7A0A0A0A0A0A0202021F
:1029E000090404C0C00403030902FD20906003062B
:1029F0000609010440C0404040E005060609010404
:102A00007088887000F807080809010190482412AE
:102A100012244890070A0A09010040C0404042E6DB
:102A20000A121A06070A0A09010040C040404CF287
:102A3000020C101E070A0A0901006090201092661D
:102A40000A121A06070A0A09010010001010204095
:102A50008082827C070E0E090100201008001028D9
:102A60002828447C44828282070E0E090100081047
:102A7000200010282828447C44828282070E0E09F8
:102A800001001028440010282828447C44828282B7
:102A9000070D0D09010034580010282828447C44F3
:102AA000828282070D0D090100282800102828289D
:102AB000447C44828282070E0E09010010282810EF
:102AC00010282828447C44828282070A0A090100CF
:102AD0001E2828284E784888888E070D0D0901FD8C
:102AE0003C42808080808080423C082418070E0E83
:102AF00009010020100800FE808080F8808080801E
:102B0000FE070E0E09010008102000FE808080F8EC
:102B100080808080FE070E0E09010010284400FE10
:102B2000808080F880808080FE070D0D09010028DC
:102B30002800FE808080F880808080FE050E0E09CF
:102B4000020040201000F82020202020202020F823
:102B5000050E0E09020010204000F8202020202041
:102B6000202020F8050E0E09020020508800F820D1
:102B700020202020202020F8050D0D0902005050B3
:102B800000F82020202020202020F8070A0A090130
:102B90000078444242F24242424478070D0D090156
:102BA000003458008282C2A2928A86828282070EF4
:102BB0000E090100201008007C82828282828282BB
:102BC000827C070E0E090100081020007C828282A0
:102BD00082828282827C070E0E0901001028440046
:102BE0007C82828282828282827C070D0D090100B2
:102BF0003458007C82828282828282827C070D0D20
:102C00000901002828007C82828282828282827C62
:102C100007070709010182442810284482070C0C89
:102C20000901FF027C868A8A9292A2A2C27C800756
:102C30000E0E0901002010080082828282828282A8
:102C4000824438070E0E090100081020008282829B
:102C500082828282824438070E0E090100102844C5
:102C60000082828282828282824438070D0D0901AD
:102C70000028280082828282828282824438070E63
:102C80000E09010008102000828244281010101044
:102C90001010070A0A0901008080FC828282FC80F1
:102CA0008080060A0A09010038444448D048444458
:102CB0004458070B0B090100201008007C02027E1B
:102CC00082867A070B0B090100081020007C0202A3
:102CD0007E82867A070B0B090100102844007C02D3
:102CE000027E82867A070A0A0901003458007C02B3
:102CF000027E82867A070A0A0901002828007C02DF
:102D0000027E82867A070C0C090100102828100028
:102D10007C02027E82867A0707070901006C121284
:102D20007E90926C070A0A0901FD7C828080808275
:102D30007C104830070B0B090100201008007C8232
:102D400082FE80827C070B0B090100081020007CAA
:102D50008282FE80827C070B0B0901001028440050
:102D60007C8282FE80827C070A0A090100282800F2
:102D70007C8282FE80827C050C0C0902008040204F
:102D80000000E02020202020F8050C0C0902001093
:102D900020400000E02020202020F8050C0C090233
:102DA000002050880000E02020202020F8050B0B98
:102DB00009020050500000E02020202020F8070BDE
:102DC0000B090100483050083C4482828244380795
:102DD0000A0A090100345800BCC28282828282073A
:102DE0000B0B090100201008007C82828282827C09
:102DF000070B0B090100081020007C82828282826E
:102E00007C070B0B090100102844007C828282821F
:102E1000827C070A0A0901003458007C828282827F
:102E2000827C070A0A0901002828007C82828282AB
:102E3000827C07090909010010381000FE001038D3
:102E4000100709090901FF027C8A8A92A2A27C80EC
:102E5000070B0B09010040201000828282828286CB
:102E60007A070B0B090100081020008282828282FF
:102E7000867A070B0B0901001028440082828282A7
:102E800082867A070A0A0901002828008282828243
:102E900082867A070E0E0901FD04081000424224C2
:102EA00024241818109060070B0B0901FE8080B8CD
:102EB000C4828282C4B88080070D0D0901FD2424DC
:102EC0000042422424241818109060000C0D00FECB
:102ED00007022603BC017FFE08FE08FE050808065F
:102EE000000040F0C888889878100508080600009F
:102EF000C0F88888888888F8050505060001203014
:102F0000F830200508080600002070F82020202056
:102F1000E00509090600FF2070A8A8B8888870207D
:102F2000050606060001E08CEA8C8A0A05090906F6
:102F300000FFF8A88888888888A8F8050A0A06008B
:102F4000FE205050505088A8A88870030303060044
:102F50000340A040FFFFFFFFFFFFFFFFFFFFFFFF5A
:102F6000FFFFFFFFFFFFFFFFFFFF0000000605FF61
:102F70000107070602008080808080008003030331
:102F8000060105A0A0A005060606000050F8505056
:102F9000F8500509090600FF2070A8A07028A87045
:102FA00020050707060000C8C810204098980507AC
:102FB0000706000040A0A040A89068010303060295
:102FC000058080800309090601FF20404080808041
:102FD0004040200309090601FF8040402020204096
:102FE000408005070706000020A8702070A8200573
:102FF00005050600012020F820200203030601FF3A
:10300000C04080050101060003F80202020601002B
:10301000C0C00507070600000810102040408005CA
:103020000707060000708898A8C88870030707067D
:10303000010040C040404040E00507070600007026
:103040008808102040F8050707060000F80810302F
:1030500008887005070706000010305090F810101F
:10306000050707060000F880F008088870050707C4
:10307000060000304080F0888870050707060000D1
:10308000F808101020202005070706000070888827
:103090007088887005070706000070888878081017
:1030A00060020505060100C0C000C0C00206060699
:1030B00001FFC0C000C0408003050506010120409B
:1030C000804020050303060002F800F8030505060A
:1030D000010180402040800507070600007088102D
:1030E000202000200507070600007088B8A8B880D7
:1030F00070050707060000708888F888888805072B
:1031000007060000F04848704848F0050707060029
:103110000070888080808870050707060000F048EE
:1031200048484848F0050707060000F88080F0800E
:1031300080F8050707060000F88080F08080800591
:1031400007070600007088808098887005070706CA
:103150000000888888F8888888030707060100E04F
:103160004040404040E005070706000038101010BE
:103170001090600507070600008890A0C0A0908806
:10318000050707060000808080808080F80507071B
:1031900006000088D8A888888888050707060000E8
:1031A0008888C8A89888880507070600007088885E
:1031B00088888870050707060000F08888F08080FE
:1031C0008005070706000070888888A890680507B2
:1031D00007060000F08888F0A09088050707060021
:1031E0000070888070088870050707060000F820C6
:1031F000202020202005070706000088888888886E
:1032000088700507070600008888888850502005C8
:10321000070706000088888888A8A85005070706C1
:10322000000088885020508888050707060000881D
:10323000885020202020050707060000F8081020ED
:103240004080F80309090601FFE0808080808080CB
:1032500080E00507070600008040402010100803AA
:1032600009090601FFE020202020202020E005039E
:10327000030600052050880501010600FEF803033F
:10328000030601058040200505050600007008784A
:1032900088780507070600008080F0888888F00598
:1032A000050506000070808088700507070600008D
:1032B000080878888888780505050600007088F079
:1032C0008070050707060000304840E04040400598
:1032D00007070600FE7088888878087005070706CB
:1032E00000008080F0888888880307070601004076
:1032F00000C0404040E00409090601FE1000301003
:10330000101010906005070706000080808890E08C
:103310009088030707060100C04040404040E00598
:103320000505060000D0A8A8A8A805050506000008
:10333000B0C88888880505050600007088888870F0
:103340000507070600FEF0888888F08080050707DB
:103350000600FE78888888780808050505060000BC
:10336000B0C880808005050506000078807008F0F0
:103370000507070600002020F82020201805050575
:10338000060000888888986805050506000088887A
:103390008850200505050600008888A8A850050566
:1033A0000506000088502050880507070600FE88A3
:1033B000888850204080050505060000F810204050
:1033C000F80309090601FF204040408040404020AA
:1033D0000109090602FF8080808080808080800350
:1033E00009090601FF80404040204040408005031D
:1033F0000306000248A890FF4D6F74696F6E004D80
:1034000038340044697361626C6520537465707070
:10341000657273004C6576656C20436F726E6572E1
:1034200073004732385A00486F6D65205A004732A2
:10343000385900486F6D65205900473238580048A8
:103440006F6D65205800473238004175746F204811
:103450006F6D65004D61696E0050726568656174DD
:1034600020504C412B20456E6400507265686561A8
:103470007420504C412B2042656400202D20496E61
:1034800076616C6964206578747275646572206E0B
:10349000756D62657220210A0070012C0190012770
:1034A00001B0012201C0011D01F001180110021339
:1034B0000130020E016002090190020401C002FF06
:1034C000000003FA004003F5008003F000D003EB96
:1034D000002004E6007004E100E004DC004005D7B1
:1034E00000C005D2004006CD00D006C8008007C34A
:1034F000003008BE00F008B900C009B400B00AAF3F
:1035000000B00BAA00D00CA500000EA000500F9B2D
:1035100000C01096005012910000148C00C0158756
:1035200000B0178200B0197D00D01B7800001E7318
:103530000040206E0090226900F024640040275F64
:103540000090295A00E02B5500102E500020304BDF
:103550000010324600E033410090353C0010373710
:103560000070383200A0392D00B03A2800A03B236B
:1035700000603C1E00103D1900903D1400103E0FED
:1035800000703E0A00C03E0500003F0000403FFBC7
:10359000FF803FF6FFC03FF1FF544845524D414C7C
:1035A0002052554E4157415900546865726D616C07
:1035B0002052756E61776179004572723A204D41F3
:1035C0005854454D50004D415854454D502074724B
:1035D00069676765726564004572723A204D494EAD
:1035E00054454D50004D494E54454D50207472691C
:1035F000676765726564004D383420582059205A39
:10360000204500202F002042403A0020403A002070
:10361000573A000009121B242D363F48415A536C7B
:10362000657E7719100B023D342F265158434A7599
:103630007C676E323B2029161F040D7A7368615E29
:10364000574C452B2239300F061D14636A71784799
:103650004E555C646D767F4049525B2C253E3708A1
:10366000011A137D746F6659504B42353C272E1159
:1036700018030A565F444D727B60691E170C053AA9
:103680003328214F465D546B627970070E151C2359
:103690002A31384148535A656C777E09001B122D38
:1036A000243F3658514A437C756E671019020B341B
:1036B0003D262F737A6168575E454C3B3229201FA7
:1036C000160D046A6378714E475C55222B3039061B
:1036D0000F141D252C373E0108131A6D647F76499F
:1036E000405B523C352E2718110A03747D666F50DB
:1036F00059424B171E050C333A21285F564D447B27
:103700007269600E071C152A233831464F545D62DA
:103710006B70794D6564696120496E73657274657B
:1037200064005072696E742041626F727465640047
:103730004D3235005061757365205072696E7400AA
:1037400000002100240027002A00000020002300A0
:1037500026002900000000010200090A0000000004
:103760000403080700000000000000000000000043
:10377000000000004D6F76652025736D6D00004DD3
:103780006F766520302E316D6D004D6F766520317E
:103790006D6D004D6F76652031306D6D004D6F762B
:1037A00065204178697300486F74656E6420746F9A
:1037B0006F20636F6C640045787472756465720085
:1037C0004D6F7665205A004D6F76652059004D6F1C
:1037D000766520580020436F756E7420583A004279
:1037E000656400453100626564002C207379737450
:1037F000656D2073746F7070656421204865617415
:1038000065725F49443A200048656174696E6720BB
:103810004661696C65640048656174696E6720661D
:1038200061696C656400A6E17FE111241FBECFEFE2
:10383000D0E4DEBFCDBF11E0A0E0B1E0EAE4F9EEF4
:1038400001E00BBF02C007900D92AC3AB107D9F767
:1038500022E1ACEAB1E001C01D92AD39B207E1F757
:103860001CE1C4E1DCE104C02197FE010E9404F4E4
:10387000C331D107C9F70E94A0DB0C9498F40C94D3
:1038800000002F923F924F925F926F927F928F92A1
:103890009F92AF92BF92CF92DF92EF92FF920F93DF
:1038A0001F93CF93DF93CDB7DEB7C155D1090FB6C4
:1038B000F894DEBF0FBECDBF62968FAF62972091A6
:1038C000B80121962FAF219781E08093B8018091B4
:1038D00065028D3409F467C1843511F40C94CD2947
:1038E000873411F00C94E829209063023090640230
:1038F00035E12316310411F40C94EA2994F454E0D0
:103900002516310444F482E0281631040CF054C02A
:1039100037FE35C044C194E02916310409F45AC079
:103920003EC1AAE52A16310409F4C4C05CF4EBE1F7
:103930002E16310409F48DC0FCE12F16310409F470
:10394000AAC02DC12BE52216310409F4B7C03CE50D
:103950002316310409F023C15EE5252E51E0352EF2
:1039600061EDE62E6AE0F62EE7EFF4E0F9A3E8A3B6
:1039700077E0C72E75E0D72E00E010E0DFC0809121
:10398000F402813011F00C94EA2988E50E944F334B
:10399000182F89E50E944F33811182E0182B8AE5A8
:1039A0000E944F33811184E0812B0E94237E81117C
:1039B0000C94EA290C94F8298091F402813011F0DA
:1039C0000C94EA2987E00E94237E81110C94EA2955
:1039D0000C94C82A80E50E949833882329F00E941D
:1039E000AC576B017C0103C0C12CD12C760183E55F
:1039F0000E949833882361F00E94183320E030E061
:103A00004AE754E40E9485EA0E9436F26B017C0189
:103A10000E94777A8091D211811105C060E08BE21B
:103A200093E00E949ACA0E9481D3C60ED71EE81E58
:103A3000F91E0E9481D3DC01CB018C199D09AE09CE
:103A4000BF09B7FD02C00C94EA2980E00E94F33858
:103A5000F0CF87E00E94237E81110C94EA2919821D
:103A60001A821B821C821D821E821F82188680E0A1
:103A700090E0A0E2B2E489879A87AB87BC8760E0D8
:103A800070E080E50E944052BE016F5F7F4F0E9450
:103A900070C90C94EA298091DD0A8770873011F093
:103AA0000C94A62F8FE40E9407B681110C94EA298A
:103AB0000C94A62F1092B7010C94EA298FE0809302
:103AC000B7010C94EA290E9418332B013C011330F2
:103AD00049F0F60120813181428153810E94C2F078
:103AE0002B013C01A8A1B9A12D913D914D915C9173
:103AF000C301B2010E94C2F04B015C012DEB37E320
:103B000046E855EB0E9423F387FD20C02DEB37E3F9
:103B100046E855E3C501B4010E941FEA1816B4F047
:103B20001F5FB4E0EB0EF11CE8A1F9A13496F9A3F4
:103B3000E8A3F4E0CF0ED11C143039F1D1018D91FE
:103B40001D010E949833882359F3BDCF133051F4DF
:103B50004092030550920405609205057092060597
:103B600001E0DECFA5019401F701608171818281BE
:103B700093810E94C3F0D7016D937D938D939C93A5
:103B80001397812F0E94F07DCBCF002321F083E09B
:103B900095E00E9416610E944B810C94EA290E94D4
:103BA000F9B50C94EA2980916302909164028237FE
:103BB000910509F46BC60CF0F3C08934910509F442
:103BC000B8C40CF079C08831910509F4CEC20CF06C
:103BD00049C08231910509F409C66CF497FF02C00F
:103BE0000C94CA29823091050CF419C2419709F44A
:103BF00080C20C94CA298531910509F497C22CF52D
:103C0000449711F00C94CA298CE793E00E94EA369D
:103C100088E19EE00E94AD3F8BE1E8E1FEE0DE013D
:103C2000119601900D928A95E1F760E070E0CE0167
:103C300001960E94F377CE0101960E94BB428DE669
:103C400093E00E94EA360C94EA298631910509F442
:103C500071C2479711F00C94CA29E0916102F0916A
:103C6000620275C28D31910509F4F9C2B4F48A314A
:103C7000910509F493C20CF484C28B31910509F4C7
:103C80009BC24C9711F00C94CA29809161029091CB
:103C900062020E947A760C94EA298F31910509F428
:103CA00088C30CF4E3C28032910509F440C38A97BB
:103CB00009F429C40C94CA298836910509F450C422
:103CC0000CF044C08235910509F482C564F58C344A
:103CD000910509F43FC44CF48B34910511F00C9418
:103CE000CA290E94D5360C94EA298D34910509F42D
:103CF00034C48135910511F00C94CA290E94F2C494
:103D00000E942A840E94887A0E94AE3668EE73E090
:103D100080E090E00E94E23560E085E994E00E9456
:103D20009ACA0C94EA298435910509F45FC50CF40C
:103D300056C58535910509F486C58C35910511F078
:103D40000C94CA290E94C1560C94EA298D3691051B
:103D500009F424C4ACF48A36910509F44CC40CF47B
:103D600034C48B36910509F462C48C36910511F088
:103D70000C94CA2910922812109213010C94EA296B
:103D80008F36910509F46CC40CF459C48037910541
:103D900009F4AAC48137910509F4B0C40C94CA2966
:103DA0008C3D910509F48DC70CF0BEC08639910594
:103DB00009F42CC60CF08BC08737910509F4B9C5FE
:103DC0000CF075C08537910509F467C50CF075C511
:103DD0008337910511F00C94CA2985EC95E00E9477
:103DE000EA3660E085EB95E00E942E5060E080EAC4
:103DF00095E00E942E5060E089E995E00E942E50E7
:103E000061E08EE895E00E942E5061E08EE795E03B
:103E10000E942E5060E085E795E00E942E5061E000
:103E20008BE695E00E942E5060E081E695E00E94CE
:103E30002E5060E089E595E00E942E5060E08BE412
:103E400095E00E942E5061E08DE395E00E942E5097
:103E500060E08EE295E00E942E5060E080E295E006
:103E60000E942E5060E08AE095E00E942E5060E0B3
:103E700089EF94E00E942E5060E08AEE94E00E9468
:103E80002E5060E085ED94E00E942E5061E082ECBF
:103E900094E00E942E5060E085EB94E00E942E504A
:103EA00060E081EA94E00E942E500C94EA29893760
:103EB000910509F449C50CF43FC58C38910509F406
:103EC00044C48139910509F446C50C94CA298B3C38
:103ED000910509F472C6ACF48E3B910509F44FC408
:103EE00034F48B39910509F44DC40C94CA29883CEB
:103EF000910509F4F2C5893C910509F438C60C9482
:103F0000CA298D3C910509F4ABC60CF475C68E3CEC
:103F1000910509F4B8C6833D910511F00C94CA29A6
:103F20000E94CC570C94EA298A3921E0920709F4BF
:103F3000E2C3ACF58D3241E0940711F40C948C2768
:103F4000B4F4823E910509F439C734F48D3D9105EE
:103F500009F4DEC60C94CA298232A1E09A0709F45A
:103F600079C78C32914009F4C2C70C94CA298F32A8
:103F7000E1E09E0711F40C94C22814F40C947E28FE
:103F8000803321E0920711F40C940B288039914082
:103F900011F00C94CA290E94777A0C94EA298C308B
:103FA00042E0940711F40C943C29ECF4843FA1E026
:103FB0009A0711F40C9432293CF48C3A914011F494
:103FC0000C94C5280C94CA29853FF1E09F0711F491
:103FD0000C943929863F914011F00C94CA290E9413
:103FE000D1810C94EA298B3532E0930711F40C94BB
:103FF00044294CF48835924011F00C94CA290E944F
:1040000066520C94EA29803AA3E09A0709F4C3C1E6
:10401000873E934011F40C94BD290C94CA2980E585
:104020000E949833882329F00E94AC576B017C01D1
:1040300003C0C12CD12C760183E50E9498338823DC
:1040400061F00E94183320E030E04AE754E40E9417
:1040500085EA0E9436F26B017C010E94777A81E545
:104060000E944F33182F882329F00E94A14581E038
:104070008093BF018091610290916202009721F0CC
:1040800061E00E9414CB07C0111105C060E081E51A
:1040900093E00E949ACA0091B80183E08093B8012E
:1040A00081E080932812C114D104E104F10431F0BD
:1040B0000E9481D3C60ED71EE81EF91E80912812D9
:1040C000882311F40C94C930C114D104E104F10423
:1040D00011F40C94C4300E9481D3DC01CB018C1903
:1040E0009D09AE09BF09B7FF02C00C94C4300C94FF
:1040F000C93080915D0284FF02C00C94DA30809157
:104100005F0287FF02C00C94DA30809160028370F6
:1041100011F00C94DA3060E084E693E00E949ACAD1
:104120005E985E9815985E980C94EA290E94D17466
:104130000C94EA290E941C748091010E877F809361
:10414000010E0C94EA29803209F4108231968081A4
:104150008111F9CF60E080916102909162020E942A
:10416000C776109203030C94EA290E94B136882383
:1041700021F00E942D740E94D5360E94D4B30C9475
:10418000EA298091010E82FF03C08B7F8093010E8C
:104190000E9415840E94D4B30C94EA298091010EE8
:1041A00083FD02C00C94EA2983E50E9498338111B3
:1041B0000C94EC300C94EA2983E40E944F3388235A
:1041C00019F187E993E00E94EA3680915F0F882316
:1041D00091F0BE016F5F7F4F8CE59FE00E944B42E4
:1041E0008E010F5F1F4FF80181918F01882339F0F5
:1041F0000E94E336F8CF8DE893E00E94EA368AE029
:104200000E94E3360C94EA298091010E82FF21C0BE
:1042100086EA93E00E94EA366091FD0D7091FE0DF2
:104220008091FF0D9091000E4AE00E94B0378FE21E
:104230000E94E3366091F90D7091FA0D8091FB0DAB
:104240009091FC0D4AE00E94B0370E94CC380C944B
:10425000EA2988EB93E00E94EA360C94EA298091DF
:10426000010E8E7F8093010E0C94EA298091010E3D
:1042700083FD02C00C94EA290E94E2B58091010EF0
:1042800083FD02C00C94EA294091610250916202C0
:10429000BE01645E7F4F80E00E94EE878C01009734
:1042A00011F40C94EA296C8D7D8D19821C8222E018
:1042B000AC01CE0101960E94B044811102C0F12CE4
:1042C00014C0CE0101960E945C878823C1F361E08F
:1042D000CE0101960E942F42009789F325EEDC0162
:1042E0002C931C820E941B40F82ECE0101960E9446
:1042F000BB42B801FF2089F084EE93E00E94F936BA
:104300008AE00E94E3361092FD0D1092FE0D10928D
:10431000FF0D1092000E0C94EA298CEC93E00E94A1
:10432000F93689EC93E00E94EA360C94EA298091F0
:10433000010E82FD0E94777A8091010E83FD02C0FA
:104340000C94EA2980E50E9407B6182F682F809107
:104350006102909162020E94C77683E50E949833C1
:10436000882381F00E94F432AB01BC014093FD0D23
:104370005093FE0D6093FF0D7093000E8CE59FE04F
:104380000E94BE3D0E942D7411110C94EA290E94D6
:10439000D5360C94EA292091610230916202909105
:1043A000010E92609093010EC9010E947A760C94DE
:1043B000EA290E94A2837B018C0120E831E541E0DB
:1043C00050E00E945FF0C9016DE671E00E94DCF3ED
:1043D0004B015C01C801B70120E13EE040E050E044
:1043E0000E945FF0CA01B90128E130E040E050E0EE
:1043F0000E945FF0762E672EC62ED72E4CE3242E19
:10440000312C412C512CC801B701A20191010E940D
:104410005FF0F62EE72ECA01B901A20191010E94B8
:104420005FF0CB018E010F5F1F4F8114910499F053
:10443000EF92FF927F936F936F927F92BF92AF92B2
:104440009F928F928AE194E09F938F931F930F9393
:104450000E94B7E913C0A114B104B1F0EF92FF922A
:104460007F936F936F927F92BF92AF928AE094E0B6
:104470009F938F931F930F930E94B7E90FB6F89401
:10448000DEBF0FBECDBF30C0CD2879F0EF92FF92D6
:104490007F936F936F927F928EEF93E09F938F93B2
:1044A0001F930F930E94B7E9E9CF892B69F0EF9230
:1044B000FF927F936F9386EF93E09F938F931F9369
:1044C0000F930E94B7E9DACFEF92FF9282EF93E069
:1044D0009F938F931F930F930E94B7E90F900F90B4
:1044E0000F900F900F900F9060E0C8010E9414CBC6
:1044F0000E941037B8018EE294E00E94F9368AE0FB
:104500000E94E33667C76FEF7FEF80E50E9453524A
:104510008C0197FD5FC7E82E89E40E9407B68111E0
:104520000C94FD30802F0E947BDB811164C40C94BD
:10453000FD3080E50E944F33882309F44BC70E9469
:10454000043390E08536910510F084E690E0809386
:10455000030340C70E9415843DC70E942A843AC7BE
:104560008091F70983FD36C70E94175287FD32C735
:1045700083E50E949833882309F42CC70E941833DE
:104580000E942FF2CB010E943CC10E94DFC4811126
:1045900021C70E942A840E94D4B31CC78091F709C6
:1045A00083FD18C70E941752082F87FD13C783E5A4
:1045B0000E949833182F81110C943A3182E50E94A1
:1045C000983381110C943A3105C70E941752182F65
:1045D00087FD0AC088E694E00E94EA36812F0E9497
:1045E0004CC18AE00E94E3362196AFAD2197A0939B
:1045F000B8010C94B23280E50E9414B68111EAC66B
:1046000081E40E944F33882321F060912F0570E0F0
:1046100002C06FEF70E083E50E9440528F3F91052A
:1046200019F010F08FEF90E080932F05D3C680E54E
:104630000E9414B68111CEC610922F05CBC68EE40F
:104640000E949833882309F4C5C60E94F43260930F
:10465000EA027093EB028093EC029093ED02BAC6EB
:1046600083E50E944F33882329F083E50E9414B626
:104670008093F7090E94103789E794E00E94EA3698
:104680008091F709882369F13FE6E32E34E0F32EA9
:1046900000E010E020E08091F70990E0A0E0B0E0B9
:1046A000002E04C0B695A795979587950A94D2F7E2
:1046B00080FF0EC0DD24D394D20E222319F08CE2A9
:1046C0000E94E336F701859194910E94EA362D2DE0
:1046D0000F5F1F4FB2E0EB0EF11C05301105D9F64C
:1046E0008ECD8BE694E089CD41E060E070E080E81B
:1046F00094E00E9438370E942C366CC683E50E94F5
:104700009833882371F00E940433282F30E02D3332
:1047100031051CF4809304015DC68CE38093040191
:1047200059C60E941037C0900401D12CE12CF12C05
:104730008EE894E00E94EA364AE0C701B6010E9482
:10474000B0378AE00E94E33645C68091F70983FDC1
:1047500041C683E50E949833882309F416CF0E944E
:1047600018330E942FF26436710514F064E670E08D
:104770007093AC116093AB110E9456C006CF0E949B
:10478000CA4B28C683E50E949833882309F422C6C1
:104790000E940433182F90E0CD970CF01CE3109387
:1047A000B0010E9481D36B017C01212F30E0A8EE83
:1047B000B3E00E94B3F0C60ED71EE81EF91EC092E9
:1047C000AC01D092AD01E092AE01F092AF0102C611
:1047D0008091B7018F7D80618093B701FBC5809187
:1047E000B7018F7E80628093B701F4C583E50E9494
:1047F0009833882399F00E94183320E030E04AE78C
:1048000054E40E9485EA0E9436F260930501709399
:1048100006018093070190930801DCC580915D0239
:1048200084FF02C00C94893180915F0287FF02C02F
:104830000C94893180916002837011F00C9489315D
:104840000E94887AC7C583E50E944F33882309F404
:10485000C1C50E9481D3609353117093541180930A
:104860005511909356110E94183320E030E04AE72A
:1048700054E40E9485EA0E9436F26093B10170937D
:10488000B2018093B3019093B401A4C50E949071CA
:104890008CE79DE00E9413DB9DC5809161029091A1
:1048A0006202009709F469CCFC012081222309F4FB
:1048B00064CC60E00E9414CB8DC500916102109120
:1048C000620294E0F12C40E0915031F1D8018C91DA
:1048D000282F2B7F213429F411962C912133E1F4D8
:1048E00008C08035C9F4F801818180538A3048F0CE
:1048F00013C0813421F0853421F441E002C0FF244B
:10490000F39498012E5F3F4F89012F5F3F4FD801ED
:104910008C918032C9F3D8CF41110E941037FF200B
:1049200021F08EE896E00E94EA36C8010E94D23853
:1049300051C50E94AB814EC581E08093F202809305
:10494000F1020E94C68146C51092F2021092F10255
:104950000E94C6813FC560E070E083E50E9453522B
:104960008C011127023011053CF00E940C3782E9BE
:1049700096E00E94EA362EC588E40E949833882388
:10498000A9F00E94F4326F3A71053CF06530B1E055
:104990007B072CF064E071E002C06FEA70E0F80180
:1049A000EE0FFF1FE353F54F7183608386E40E948F
:1049B0009833882381F00E94F43277FD07C06F3F5F
:1049C000710529F024F06FEF70E001C060E0F8019C
:1049D000E953F54F608382E40E949833882309F4F9
:1049E000F9C40E94F4326530710534F06536710502
:1049F0002CF064E670E002C065E070E0000F111F6B
:104A0000F801E753F54F71836083E4C480E50E94A9
:104A10004F33882351F08091B5019091B601892BD5
:104A200041F00E940433182F05C010910A0E115056
:104A300001C01FEF87E50E944F33882351F080911A
:104A4000B5019091B601892B31F00E940433082FF3
:104A500003C000E001C00FEF82E40E944F338823BF
:104A600051F08091B5019091B601892B31F00E94EF
:104A70000433F82E04C0F12C02C0FF24FA9485E51B
:104A80000E944F33882351F08091B5019091B60177
:104A9000892B31F00E940433E82E04C0E12C02C0BF
:104AA000EE24EA9482E50E944F33882349F08091F6
:104AB000B5019091B601892B29F00E94043303C0FF
:104AC00080E001C08FEF8983EA82FB820C831D8323
:104AD000CE0101960E9464B57DC40E941752182F22
:104AE00087FD78C484E40E944F338823E9F10E9453
:104AF00018336B017C0101E020E030E0A9010E9445
:104B00001FEA811101C000E00093EE0A20E030E0CE
:104B1000A901C701B6010E941FEA882329F124E0F8
:104B20001202F0011124ED50F54FC082D182E282D1
:104B3000F38220E030E0A9016091F30A7091F40A59
:104B40008091F50A9091F60A0E941FEA81110CC02B
:104B500080E090E0A0EEBFE38093F30A9093F40A24
:104B6000A093F50AB093F60A0E94FA7933C40E9422
:104B7000175287FD2FC4BEE5EB2EB1E0FB2E08EFE8
:104B800019E088E0C82E8AE0D82ED7018D917D01EA
:104B90000E944F33882359F00E9418330E9436F246
:104BA000F80160837183828393830E94CF600C5FDE
:104BB0001F4FC016D10649F70DC40E94175287FD3A
:104BC00009C4AEE5EA2EA1E0FA2E08EF19E0D701FC
:104BD0008D917D010E944F33882339F00E94183354
:104BE000F80164A375A386A397A30C5F1F4FFAE097
:104BF00008301F0761F7EEC380915E0287FF02C095
:104C00000C94AE3180915F028E7011F00C94AE3135
:104C100040912C0A50912D0A60912E0A70912F0A12
:104C20008AEB96E00E94BB384091300A5091310ADD
:104C30006091320A7091330A87EB96E00E94BB388C
:104C40004091340A5091350A6091360A7091370AC2
:104C500084EB96E00E94BB388AE00E94E336BAC338
:104C600080915D0281FF02C00C94F63180915E025A
:104C700081FF02C00C94F63180915F028C7011F0BC
:104C80000C94F631A7C3F6EFEF2EF2E0FF2E10E002
:104C900088E5810F0E944F33882359F00E94183312
:104CA000D7016D937D938D939C931397812F0E94D1
:104CB000F07D1F5FB4E0EB0EF11C133049F70C944C
:104CC000CB1D83E50E949833882331F00E94F43293
:104CD00070934B0160934A0180915D0290915E0256
:104CE000A0915F02B0916002892B8A2B8B2B09F077
:104CF00071C360914A0170914B0189EE96E00E9468
:104D0000393885E20E94E3368AE00E94E33662C3C6
:104D10000E941752F82E87FD5DC383E50E949833E9
:104D20000F2D0F2C000C110B882369F10E94F43217
:104D3000F801EE0FFF1FE85CFE4F71836083000FE8
:104D4000111F000F111FF801E85EFE4F7F01072EB3
:104D5000000C880B990B0E9426EA2AE037ED43E20B
:104D60005CE30E9485EAF801E151F54F2081318131
:104D7000428153810E9485EAD7016D937D938D9383
:104D80009C93139727C30E94103785E40E94E33653
:104D900080E38F0D0E94E336F801EE0FFF1FE85C01
:104DA000FE4F608171818DEE96E00E94393885E278
:104DB0000E94E3368AE00E94E3360CC380E50E943D
:104DC0004F33882309F406C360E070E080E50E9459
:104DD0005352F82E6FEF7FEF83E50E9453528C0100
:104DE0000196039708F0F6C2F7FCF4C28F2D0E94DB
:104DF0007BDB882339F00E940C3785EF96E00E9418
:104E0000EA36E8C20E94777A60E08F2D0E9474D261
:104E10000F3FBFEF1B0731F00130110571F401E0C6
:104E200010E00DC08F2D0E941CD231E020E0892BB4
:104E300009F030E0032F122F02C000E010E08F2DA8
:104E40000E941CD28017910709F4C4C280E00E941E
:104E5000F338F5CF8AE50E949833811105C083E5C8
:104E60000E949833882349F10E94183320E030E0F3
:104E700040E050EC0E941FEA87FF02C00C945832B9
:104E80000E94183320E030E040E050E40E9423F319
:104E9000181614F40C9452320E9418332091140AFC
:104EA0003091150A4091160A5091170A0E9485EA1E
:104EB0000E942FF2CB010E941BB680915F0287FFF8
:104EC00002C00C945E3280916002837011F00C94E9
:104ED0005E320E9410376091591170915A1184E02E
:104EE00097E00E9439388AE00E94E33673C264E09A
:104EF00071E083E50E9440528C0168EE73E080E52A
:104F00000E9440528938E3E19E0710F088E893E15F
:104F1000B8010E946DCA5EC285E40E9414B6811178
:104F200073C080E50E944F33882351F00E941833EC
:104F30006093240D7093250D8093260D9093270D7B
:104F400089E40E944F33882381F00E9418332CEAB1
:104F500035EC47E25EE30E9485EA6093280D70938A
:104F6000290D80932A0D90932B0D84E40E944F33DA
:104F7000882381F00E9418332CEA35EC47E25EE387
:104F80000E94BDF160932C0D70932D0D80932E0D1A
:104F900090932F0D0E9410374091240D5091250DB4
:104FA0006091260D7091270D89E297E00E94BB3831
:104FB0002CEA35EC47E25EE36091280D7091290DF3
:104FC00080912A0D90912B0D0E94BDF1AB01BC0187
:104FD00085E297E00E94BB382CEA35EC47E25EE3BD
:104FE00060912C0D70912D0D80912E0D90912F0DB3
:104FF0000E9485EAAB01BC0181E297E00E94BB38C8
:105000008AE00E94E336E6C10E940C378FE097E009
:105010000E94EA36DFC180E50E944F33882351F0B9
:105020000E9418336093AE117093AF118093B0114A
:105030009093B11189E40E944F33882381F00E943C
:1050400018332CEA35EC47E25EE30E9485EA609370
:10505000B2117093B3118093B4119093B51184E49D
:105060000E944F33882381F00E9418332CEA35ECDC
:1050700047E25EE30E94BDF16093B6117093B711F1
:105080008093B8119093B9110E9410374091AE11DE
:105090005091AF116091B0117091B11185E397E01B
:1050A0000E94BB382CEA35EC47E25EE36091B21116
:1050B0007091B3118091B4119091B5110E94BDF11E
:1050C000AB01BC0181E397E00E94BB382CEA35ECD0
:1050D00047E25EE36091B6117091B7118091B8110B
:1050E0009091B9110E9485EAAB01BC018DE297E075
:1050F0000E94BB388AE00E94E3366CC183E50E94BF
:105100004F33182F882371F00E9418330E942FF21A
:1051100070931D0160931C0121E0672B09F020E0D2
:105120002093440580E50E944F33882359F0209155
:105130001C0130911D01232B11F00E94BC5780935C
:10514000440548C1111146C10E94103785E597E01A
:105150000E94EA3680914405811103C089E397E0FB
:1051600002C08DE397E00E94EA3660911C017091C5
:105170001D0184E497E00E94393880E497E00E94A2
:10518000EA3628C10E94BA4525C187E00E94237EE5
:10519000811120C104EA18E127EF34E039A328A3E4
:1051A000AE014F5F5F4F1A0139EFC32E38E1D32EA6
:1051B0007A01F8016591759185919491A8A1B9A1A1
:1051C0008D909D90AD90BD90B9A3A8A3A501940129
:1051D0000E94C2F02B013C0120E030E040EA51EC9B
:1051E0000E9423F387FD10C020E030E040EA51E444
:1051F000C301B2010E941FEA181634F0F701408281
:105200005182628273820EC0F60184911816B4F73F
:10521000B7FAB094B7F8B094D7018D929D92AD9241
:10522000BC921397D7018D909D90AD90BD907D015C
:1052300020E030E040EA51ECC501B4010E9423F3C4
:1052400087FF02C00C94663220E030E040EA51E46F
:10525000C501B4010E941FEA181614F00C947B32A9
:105260000C9466320E940C3784EA97E00E94EA367A
:10527000B1C00E94D181AEC08091010E82FFAAC050
:1052800080648093010EA6C00E941752082F87FDEC
:10529000A1C085E50E944F338823B1F1E02E002E96
:1052A000000CFF080E9418334B015C0120E030E045
:1052B000A9010E9423F387FF04C0B7FAB094B7F89E
:1052C000B094C70123E0880F991F2A95E1F79C014C
:1052D0002154354F7901D9018D929D92AD92BC92A6
:1052E000139720E030E041EE53E4C501B4010E9481
:1052F00023F318164CF480E090E0A1EEB3E4F7013C
:1053000080839183A283B3838CE40E944F338823EC
:1053100009F460C0002E000C110B0E9418336B01C1
:105320007C0120E030E0A9010E9423F387FF04C044
:10533000F7FAF094F7F8F09420E030E041EE53E40F
:10534000C701B6010E9423F3980193E0220F331F97
:105350009A95E1F7F901E154F54F18162CF0C48243
:10536000D582E682F78236C080E090E0A1EEB3E419
:1053700084839583A683B7832DC081E08093F40254
:105380001092271283E50E9407B6811123C00E9464
:10539000D84D20C00E94F9B51DC000916302109144
:1053A00064020023B9F00E94103784E50E94E336BE
:1053B000B8017727072E000C880B990B0E941D3827
:1053C00080E20E94E33685EB97E00E94EA3602C055
:1053D0000E94F9B56296FFAD6297F11102C00E947A
:1053E000C84D21962FAD21972093B8010C94B2326D
:1053F0000E9465518EED9AE00E94797E8091F709B6
:1054000083FD88C020910305309104054091050576
:10541000509106056091EA0A7091EB0A8091EC0ABE
:105420009091ED0A0E941FEA882309F473C08091CD
:10543000440581111EC020E030E0A90160911D0DDE
:1054400070911E0D80911F0D9091200D0E94C3F050
:105450000E942FF220911C0130911D0162177307E9
:1054600044F40E9410378AEF92E00E94EA3611E07D
:1054700001C010E02091030530910405409105051D
:10548000509106056091EA0A7091EB0A8091EC0A4E
:105490009091ED0A0E94C2F06B017C0120E030E0A7
:1054A000A9010E9423F387FF04C0F7FAF094F7F8EC
:1054B000F094209118013091190140911A015091F6
:1054C0001B01C701B6010E9485EA20E030E041EEF1
:1054D00053E40E9423F318163CF40E9410378BED1E
:1054E00092E00E94EA3602C01123A1F08091EA0AFC
:1054F0009091EB0AA091EC0AB091ED0A809303051C
:1055000090930405A0930505B09306058AEE9AE0F2
:105510000E9416612AE037ED43E25CE360910001EE
:105520007091010180910201909103010E9485EA2E
:105530006B017C0160914A0170914B01072E000CB8
:10554000880B990B0E9426EA9B01AC01C701B601AA
:105550000E9485EA69837A838B839C83C12CD12C3A
:1055600076018E010F5F1F4F2AEE3AE046EE5AE0B9
:1055700062EE7AE08EED9AE00E94327180E1EEED0B
:10558000FAE0A7EFB4E001900D928A95E1F722CFFF
:105590000E94655182E50E949833882309F448C02F
:1055A0000E9418336B017C0120E030E0A9010E94C9
:1055B0001FEA882309F4C3C48091F7049091F8048A
:1055C000A091F904B091FA0488A399A3AAA3BBA35C
:1055D0002091FB043091FC044091FD045091FE04A5
:1055E0002CA33DA34EA35FA38090DE0A9090DF0A18
:1055F000A090E00AB090E10A4090E20A5090E30ADD
:105600006090E40A7090E50AA5019401BC01CD0107
:105610000E941FEA81113AC0A30192016CA17DA1F1
:105620008EA19FA10E941FEA882309F488C42EC07E
:1056300089E40E949833882329F00E9418336B0173
:105640007C0103C0C12CD12C76018AE40E949833DE
:10565000882309F4D9C00E94183368A779A78AA7BC
:105660009BA720E030E0A901C701B6010E941FEA14
:105670008111D8C020E030E0A90168A579A58AA5EC
:105680009BA50E941FEA8111CDC059C411E032E0F0
:105690002316310409F010E020E030E0A901C70131
:1056A000B6010E941FEA881F8827881F181309C0A7
:1056B00080E090E0A0E8BFE388A799A7AAA7BBA7CE
:1056C00008C020E030E040E85FEB28A739A74AA7F0
:1056D0005BA728A139A14AA15BA1C501B4010E9421
:1056E000C2F020E030E040E05FE30E9485EA68A37A
:1056F00079A38AA39BA32CA13DA14EA15FA1C301C5
:10570000B2010E94C2F020E030E040E05FE30E947E
:1057100085EA6CA37DA38EA39FA328A139A14AA1EA
:105720005BA1CA01B9010E9485EA4B015C012CA171
:105730003DA14EA15FA1CA01B9010E9485EA9B016A
:10574000AC01C501B4010E94C3F00E9471F34B018A
:105750005C019B01AC01C701B6010E94C2F02B01A4
:105760003C01A5019401C701B6010E94C3F09B0151
:10577000AC01C301B2010E9485EA6B017C0120E00B
:1057800030E0A9010E9423F387FD07C0C701B601DD
:105790000E9471F32B013C0103C0412C512C3201BA
:1057A0006CA17DA18EA19FA19058A50194010E949A
:1057B000BDF128A539A54AA55BA50E9485EAA301EC
:1057C00092010E9485EA28A139A14AA15BA10E9409
:1057D000C3F06B017C01A501940168A179A18AA1A4
:1057E0009BA10E94BDF128A539A54AA55BA50E94F1
:1057F00085EAA30192010E9485EA2CA13DA14EA158
:105800005FA10E94C3F029CF20E030E0A901C701C9
:10581000B6010E941FEA882309F491C318A619A6AD
:105820001AA61BA6D701C601B05888A399A3AAA39C
:10583000BBA328A539A54AA55BA550582CA33DA319
:105840004EA35FA39C01AD01BC01CD010E9485EA7E
:105850004B015C012CA13DA14EA15FA1CA01B90180
:105860000E9485EA9B01AC01C501B4010E94C3F00E
:105870000E9471F36CAF7DAF8EAF9FAF8091F70444
:105880009091F804A091F904B091FA048CA79DA717
:10589000AEA7BFA7A7019601BC01CD010E94C3F02E
:1058A00025966CAF7DAF8EAF9FAF25972091FB04FF
:1058B0003091FC044091FD045091FE0428AB39ABBB
:1058C0004AAB5BAB68A579A58AA59BA50E94C3F0EE
:1058D00029966CAF7DAF8EAF9FAF29978091DE0A7E
:1058E0009091DF0AA091E00AB091E10A8CAB9DABE8
:1058F000AEABBFAB25962CAD3DAD4EAD5FAD2597A4
:10590000BC01CD010E94C2F06B017C012091E20A32
:105910003091E30A4091E40A5091E50A28AF39AF8B
:105920004AAF5BAF29962CAD3DAD4EAD5FAD29972B
:1059300068AD79AD8AAD9BAD0E94C2F04B015C01B0
:10594000A701960168A179A18AA19BA10E9485EA7D
:105950002B013C01A50194016CA17DA18EA19FA109
:105960000E9485EA9B01AC01C301B2010E94C3F011
:105970002B013C01A501940168A179A18AA19BA1F9
:105980000E9485EA4B015C01A70196016CA17DA1F3
:105990008EA19FA10E9485EA9B01AC01C501B401C3
:1059A0000E94C2F0A30192010E9442F16B017C01AE
:1059B00020E030E0A9010E941FEA87FF0AC02BED1A
:1059C0003FE049EC50E4C701B6010E94C3F06B010F
:1059D0007C012BED3FE049EC50E4C701B6010E9489
:1059E000BDF120E030E040EC51E40E9485EA0E94E5
:1059F000A1F10E9436F28B01672B11F401E010E057
:105A000032E02316310451F42BED3FE049EC50E431
:105A1000C701B6010E94C2F06B017C0120E030E0BA
:105A2000A901C701B6010E941FEA811122C02CA959
:105A30003DA94EA95FA96CA57DA58EA59FA50E9435
:105A40001FEA811116C028AD39AD4AAD5BAD68A91A
:105A500079A98AA99BA90E941FEA81110AC008E1BD
:105A600010E0ABEDCA2EAFE0DA2EA9ECEA2EA0E4EE
:105A7000FA2E8091FF0490910005A0910105B0914C
:105A8000020588AB99ABAAABBBAB9C01AD016091A1
:105A9000E60A7091E70A8091E80A9091E90A0E946B
:105AA000C2F02B013C01A70196016CAD7DAD8EAD1E
:105AB0009FAD0E9485EA4B015C0120E030E0A90126
:105AC000C301B2010E941FEA8823C9F0A501940115
:105AD000C501B4010E9485EA4B015C01A30192015A
